{
  "_format": "hh-sol-artifact-1",
  "contractName": "CreadentialManagement",
  "sourceName": "contracts/credential/CredentailMangement.sol",
  "abi": [
    {
      "anonymous": false,
      "inputs": [
        {
          "indexed": false,
          "internalType": "address",
          "name": "to",
          "type": "address"
        },
        {
          "indexed": false,
          "internalType": "uint256",
          "name": "orgId",
          "type": "uint256"
        },
        {
          "indexed": false,
          "internalType": "string",
          "name": "message",
          "type": "string"
        }
      ],
      "name": "CreateOrganazation",
      "type": "event"
    },
    {
      "anonymous": false,
      "inputs": [
        {
          "indexed": false,
          "internalType": "address",
          "name": "from",
          "type": "address"
        },
        {
          "indexed": false,
          "internalType": "uint256",
          "name": "orgId",
          "type": "uint256"
        },
        {
          "indexed": false,
          "internalType": "string",
          "name": "message",
          "type": "string"
        }
      ],
      "name": "DeleteOrganazation",
      "type": "event"
    },
    {
      "anonymous": false,
      "inputs": [
        {
          "indexed": true,
          "internalType": "bytes32",
          "name": "role",
          "type": "bytes32"
        },
        {
          "indexed": true,
          "internalType": "bytes32",
          "name": "previousAdminRole",
          "type": "bytes32"
        },
        {
          "indexed": true,
          "internalType": "bytes32",
          "name": "newAdminRole",
          "type": "bytes32"
        }
      ],
      "name": "RoleAdminChanged",
      "type": "event"
    },
    {
      "anonymous": false,
      "inputs": [
        {
          "indexed": true,
          "internalType": "bytes32",
          "name": "role",
          "type": "bytes32"
        },
        {
          "indexed": true,
          "internalType": "address",
          "name": "account",
          "type": "address"
        },
        {
          "indexed": true,
          "internalType": "address",
          "name": "sender",
          "type": "address"
        }
      ],
      "name": "RoleGranted",
      "type": "event"
    },
    {
      "anonymous": false,
      "inputs": [
        {
          "indexed": true,
          "internalType": "bytes32",
          "name": "role",
          "type": "bytes32"
        },
        {
          "indexed": true,
          "internalType": "address",
          "name": "account",
          "type": "address"
        },
        {
          "indexed": true,
          "internalType": "address",
          "name": "sender",
          "type": "address"
        }
      ],
      "name": "RoleRevoked",
      "type": "event"
    },
    {
      "anonymous": false,
      "inputs": [
        {
          "indexed": false,
          "internalType": "address",
          "name": "from",
          "type": "address"
        },
        {
          "indexed": false,
          "internalType": "address",
          "name": "to",
          "type": "address"
        },
        {
          "indexed": false,
          "internalType": "uint256",
          "name": "orgId",
          "type": "uint256"
        },
        {
          "indexed": false,
          "internalType": "string",
          "name": "message",
          "type": "string"
        }
      ],
      "name": "TransferOrganazation",
      "type": "event"
    },
    {
      "inputs": [],
      "name": "DEFAULT_ADMIN_ROLE",
      "outputs": [
        {
          "internalType": "bytes32",
          "name": "",
          "type": "bytes32"
        }
      ],
      "stateMutability": "view",
      "type": "function"
    },
    {
      "inputs": [],
      "name": "VERYFYIER_ROLE",
      "outputs": [
        {
          "internalType": "bytes32",
          "name": "",
          "type": "bytes32"
        }
      ],
      "stateMutability": "view",
      "type": "function"
    },
    {
      "inputs": [
        {
          "internalType": "uint256",
          "name": "",
          "type": "uint256"
        }
      ],
      "name": "_CtypeMetadata",
      "outputs": [
        {
          "internalType": "uint256",
          "name": "orgId",
          "type": "uint256"
        },
        {
          "internalType": "uint256",
          "name": "CTypeId",
          "type": "uint256"
        },
        {
          "internalType": "address",
          "name": "issuer",
          "type": "address"
        },
        {
          "internalType": "string",
          "name": "propertiesURI",
          "type": "string"
        },
        {
          "internalType": "string",
          "name": "propertiesHash",
          "type": "string"
        },
        {
          "internalType": "bool",
          "name": "transferable",
          "type": "bool"
        },
        {
          "internalType": "bool",
          "name": "revokable",
          "type": "bool"
        },
        {
          "internalType": "bool",
          "name": "expirable",
          "type": "bool"
        },
        {
          "internalType": "uint256",
          "name": "lifespan",
          "type": "uint256"
        },
        {
          "internalType": "enum CType.credentialTypeStatus",
          "name": "status",
          "type": "uint8"
        }
      ],
      "stateMutability": "view",
      "type": "function"
    },
    {
      "inputs": [
        {
          "internalType": "uint256",
          "name": "",
          "type": "uint256"
        }
      ],
      "name": "_credentiallMetadata",
      "outputs": [
        {
          "internalType": "uint256",
          "name": "credentialid",
          "type": "uint256"
        },
        {
          "internalType": "uint256",
          "name": "ctypeId",
          "type": "uint256"
        },
        {
          "internalType": "address",
          "name": "owner",
          "type": "address"
        },
        {
          "internalType": "string",
          "name": "name",
          "type": "string"
        },
        {
          "internalType": "string",
          "name": "propertyURI",
          "type": "string"
        },
        {
          "internalType": "string",
          "name": "propertyHash",
          "type": "string"
        },
        {
          "internalType": "uint256",
          "name": "createdAt",
          "type": "uint256"
        },
        {
          "internalType": "enum Credentia.credentialStatus",
          "name": "status",
          "type": "uint8"
        }
      ],
      "stateMutability": "view",
      "type": "function"
    },
    {
      "inputs": [
        {
          "internalType": "uint256",
          "name": "",
          "type": "uint256"
        }
      ],
      "name": "_organizationMetadata",
      "outputs": [
        {
          "internalType": "uint256",
          "name": "id",
          "type": "uint256"
        },
        {
          "internalType": "string",
          "name": "name",
          "type": "string"
        },
        {
          "internalType": "string",
          "name": "desc",
          "type": "string"
        },
        {
          "internalType": "string",
          "name": "uri",
          "type": "string"
        }
      ],
      "stateMutability": "view",
      "type": "function"
    },
    {
      "inputs": [
        {
          "internalType": "uint256",
          "name": "organizationId",
          "type": "uint256"
        },
        {
          "internalType": "string",
          "name": "propertiesURI",
          "type": "string"
        },
        {
          "internalType": "string",
          "name": "propertiesHash",
          "type": "string"
        },
        {
          "internalType": "bool",
          "name": "transferable",
          "type": "bool"
        },
        {
          "internalType": "bool",
          "name": "revokable",
          "type": "bool"
        },
        {
          "internalType": "bool",
          "name": "expirable",
          "type": "bool"
        },
        {
          "internalType": "uint256",
          "name": "lifespan",
          "type": "uint256"
        }
      ],
      "name": "createCtype",
      "outputs": [],
      "stateMutability": "nonpayable",
      "type": "function"
    },
    {
      "inputs": [
        {
          "internalType": "string",
          "name": "name",
          "type": "string"
        },
        {
          "internalType": "string",
          "name": "desc",
          "type": "string"
        },
        {
          "internalType": "string",
          "name": "uri",
          "type": "string"
        }
      ],
      "name": "createOrg",
      "outputs": [],
      "stateMutability": "nonpayable",
      "type": "function"
    },
    {
      "inputs": [
        {
          "internalType": "address",
          "name": "owner",
          "type": "address"
        }
      ],
      "name": "credentialsList",
      "outputs": [
        {
          "internalType": "uint256[]",
          "name": "",
          "type": "uint256[]"
        }
      ],
      "stateMutability": "view",
      "type": "function"
    },
    {
      "inputs": [
        {
          "internalType": "uint256",
          "name": "orgId",
          "type": "uint256"
        }
      ],
      "name": "ctypeLists",
      "outputs": [
        {
          "internalType": "uint256[]",
          "name": "",
          "type": "uint256[]"
        }
      ],
      "stateMutability": "view",
      "type": "function"
    },
    {
      "inputs": [
        {
          "internalType": "uint256",
          "name": "orgId",
          "type": "uint256"
        }
      ],
      "name": "ctypeOf",
      "outputs": [
        {
          "internalType": "uint256",
          "name": "",
          "type": "uint256"
        }
      ],
      "stateMutability": "view",
      "type": "function"
    },
    {
      "inputs": [
        {
          "internalType": "uint256",
          "name": "organizationId",
          "type": "uint256"
        },
        {
          "internalType": "uint256",
          "name": "ctypeId",
          "type": "uint256"
        }
      ],
      "name": "deleteCtype",
      "outputs": [],
      "stateMutability": "nonpayable",
      "type": "function"
    },
    {
      "inputs": [
        {
          "internalType": "uint256",
          "name": "organizationId",
          "type": "uint256"
        }
      ],
      "name": "deleteOrg",
      "outputs": [],
      "stateMutability": "nonpayable",
      "type": "function"
    },
    {
      "inputs": [
        {
          "internalType": "bytes32",
          "name": "role",
          "type": "bytes32"
        },
        {
          "internalType": "uint256",
          "name": "organizationId",
          "type": "uint256"
        }
      ],
      "name": "getRoleAdmin",
      "outputs": [
        {
          "internalType": "bytes32",
          "name": "",
          "type": "bytes32"
        }
      ],
      "stateMutability": "view",
      "type": "function"
    },
    {
      "inputs": [
        {
          "internalType": "bytes32",
          "name": "role",
          "type": "bytes32"
        },
        {
          "internalType": "uint256",
          "name": "index",
          "type": "uint256"
        },
        {
          "internalType": "uint256",
          "name": "organizationId",
          "type": "uint256"
        }
      ],
      "name": "getRoleMember",
      "outputs": [
        {
          "internalType": "address",
          "name": "",
          "type": "address"
        }
      ],
      "stateMutability": "view",
      "type": "function"
    },
    {
      "inputs": [
        {
          "internalType": "bytes32",
          "name": "role",
          "type": "bytes32"
        },
        {
          "internalType": "uint256",
          "name": "organizationId",
          "type": "uint256"
        }
      ],
      "name": "getRoleMemberCount",
      "outputs": [
        {
          "internalType": "uint256",
          "name": "",
          "type": "uint256"
        }
      ],
      "stateMutability": "view",
      "type": "function"
    },
    {
      "inputs": [
        {
          "internalType": "bytes32",
          "name": "role",
          "type": "bytes32"
        },
        {
          "internalType": "address",
          "name": "account",
          "type": "address"
        },
        {
          "internalType": "uint256",
          "name": "organizationId",
          "type": "uint256"
        }
      ],
      "name": "grantRole",
      "outputs": [],
      "stateMutability": "nonpayable",
      "type": "function"
    },
    {
      "inputs": [
        {
          "internalType": "bytes32",
          "name": "role",
          "type": "bytes32"
        },
        {
          "internalType": "address",
          "name": "account",
          "type": "address"
        },
        {
          "internalType": "uint256",
          "name": "organizationId",
          "type": "uint256"
        }
      ],
      "name": "hasRole",
      "outputs": [
        {
          "internalType": "bool",
          "name": "",
          "type": "bool"
        }
      ],
      "stateMutability": "view",
      "type": "function"
    },
    {
      "inputs": [
        {
          "internalType": "uint256",
          "name": "credentialid",
          "type": "uint256"
        },
        {
          "internalType": "uint256",
          "name": "ctypeId",
          "type": "uint256"
        },
        {
          "internalType": "address",
          "name": "to",
          "type": "address"
        },
        {
          "internalType": "string",
          "name": "name",
          "type": "string"
        },
        {
          "internalType": "string",
          "name": "propertyURI",
          "type": "string"
        },
        {
          "internalType": "string",
          "name": "propertyHash",
          "type": "string"
        }
      ],
      "name": "issueCredential",
      "outputs": [],
      "stateMutability": "nonpayable",
      "type": "function"
    },
    {
      "inputs": [],
      "name": "organizationLists",
      "outputs": [
        {
          "internalType": "uint256[]",
          "name": "",
          "type": "uint256[]"
        }
      ],
      "stateMutability": "view",
      "type": "function"
    },
    {
      "inputs": [
        {
          "internalType": "address",
          "name": "owner",
          "type": "address"
        }
      ],
      "name": "organizationListsByUser",
      "outputs": [
        {
          "internalType": "uint256[]",
          "name": "",
          "type": "uint256[]"
        }
      ],
      "stateMutability": "view",
      "type": "function"
    },
    {
      "inputs": [
        {
          "internalType": "address",
          "name": "owner",
          "type": "address"
        }
      ],
      "name": "organizationOf",
      "outputs": [
        {
          "internalType": "uint256",
          "name": "",
          "type": "uint256"
        }
      ],
      "stateMutability": "view",
      "type": "function"
    },
    {
      "inputs": [
        {
          "internalType": "uint256",
          "name": "organizationId",
          "type": "uint256"
        }
      ],
      "name": "ownerOf",
      "outputs": [
        {
          "internalType": "address",
          "name": "",
          "type": "address"
        }
      ],
      "stateMutability": "view",
      "type": "function"
    },
    {
      "inputs": [
        {
          "internalType": "uint256",
          "name": "credentialid",
          "type": "uint256"
        }
      ],
      "name": "ownerOfCredential",
      "outputs": [
        {
          "internalType": "address",
          "name": "",
          "type": "address"
        }
      ],
      "stateMutability": "view",
      "type": "function"
    },
    {
      "inputs": [
        {
          "internalType": "uint256",
          "name": "credentialid",
          "type": "uint256"
        }
      ],
      "name": "revokeCredential",
      "outputs": [],
      "stateMutability": "nonpayable",
      "type": "function"
    },
    {
      "inputs": [
        {
          "internalType": "bytes32",
          "name": "role",
          "type": "bytes32"
        },
        {
          "internalType": "address",
          "name": "account",
          "type": "address"
        },
        {
          "internalType": "uint256",
          "name": "organizationId",
          "type": "uint256"
        }
      ],
      "name": "revokeRole",
      "outputs": [],
      "stateMutability": "nonpayable",
      "type": "function"
    },
    {
      "inputs": [
        {
          "internalType": "uint256",
          "name": "credentialid",
          "type": "uint256"
        }
      ],
      "name": "transfer",
      "outputs": [],
      "stateMutability": "nonpayable",
      "type": "function"
    },
    {
      "inputs": [
        {
          "internalType": "address",
          "name": "to",
          "type": "address"
        },
        {
          "internalType": "uint256",
          "name": "organizationId",
          "type": "uint256"
        }
      ],
      "name": "transferOrg",
      "outputs": [],
      "stateMutability": "nonpayable",
      "type": "function"
    },
    {
      "inputs": [
        {
          "internalType": "uint256",
          "name": "credentialid",
          "type": "uint256"
        }
      ],
      "name": "unRevokeCredential",
      "outputs": [],
      "stateMutability": "nonpayable",
      "type": "function"
    }
  ],
  "bytecode": "0x608060405234801561001057600080fd5b506156ce80620000216000396000f3fe608060405234801561001057600080fd5b50600436106101c45760003560e01c8063635b7f5e116100f9578063d27efca511610097578063e4b3e27111610071578063e4b3e2711461056f578063ec1de9ac1461058b578063ed981375146105be578063fa05fd43146105ee576101c4565b8063d27efca5146104ea578063dcf2ed8014610506578063df2a7fe11461053f576101c4565b80638ace51c5116100d35780638ace51c514610464578063a217fddf14610480578063b5d8f2de1461049e578063b85a194c146104ce576101c4565b8063635b7f5e146103fc57806371f6c2f11461042c5780637771c7fd14610448576101c4565b8063471c7c8e116101665780635eba6847116101405780635eba68471461034957806360a255121461037957806362507c75146103955780636352211e146103cc576101c4565b8063471c7c8e146102cb57806350eb3fb9146102e957806358e1ec0c14610319576101c4565b806312514bba116101a257806312514bba146102335780631b87278d1461024f5780631f9eff9a1461026b578063312a32b01461029b576101c4565b806305bc28f4146101c957806308de6b7d146101e75780630d26c53b14610217575b600080fd5b6101d161060a565b6040516101de91906147b4565b60405180910390f35b61020160048036038101906101fc9190613dca565b610662565b60405161020e91906147b4565b60405180910390f35b610231600480360381019061022c9190613e2f565b610769565b005b61024d60048036038101906102489190613fc9565b610790565b005b61026960048036038101906102649190613fc9565b610899565b005b61028560048036038101906102809190613e2f565b610a0a565b60405161029291906147d6565b60405180910390f35b6102b560048036038101906102b09190613dca565b610a87565b6040516102c291906147b4565b60405180910390f35b6102d3610b1e565b6040516102e091906147f1565b60405180910390f35b61030360048036038101906102fe9190613eba565b610b42565b604051610310919061468b565b60405180910390f35b610333600480360381019061032e9190613fc9565b610b83565b6040516103409190614a4e565b60405180910390f35b610363600480360381019061035e9190613fc9565b610ba0565b604051610370919061468b565b60405180910390f35b610393600480360381019061038e9190613fc9565b610c52565b005b6103af60048036038101906103aa9190613fc9565b610dc3565b6040516103c3989796959493929190614b6d565b60405180910390f35b6103e660048036038101906103e19190613fc9565b610fd0565b6040516103f3919061468b565b60405180910390f35b61041660048036038101906104119190613fc9565b611082565b60405161042391906147b4565b60405180910390f35b61044660048036038101906104419190613ff2565b6110ed565b005b610462600480360381019061045d9190613df3565b611175565b005b61047e600480360381019061047991906140c0565b6111d7565b005b610488611238565b60405161049591906147f1565b60405180910390f35b6104b860048036038101906104b39190613dca565b61123f565b6040516104c59190614a4e565b60405180910390f35b6104e860048036038101906104e391906140fc565b6112f7565b005b61050460048036038101906104ff9190613e2f565b6113d9565b005b610520600480360381019061051b9190613fc9565b611400565b6040516105369a99989796959493929190614ac3565b60405180910390f35b61055960048036038101906105549190613e7e565b6115b8565b60405161056691906147f1565b60405180910390f35b61058960048036038101906105849190613f32565b6115ea565b005b6105a560048036038101906105a09190613fc9565b611630565b6040516105b59493929190614a69565b60405180910390f35b6105d860048036038101906105d39190613e7e565b6117f8565b6040516105e59190614a4e565b60405180910390f35b61060860048036038101906106039190613fc9565b61182e565b005b6060602180548060200260200160405190810160405280929190818152602001828054801561065857602002820191906000526020600020905b815481526020019060010190808311610644575b5050505050905090565b6060600073ffffffffffffffffffffffffffffffffffffffff168273ffffffffffffffffffffffffffffffffffffffff1614156106d4576040517f08c379a00000000000000000000000000000000000000000000000000000000081526004016106cb906148ae565b60405180910390fd5b602060008373ffffffffffffffffffffffffffffffffffffffff1673ffffffffffffffffffffffffffffffffffffffff16815260200190815260200160002080548060200260200160405190810160405280929190818152602001828054801561075d57602002820191906000526020600020905b815481526020019060010190808311610749575b50505050509050919050565b61077383826115b8565b8161077e828261188e565b6107898585856118a4565b5050505050565b60011515601460006009600085815260200190815260200160002060010154815260200190815260200160002060050160009054906101000a900460ff16151514610810576040517f08c379a0000000000000000000000000000000000000000000000000000000008152600401610807906149ee565b60405180910390fd5b61081981610ba0565b73ffffffffffffffffffffffffffffffffffffffff166108376118eb565b73ffffffffffffffffffffffffffffffffffffffff161461088d576040517f08c379a0000000000000000000000000000000000000000000000000000000008152600401610884906149ee565b60405180910390fd5b610896816118f3565b50565b6108da6000801b6108a86118eb565b601460006009600087815260200190815260200160002060010154815260200190815260200160002060000154610a0a565b8061093f575061093e7fd16fc3b90ee4c6cd928f9a255fb3210447747361802de487637095cf8348da6761090c6118eb565b601460006009600087815260200190815260200160002060010154815260200190815260200160002060000154610a0a565b5b61097e576040517f08c379a000000000000000000000000000000000000000000000000000000000815260040161097590614a2e565b60405180910390fd5b60011515601460006009600085815260200190815260200160002060010154815260200190815260200160002060050160019054906101000a900460ff161515146109fe576040517f08c379a00000000000000000000000000000000000000000000000000000000081526004016109f59061482e565b60405180910390fd5b610a078161195b565b50565b600060176000858152602001908152602001600020600083815260200190815260200160002060000160008473ffffffffffffffffffffffffffffffffffffffff1673ffffffffffffffffffffffffffffffffffffffff16815260200190815260200160002060009054906101000a900460ff1690509392505050565b6060600b60008373ffffffffffffffffffffffffffffffffffffffff1673ffffffffffffffffffffffffffffffffffffffff168152602001908152602001600020805480602002602001604051908101604052809291908181526020018280548015610b1257602002820191906000526020600020905b815481526020019060010190808311610afe575b50505050509050919050565b7fd16fc3b90ee4c6cd928f9a255fb3210447747361802de487637095cf8348da6781565b6000610b7a836018600087815260200190815260200160002060008581526020019081526020016000206119c390919063ffffffff16565b90509392505050565b600060156000838152602001908152602001600020549050919050565b6000806008600084815260200190815260200160002060009054906101000a900473ffffffffffffffffffffffffffffffffffffffff169050600073ffffffffffffffffffffffffffffffffffffffff168173ffffffffffffffffffffffffffffffffffffffff161415610c49576040517f08c379a0000000000000000000000000000000000000000000000000000000008152600401610c409061488e565b60405180910390fd5b80915050919050565b610c936000801b610c616118eb565b601460006009600087815260200190815260200160002060010154815260200190815260200160002060000154610a0a565b80610cf85750610cf77fd16fc3b90ee4c6cd928f9a255fb3210447747361802de487637095cf8348da67610cc56118eb565b601460006009600087815260200190815260200160002060010154815260200190815260200160002060000154610a0a565b5b610d37576040517f08c379a0000000000000000000000000000000000000000000000000000000008152600401610d2e90614a2e565b60405180910390fd5b60011515601460006009600085815260200190815260200160002060010154815260200190815260200160002060050160019054906101000a900460ff16151514610db7576040517f08c379a0000000000000000000000000000000000000000000000000000000008152600401610dae9061482e565b60405180910390fd5b610dc0816118f3565b50565b60096020528060005260406000206000915090508060000154908060010154908060020160009054906101000a900473ffffffffffffffffffffffffffffffffffffffff1690806003018054610e1890614eea565b80601f0160208091040260200160405190810160405280929190818152602001828054610e4490614eea565b8015610e915780601f10610e6657610100808354040283529160200191610e91565b820191906000526020600020905b815481529060010190602001808311610e7457829003601f168201915b505050505090806004018054610ea690614eea565b80601f0160208091040260200160405190810160405280929190818152602001828054610ed290614eea565b8015610f1f5780601f10610ef457610100808354040283529160200191610f1f565b820191906000526020600020905b815481529060010190602001808311610f0257829003601f168201915b505050505090806005018054610f3490614eea565b80601f0160208091040260200160405190810160405280929190818152602001828054610f6090614eea565b8015610fad5780601f10610f8257610100808354040283529160200191610fad565b820191906000526020600020905b815481529060010190602001808311610f9057829003601f168201915b5050505050908060060154908060070160009054906101000a900460ff16905088565b600080601d600084815260200190815260200160002060009054906101000a900473ffffffffffffffffffffffffffffffffffffffff169050600073ffffffffffffffffffffffffffffffffffffffff168173ffffffffffffffffffffffffffffffffffffffff161415611079576040517f08c379a00000000000000000000000000000000000000000000000000000000081526004016110709061496e565b60405180910390fd5b80915050919050565b6060601660008381526020019081526020016000208054806020026020016040519081016040528092919081815260200182805480156110e157602002820191906000526020600020905b8154815260200190600101908083116110cd575b50505050509050919050565b6111026000801b6110fc6118eb565b89610a0a565b611141576040517f08c379a0000000000000000000000000000000000000000000000000000000008152600401611138906148ce565b60405180910390fd5b61116261114c6118eb565b8861115760236119dd565b8989898989896119eb565b61116c6023611e18565b50505050505050565b61118a6000801b6111846118eb565b83610a0a565b6111c9576040517f08c379a00000000000000000000000000000000000000000000000000000000081526004016111c09061490e565b60405180910390fd5b6111d38282611e2e565b5050565b6111ec6000801b6111e66118eb565b84610a0a565b61122b576040517f08c379a00000000000000000000000000000000000000000000000000000000081526004016112229061486e565b60405180910390fd5b61123481611e54565b5050565b6000801b81565b60008073ffffffffffffffffffffffffffffffffffffffff168273ffffffffffffffffffffffffffffffffffffffff1614156112b0576040517f08c379a00000000000000000000000000000000000000000000000000000000081526004016112a7906148ae565b60405180910390fd5b601f60008373ffffffffffffffffffffffffffffffffffffffff1673ffffffffffffffffffffffffffffffffffffffff168152602001908152602001600020549050919050565b6113226000801b6113066118eb565b6014600089815260200190815260200160002060000154610a0a565b8061137157506113707fd16fc3b90ee4c6cd928f9a255fb3210447747361802de487637095cf8348da676113546118eb565b6014600089815260200190815260200160002060000154610a0a565b5b6113b0576040517f08c379a00000000000000000000000000000000000000000000000000000000081526004016113a790614a2e565b60405180910390fd5b6113c7866113be60246119dd565b86868686611ebc565b6113d16024611e18565b505050505050565b6113e383826115b8565b816113ee828261188e565b6113f98585856122a2565b5050505050565b60146020528060005260406000206000915090508060000154908060010154908060020160009054906101000a900473ffffffffffffffffffffffffffffffffffffffff169080600301805461145590614eea565b80601f016020809104026020016040519081016040528092919081815260200182805461148190614eea565b80156114ce5780601f106114a3576101008083540402835291602001916114ce565b820191906000526020600020905b8154815290600101906020018083116114b157829003601f168201915b5050505050908060040180546114e390614eea565b80601f016020809104026020016040519081016040528092919081815260200182805461150f90614eea565b801561155c5780601f106115315761010080835404028352916020019161155c565b820191906000526020600020905b81548152906001019060200180831161153f57829003601f168201915b5050505050908060050160009054906101000a900460ff16908060050160019054906101000a900460ff16908060050160029054906101000a900460ff16908060060154908060070160009054906101000a900460ff1690508a565b600060176000848152602001908152602001600020600083815260200190815260200160002060010154905092915050565b6116046115f56118eb565b6115ff60226119dd565b6122e9565b61162161160f6118eb565b84848461161c60226119dd565b6122fb565b61162b6022611e18565b505050565b601e60205280600052604060002060009150905080600001549080600101805461165990614eea565b80601f016020809104026020016040519081016040528092919081815260200182805461168590614eea565b80156116d25780601f106116a7576101008083540402835291602001916116d2565b820191906000526020600020905b8154815290600101906020018083116116b557829003601f168201915b5050505050908060020180546116e790614eea565b80601f016020809104026020016040519081016040528092919081815260200182805461171390614eea565b80156117605780601f1061173557610100808354040283529160200191611760565b820191906000526020600020905b81548152906001019060200180831161174357829003601f168201915b50505050509080600301805461177590614eea565b80601f01602080910402602001604051908101604052809291908181526020018280546117a190614eea565b80156117ee5780601f106117c3576101008083540402835291602001916117ee565b820191906000526020600020905b8154815290600101906020018083116117d157829003601f168201915b5050505050905084565b60006118266018600085815260200190815260200160002060008481526020019081526020016000206124a4565b905092915050565b6118436000801b61183d6118eb565b83610a0a565b611882576040517f08c379a00000000000000000000000000000000000000000000000000000000081526004016118799061494e565b60405180910390fd5b61188b816124b9565b50565b6118a08261189a6118eb565b83612609565b5050565b6118af8383836126a8565b6118e58260186000868152602001908152602001600020600084815260200190815260200160002061279c90919063ffffffff16565b50505050565b600033905090565b60016009600083815260200190815260200160002060070160006101000a81548160ff02191690836001811115611953577f4e487b7100000000000000000000000000000000000000000000000000000000600052602160045260246000fd5b021790555050565b60006009600083815260200190815260200160002060070160006101000a81548160ff021916908360018111156119bb577f4e487b7100000000000000000000000000000000000000000000000000000000600052602160045260246000fd5b021790555050565b60006119d283600001836127cc565b60001c905092915050565b600081600001549050919050565b6040518061014001604052808981526020018881526020018a73ffffffffffffffffffffffffffffffffffffffff168152602001878152602001868152602001851515815260200184151581526020018315158152602001828152602001600180811115611a82577f4e487b7100000000000000000000000000000000000000000000000000000000600052602160045260246000fd5b815250600c600082015181600001556020820151816001015560408201518160020160006101000a81548173ffffffffffffffffffffffffffffffffffffffff021916908373ffffffffffffffffffffffffffffffffffffffff1602179055506060820151816003019080519060200190611afe929190613b89565b506080820151816004019080519060200190611b1b929190613b89565b5060a08201518160050160006101000a81548160ff02191690831515021790555060c08201518160050160016101000a81548160ff02191690831515021790555060e08201518160050160026101000a81548160ff02191690831515021790555061010082015181600601556101208201518160070160006101000a81548160ff02191690836001811115611bd9577f4e487b7100000000000000000000000000000000000000000000000000000000600052602160045260246000fd5b0217905550905050600c6014600089815260200190815260200160002060008201548160000155600182015481600101556002820160009054906101000a900473ffffffffffffffffffffffffffffffffffffffff168160020160006101000a81548173ffffffffffffffffffffffffffffffffffffffff021916908373ffffffffffffffffffffffffffffffffffffffff1602179055506003820181600301908054611c8590614eea565b611c90929190613c0f565b506004820181600401908054611ca590614eea565b611cb0929190613c0f565b506005820160009054906101000a900460ff168160050160006101000a81548160ff0219169083151502179055506005820160019054906101000a900460ff168160050160016101000a81548160ff0219169083151502179055506005820160029054906101000a900460ff168160050160026101000a81548160ff021916908315150217905550600682015481600601556007820160009054906101000a900460ff168160070160006101000a81548160ff02191690836001811115611da0577f4e487b7100000000000000000000000000000000000000000000000000000000600052602160045260246000fd5b0217905550905050601660008981526020019081526020016000208790806001815401808255809150506001900390600052602060002001600090919091909150556001601560008a81526020019081526020016000206000828254611e069190614cd2565b92505081905550505050505050505050565b6001816000016000828254019250508190555050565b611e50611e396118eb565b83836040518060200160405280600081525061281d565b5050565b60006014600083815260200190815260200160002060070160006101000a81548160ff02191690836001811115611eb4577f4e487b7100000000000000000000000000000000000000000000000000000000600052602160045260246000fd5b021790555050565b600073ffffffffffffffffffffffffffffffffffffffff168473ffffffffffffffffffffffffffffffffffffffff161415611f2c576040517f08c379a0000000000000000000000000000000000000000000000000000000008152600401611f23906149ce565b60405180910390fd5b6040518061010001604052808781526020018681526020018573ffffffffffffffffffffffffffffffffffffffff168152602001848152602001838152602001828152602001428152602001600180811115611fb1577f4e487b7100000000000000000000000000000000000000000000000000000000600052602160045260246000fd5b81525060008082015181600001556020820151816001015560408201518160020160006101000a81548173ffffffffffffffffffffffffffffffffffffffff021916908373ffffffffffffffffffffffffffffffffffffffff160217905550606082015181600301908051906020019061202c929190613b89565b506080820151816004019080519060200190612049929190613b89565b5060a0820151816005019080519060200190612066929190613b89565b5060c0820151816006015560e08201518160070160006101000a81548160ff021916908360018111156120c2577f4e487b7100000000000000000000000000000000000000000000000000000000600052602160045260246000fd5b021790555090505060006009600088815260200190815260200160002060008201548160000155600182015481600101556002820160009054906101000a900473ffffffffffffffffffffffffffffffffffffffff168160020160006101000a81548173ffffffffffffffffffffffffffffffffffffffff021916908373ffffffffffffffffffffffffffffffffffffffff160217905550600382018160030190805461216e90614eea565b612179929190613c0f565b50600482018160040190805461218e90614eea565b612199929190613c0f565b5060058201816005019080546121ae90614eea565b6121b9929190613c0f565b50600682015481600601556007820160009054906101000a900460ff168160070160006101000a81548160ff02191690836001811115612222577f4e487b7100000000000000000000000000000000000000000000000000000000600052602160045260246000fd5b0217905550905050600b60008573ffffffffffffffffffffffffffffffffffffffff1673ffffffffffffffffffffffffffffffffffffffff16815260200190815260200160002086908060018154018082558091505060019003906000526020600020016000909190919091505561229a8487612879565b505050505050565b6122ad8383836129ae565b6122e382601860008681526020019081526020016000206000848152602001908152602001600020612aa390919063ffffffff16565b50505050565b6122f76000801b83836118a4565b5050565b6040518060800160405280828152602001858152602001848152602001838152506019600082015181600001556020820151816001019080519060200190612344929190613b89565b506040820151816002019080519060200190612361929190613b89565b50606082015181600301908051906020019061237e929190613b89565b509050506019601e60008381526020019081526020016000206000820154816000015560018201816001019080546123b590614eea565b6123c0929190613c0f565b5060028201816002019080546123d590614eea565b6123e0929190613c0f565b5060038201816003019080546123f590614eea565b612400929190613c0f565b509050506021819080600181540180825580915050600190039060005260206000200160009091909190915055602060008673ffffffffffffffffffffffffffffffffffffffff1673ffffffffffffffffffffffffffffffffffffffff16815260200190815260200160002081908060018154018082558091505060019003906000526020600020016000909190919091505561249d8582612ad3565b5050505050565b60006124b282600001612c41565b9050919050565b60006124c482610fd0565b90506124d281600084612c52565b6001601f60008373ffffffffffffffffffffffffffffffffffffffff1673ffffffffffffffffffffffffffffffffffffffff16815260200190815260200160002060008282546125229190614d82565b92505081905550601d600083815260200190815260200160002060006101000a81549073ffffffffffffffffffffffffffffffffffffffff0219169055601e600083815260200190815260200160002060008082016000905560018201600061258b9190613c9c565b60028201600061259b9190613c9c565b6003820160006125ab9190613c9c565b50506125b682612c57565b6125c08183612cd8565b7fb96e9e9671568c853f546705289ff8106f51ba021f91e74dcc22e38a5ab422c781836040516125f1929190614778565b60405180910390a161260581600084612dd5565b5050565b612614838383610a0a565b6126a3576126398273ffffffffffffffffffffffffffffffffffffffff166014612dda565b6126478460001c6020612dda565b604051602001612658929190614651565b6040516020818303038152906040526040517f08c379a000000000000000000000000000000000000000000000000000000000815260040161269a919061480c565b60405180910390fd5b505050565b6126b3838383610a0a565b61279757600160176000858152602001908152602001600020600083815260200190815260200160002060000160008473ffffffffffffffffffffffffffffffffffffffff1673ffffffffffffffffffffffffffffffffffffffff16815260200190815260200160002060006101000a81548160ff02191690831515021790555061273c6118eb565b73ffffffffffffffffffffffffffffffffffffffff168273ffffffffffffffffffffffffffffffffffffffff16847f2f8788117e7eff1d82e926ec794901d17c78024a50270940304540a733656f0d60405160405180910390a45b505050565b60006127c4836000018373ffffffffffffffffffffffffffffffffffffffff1660001b6130d4565b905092915050565b600082600001828154811061280a577f4e487b7100000000000000000000000000000000000000000000000000000000600052603260045260246000fd5b9060005260206000200154905092915050565b612828848484613144565b61283484848484613422565b612873576040517f08c379a000000000000000000000000000000000000000000000000000000000815260040161286a906148ee565b60405180910390fd5b50505050565b600073ffffffffffffffffffffffffffffffffffffffff168273ffffffffffffffffffffffffffffffffffffffff1614156128e9576040517f08c379a00000000000000000000000000000000000000000000000000000000081526004016128e0906149ce565b60405180910390fd5b6128f5600083836135b9565b816008600083815260200190815260200160002060006101000a81548173ffffffffffffffffffffffffffffffffffffffff021916908373ffffffffffffffffffffffffffffffffffffffff1602179055506001600a60008473ffffffffffffffffffffffffffffffffffffffff1673ffffffffffffffffffffffffffffffffffffffff16815260200190815260200160002060008282546129979190614cd2565b925050819055506129aa600083836135be565b5050565b6129b9838383610a0a565b15612a9e57600060176000858152602001908152602001600020600083815260200190815260200160002060000160008473ffffffffffffffffffffffffffffffffffffffff1673ffffffffffffffffffffffffffffffffffffffff16815260200190815260200160002060006101000a81548160ff021916908315150217905550612a436118eb565b73ffffffffffffffffffffffffffffffffffffffff168273ffffffffffffffffffffffffffffffffffffffff16847ff6391f5c32d9c69d2a47ea670b442974b53935d1edc7fd64eb21e047a839171b60405160405180910390a45b505050565b6000612acb836000018373ffffffffffffffffffffffffffffffffffffffff1660001b6135c3565b905092915050565b600073ffffffffffffffffffffffffffffffffffffffff168273ffffffffffffffffffffffffffffffffffffffff161415612b43576040517f08c379a0000000000000000000000000000000000000000000000000000000008152600401612b3a906149ce565b60405180910390fd5b612b4f60008383612c52565b6001601f60008473ffffffffffffffffffffffffffffffffffffffff1673ffffffffffffffffffffffffffffffffffffffff1681526020019081526020016000206000828254612b9f9190614cd2565b9250508190555081601d600083815260200190815260200160002060006101000a81548173ffffffffffffffffffffffffffffffffffffffff021916908373ffffffffffffffffffffffffffffffffffffffff1602179055507f2b91a110f13ecbd5db0cd898f4df6c0627864d45204d76be0118046af370b1498282604051612c2992919061473c565b60405180910390a1612c3d60008383612dd5565b5050565b600081600001805490509050919050565b505050565b60005b602180549050811015612cd4578160218281548110612ca2577f4e487b7100000000000000000000000000000000000000000000000000000000600052603260045260246000fd5b90600052602060002001541415612cc157612cbc81613749565b612cd4565b8080612ccc90614f4d565b915050612c5a565b5050565b60005b602060008473ffffffffffffffffffffffffffffffffffffffff1673ffffffffffffffffffffffffffffffffffffffff16815260200190815260200160002080549050811015612dd05781602060008573ffffffffffffffffffffffffffffffffffffffff1673ffffffffffffffffffffffffffffffffffffffff1681526020019081526020016000208281548110612d9d577f4e487b7100000000000000000000000000000000000000000000000000000000600052603260045260246000fd5b90600052602060002001541415612dbd57612db883826138ad565b612dd0565b8080612dc890614f4d565b915050612cdb565b505050565b505050565b606060006002836002612ded9190614d28565b612df79190614cd2565b67ffffffffffffffff811115612e36577f4e487b7100000000000000000000000000000000000000000000000000000000600052604160045260246000fd5b6040519080825280601f01601f191660200182016040528015612e685781602001600182028036833780820191505090505b5090507f300000000000000000000000000000000000000000000000000000000000000081600081518110612ec6577f4e487b7100000000000000000000000000000000000000000000000000000000600052603260045260246000fd5b60200101907effffffffffffffffffffffffffffffffffffffffffffffffffffffffffffff1916908160001a9053507f780000000000000000000000000000000000000000000000000000000000000081600181518110612f50577f4e487b7100000000000000000000000000000000000000000000000000000000600052603260045260246000fd5b60200101907effffffffffffffffffffffffffffffffffffffffffffffffffffffffffffff1916908160001a90535060006001846002612f909190614d28565b612f9a9190614cd2565b90505b6001811115613086577f3031323334353637383961626364656600000000000000000000000000000000600f861660108110613002577f4e487b7100000000000000000000000000000000000000000000000000000000600052603260045260246000fd5b1a60f81b82828151811061303f577f4e487b7100000000000000000000000000000000000000000000000000000000600052603260045260246000fd5b60200101907effffffffffffffffffffffffffffffffffffffffffffffffffffffffffffff1916908160001a905350600485901c94508061307f90614ec0565b9050612f9d565b50600084146130ca576040517f08c379a00000000000000000000000000000000000000000000000000000000081526004016130c19061484e565b60405180910390fd5b8091505092915050565b60006130e08383613b43565b61313957826000018290806001815401808255809150506001900390600052602060002001600090919091909150558260000180549050836001016000848152602001908152602001600020819055506001905061313e565b600090505b92915050565b8273ffffffffffffffffffffffffffffffffffffffff1661316482610fd0565b73ffffffffffffffffffffffffffffffffffffffff16146131ba576040517f08c379a00000000000000000000000000000000000000000000000000000000081526004016131b19061492e565b60405180910390fd5b600073ffffffffffffffffffffffffffffffffffffffff168273ffffffffffffffffffffffffffffffffffffffff16141561322a576040517f08c379a000000000000000000000000000000000000000000000000000000000815260040161322190614a0e565b60405180910390fd5b613235838383612c52565b61323e81612c57565b60218190806001815401808255809150506001900390600052602060002001600090919091909150556132718382612cd8565b602060008373ffffffffffffffffffffffffffffffffffffffff1673ffffffffffffffffffffffffffffffffffffffff1681526020019081526020016000208190806001815401808255809150506001900390600052602060002001600090919091909150556001601f60008573ffffffffffffffffffffffffffffffffffffffff1673ffffffffffffffffffffffffffffffffffffffff16815260200190815260200160002060008282546133279190614d82565b925050819055506001601f60008473ffffffffffffffffffffffffffffffffffffffff1673ffffffffffffffffffffffffffffffffffffffff168152602001908152602001600020600082825461337e9190614cd2565b9250508190555081601d600083815260200190815260200160002060006101000a81548173ffffffffffffffffffffffffffffffffffffffff021916908373ffffffffffffffffffffffffffffffffffffffff1602179055507f28a7bb89184e38b25c8ac71cd1d0d14acf8af5bfa3e7bda868b4f646a238115e83838360405161340a939291906146f2565b60405180910390a161341d838383612dd5565b505050565b60006134438473ffffffffffffffffffffffffffffffffffffffff16613b66565b156135ac578373ffffffffffffffffffffffffffffffffffffffff16639556949061346c6118eb565b8786866040518563ffffffff1660e01b815260040161348e94939291906146a6565b602060405180830381600087803b1580156134a857600080fd5b505af19250505080156134d957506040513d601f19601f820116820180604052508101906134d69190613f09565b60015b61355c573d8060008114613509576040519150601f19603f3d011682016040523d82523d6000602084013e61350e565b606091505b50600081511415613554576040517f08c379a000000000000000000000000000000000000000000000000000000000815260040161354b906149ae565b60405180910390fd5b805181602001fd5b639556949060e01b7bffffffffffffffffffffffffffffffffffffffffffffffffffffffff1916817bffffffffffffffffffffffffffffffffffffffffffffffffffffffff1916149150506135b1565b600190505b949350505050565b505050565b505050565b6000808360010160008481526020019081526020016000205490506000811461373d5760006001826135f59190614d82565b905060006001866000018054905061360d9190614d82565b90508181146136c8576000866000018281548110613654577f4e487b7100000000000000000000000000000000000000000000000000000000600052603260045260246000fd5b906000526020600020015490508087600001848154811061369e577f4e487b7100000000000000000000000000000000000000000000000000000000600052603260045260246000fd5b90600052602060002001819055508387600101600083815260200190815260200160002081905550505b85600001805480613702577f4e487b7100000000000000000000000000000000000000000000000000000000600052603160045260246000fd5b600190038181906000526020600020016000905590558560010160008681526020019081526020016000206000905560019350505050613743565b60009150505b92915050565b6021805490508110613790576040517f08c379a00000000000000000000000000000000000000000000000000000000081526004016137879061498e565b60405180910390fd5b60008190505b60016021805490506137a89190614d82565b81101561385b5760216001826137be9190614cd2565b815481106137f5577f4e487b7100000000000000000000000000000000000000000000000000000000600052603260045260246000fd5b90600052602060002001546021828154811061383a577f4e487b7100000000000000000000000000000000000000000000000000000000600052603260045260246000fd5b9060005260206000200181905550808061385390614f4d565b915050613796565b506021805480613894577f4e487b7100000000000000000000000000000000000000000000000000000000600052603160045260246000fd5b6001900381819060005260206000200160009055905550565b602060008373ffffffffffffffffffffffffffffffffffffffff1673ffffffffffffffffffffffffffffffffffffffff168152602001908152602001600020805490508110613931576040517f08c379a00000000000000000000000000000000000000000000000000000000081526004016139289061498e565b60405180910390fd5b60008190505b6001602060008573ffffffffffffffffffffffffffffffffffffffff1673ffffffffffffffffffffffffffffffffffffffff168152602001908152602001600020805490506139869190614d82565b811015613ab357602060008473ffffffffffffffffffffffffffffffffffffffff1673ffffffffffffffffffffffffffffffffffffffff1681526020019081526020016000206001826139d99190614cd2565b81548110613a10577f4e487b7100000000000000000000000000000000000000000000000000000000600052603260045260246000fd5b9060005260206000200154602060008573ffffffffffffffffffffffffffffffffffffffff1673ffffffffffffffffffffffffffffffffffffffff1681526020019081526020016000208281548110613a92577f4e487b7100000000000000000000000000000000000000000000000000000000600052603260045260246000fd5b90600052602060002001819055508080613aab90614f4d565b915050613937565b50602060008373ffffffffffffffffffffffffffffffffffffffff1673ffffffffffffffffffffffffffffffffffffffff168152602001908152602001600020805480613b29577f4e487b7100000000000000000000000000000000000000000000000000000000600052603160045260246000fd5b600190038181906000526020600020016000905590555050565b600080836001016000848152602001908152602001600020541415905092915050565b6000808273ffffffffffffffffffffffffffffffffffffffff163b119050919050565b828054613b9590614eea565b90600052602060002090601f016020900481019282613bb75760008555613bfe565b82601f10613bd057805160ff1916838001178555613bfe565b82800160010185558215613bfe579182015b82811115613bfd578251825591602001919060010190613be2565b5b509050613c0b9190613cdc565b5090565b828054613c1b90614eea565b90600052602060002090601f016020900481019282613c3d5760008555613c8b565b82601f10613c4e5780548555613c8b565b82800160010185558215613c8b57600052602060002091601f016020900482015b82811115613c8a578254825591600101919060010190613c6f565b5b509050613c989190613cdc565b5090565b508054613ca890614eea565b6000825580601f10613cba5750613cd9565b601f016020900490600052602060002090810190613cd89190613cdc565b5b50565b5b80821115613cf5576000816000905550600101613cdd565b5090565b6000613d0c613d0784614c25565b614c00565b905082815260208101848484011115613d2457600080fd5b613d2f848285614e7e565b509392505050565b600081359050613d4681615625565b92915050565b600081359050613d5b8161563c565b92915050565b600081359050613d7081615653565b92915050565b600081519050613d858161566a565b92915050565b600082601f830112613d9c57600080fd5b8135613dac848260208601613cf9565b91505092915050565b600081359050613dc481615681565b92915050565b600060208284031215613ddc57600080fd5b6000613dea84828501613d37565b91505092915050565b60008060408385031215613e0657600080fd5b6000613e1485828601613d37565b9250506020613e2585828601613db5565b9150509250929050565b600080600060608486031215613e4457600080fd5b6000613e5286828701613d61565b9350506020613e6386828701613d37565b9250506040613e7486828701613db5565b9150509250925092565b60008060408385031215613e9157600080fd5b6000613e9f85828601613d61565b9250506020613eb085828601613db5565b9150509250929050565b600080600060608486031215613ecf57600080fd5b6000613edd86828701613d61565b9350506020613eee86828701613db5565b9250506040613eff86828701613db5565b9150509250925092565b600060208284031215613f1b57600080fd5b6000613f2984828501613d76565b91505092915050565b600080600060608486031215613f4757600080fd5b600084013567ffffffffffffffff811115613f6157600080fd5b613f6d86828701613d8b565b935050602084013567ffffffffffffffff811115613f8a57600080fd5b613f9686828701613d8b565b925050604084013567ffffffffffffffff811115613fb357600080fd5b613fbf86828701613d8b565b9150509250925092565b600060208284031215613fdb57600080fd5b6000613fe984828501613db5565b91505092915050565b600080600080600080600060e0888a03121561400d57600080fd5b600061401b8a828b01613db5565b975050602088013567ffffffffffffffff81111561403857600080fd5b6140448a828b01613d8b565b965050604088013567ffffffffffffffff81111561406157600080fd5b61406d8a828b01613d8b565b955050606061407e8a828b01613d4c565b945050608061408f8a828b01613d4c565b93505060a06140a08a828b01613d4c565b92505060c06140b18a828b01613db5565b91505092959891949750929550565b600080604083850312156140d357600080fd5b60006140e185828601613db5565b92505060206140f285828601613db5565b9150509250929050565b60008060008060008060c0878903121561411557600080fd5b600061412389828a01613db5565b965050602061413489828a01613db5565b955050604061414589828a01613d37565b945050606087013567ffffffffffffffff81111561416257600080fd5b61416e89828a01613d8b565b935050608087013567ffffffffffffffff81111561418b57600080fd5b61419789828a01613d8b565b92505060a087013567ffffffffffffffff8111156141b457600080fd5b6141c089828a01613d8b565b9150509295509295509295565b60006141d98383614633565b60208301905092915050565b6141ee81614db6565b82525050565b60006141ff82614c66565b6142098185614c94565b935061421483614c56565b8060005b8381101561424557815161422c88826141cd565b975061423783614c87565b925050600181019050614218565b5085935050505092915050565b61425b81614dc8565b82525050565b61426a81614dd4565b82525050565b600061427b82614c71565b6142858185614ca5565b9350614295818560208601614e8d565b61429e81615052565b840191505092915050565b6142b281614e5a565b82525050565b6142c181614e6c565b82525050565b60006142d282614c7c565b6142dc8185614cb6565b93506142ec818560208601614e8d565b6142f581615052565b840191505092915050565b600061430b82614c7c565b6143158185614cc7565b9350614325818560208601614e8d565b80840191505092915050565b600061433e602583614cb6565b915061434982615063565b604082019050919050565b6000614361602083614cb6565b915061436c826150b2565b602082019050919050565b6000614384603e83614cb6565b915061438f826150db565b604082019050919050565b60006143a7601983614cb6565b91506143b28261512a565b602082019050919050565b60006143ca602683614cb6565b91506143d582615153565b604082019050919050565b60006143ed602183614cb6565b91506143f8826151a2565b604082019050919050565b6000614410603e83614cb6565b915061441b826151f1565b604082019050919050565b6000614433602783614cb6565b915061443e82615240565b604082019050919050565b6000614456602a83614cb6565b91506144618261528f565b604082019050919050565b6000614479602283614cb6565b9150614484826152de565b604082019050919050565b600061449c602883614cb6565b91506144a78261532d565b604082019050919050565b60006144bf602183614cb6565b91506144ca8261537c565b604082019050919050565b60006144e2601283614cb6565b91506144ed826153cb565b602082019050919050565b6000614505602c83614cb6565b9150614510826153f4565b604082019050919050565b6000614528601383614cb6565b915061453382615443565b602082019050919050565b600061454b601a83614cb6565b91506145568261546c565b602082019050919050565b600061456e601b83614cb6565b915061457982615495565b602082019050919050565b6000614591602783614cb6565b915061459c826154be565b604082019050919050565b60006145b4602183614cb6565b91506145bf8261550d565b604082019050919050565b60006145d7603b83614cb6565b91506145e28261555c565b604082019050919050565b60006145fa601783614cc7565b9150614605826155ab565b601782019050919050565b600061461d601183614cc7565b9150614628826155d4565b601182019050919050565b61463c81614e50565b82525050565b61464b81614e50565b82525050565b600061465c826145ed565b91506146688285614300565b915061467382614610565b915061467f8284614300565b91508190509392505050565b60006020820190506146a060008301846141e5565b92915050565b60006080820190506146bb60008301876141e5565b6146c860208301866141e5565b6146d56040830185614642565b81810360608301526146e78184614270565b905095945050505050565b600060808201905061470760008301866141e5565b61471460208301856141e5565b6147216040830184614642565b818103606083015261473281614561565b9050949350505050565b600060608201905061475160008301856141e5565b61475e6020830184614642565b818103604083015261476f8161439a565b90509392505050565b600060608201905061478d60008301856141e5565b61479a6020830184614642565b81810360408301526147ab8161451b565b90509392505050565b600060208201905081810360008301526147ce81846141f4565b905092915050565b60006020820190506147eb6000830184614252565b92915050565b60006020820190506148066000830184614261565b92915050565b6000602082019050818103600083015261482681846142c7565b905092915050565b6000602082019050818103600083015261484781614331565b9050919050565b6000602082019050818103600083015261486781614354565b9050919050565b6000602082019050818103600083015261488781614377565b9050919050565b600060208201905081810360008301526148a7816143bd565b9050919050565b600060208201905081810360008301526148c7816143e0565b9050919050565b600060208201905081810360008301526148e781614403565b9050919050565b6000602082019050818103600083015261490781614426565b9050919050565b6000602082019050818103600083015261492781614449565b9050919050565b600060208201905081810360008301526149478161446c565b9050919050565b600060208201905081810360008301526149678161448f565b9050919050565b60006020820190508181036000830152614987816144b2565b9050919050565b600060208201905081810360008301526149a7816144d5565b9050919050565b600060208201905081810360008301526149c7816144f8565b9050919050565b600060208201905081810360008301526149e78161453e565b9050919050565b60006020820190508181036000830152614a0781614584565b9050919050565b60006020820190508181036000830152614a27816145a7565b9050919050565b60006020820190508181036000830152614a47816145ca565b9050919050565b6000602082019050614a636000830184614642565b92915050565b6000608082019050614a7e6000830187614642565b8181036020830152614a9081866142c7565b90508181036040830152614aa481856142c7565b90508181036060830152614ab881846142c7565b905095945050505050565b600061014082019050614ad9600083018d614642565b614ae6602083018c614642565b614af3604083018b6141e5565b8181036060830152614b05818a6142c7565b90508181036080830152614b1981896142c7565b9050614b2860a0830188614252565b614b3560c0830187614252565b614b4260e0830186614252565b614b50610100830185614642565b614b5e6101208301846142b8565b9b9a5050505050505050505050565b600061010082019050614b83600083018b614642565b614b90602083018a614642565b614b9d60408301896141e5565b8181036060830152614baf81886142c7565b90508181036080830152614bc381876142c7565b905081810360a0830152614bd781866142c7565b9050614be660c0830185614642565b614bf360e08301846142a9565b9998505050505050505050565b6000614c0a614c1b565b9050614c168282614f1c565b919050565b6000604051905090565b600067ffffffffffffffff821115614c4057614c3f615023565b5b614c4982615052565b9050602081019050919050565b6000819050602082019050919050565b600081519050919050565b600081519050919050565b600081519050919050565b6000602082019050919050565b600082825260208201905092915050565b600082825260208201905092915050565b600082825260208201905092915050565b600081905092915050565b6000614cdd82614e50565b9150614ce883614e50565b9250827fffffffffffffffffffffffffffffffffffffffffffffffffffffffffffffffff03821115614d1d57614d1c614f96565b5b828201905092915050565b6000614d3382614e50565b9150614d3e83614e50565b9250817fffffffffffffffffffffffffffffffffffffffffffffffffffffffffffffffff0483118215151615614d7757614d76614f96565b5b828202905092915050565b6000614d8d82614e50565b9150614d9883614e50565b925082821015614dab57614daa614f96565b5b828203905092915050565b6000614dc182614e30565b9050919050565b60008115159050919050565b6000819050919050565b60007fffffffff0000000000000000000000000000000000000000000000000000000082169050919050565b6000819050614e18826155fd565b919050565b6000819050614e2b82615611565b919050565b600073ffffffffffffffffffffffffffffffffffffffff82169050919050565b6000819050919050565b6000614e6582614e0a565b9050919050565b6000614e7782614e1d565b9050919050565b82818337600083830152505050565b60005b83811015614eab578082015181840152602081019050614e90565b83811115614eba576000848401525b50505050565b6000614ecb82614e50565b91506000821415614edf57614ede614f96565b5b600182039050919050565b60006002820490506001821680614f0257607f821691505b60208210811415614f1657614f15614ff4565b5b50919050565b614f2582615052565b810181811067ffffffffffffffff82111715614f4457614f43615023565b5b80604052505050565b6000614f5882614e50565b91507fffffffffffffffffffffffffffffffffffffffffffffffffffffffffffffffff821415614f8b57614f8a614f96565b5b600182019050919050565b7f4e487b7100000000000000000000000000000000000000000000000000000000600052601160045260246000fd5b7f4e487b7100000000000000000000000000000000000000000000000000000000600052602160045260246000fd5b7f4e487b7100000000000000000000000000000000000000000000000000000000600052602260045260246000fd5b7f4e487b7100000000000000000000000000000000000000000000000000000000600052604160045260246000fd5b6000601f19601f8301169050919050565b7f6d757374206d65206265207265766f6b6561626c652063726564656e7469616c60008201527f2074797065000000000000000000000000000000000000000000000000000000602082015250565b7f537472696e67733a20686578206c656e67746820696e73756666696369656e74600082015250565b7f6d75737420686176652041646d696e20726f6c6520696e206f7267616e617a6160008201527f74696f6e20746f2064656c6574652063726564656e7469616c20747970650000602082015250565b7f6f726167616e617a6174696f6e20686176652063726561746500000000000000600082015250565b7f6f776e657220717565727920666f72206e6f6e6578697374656e74206372656460008201527f656e7469616c0000000000000000000000000000000000000000000000000000602082015250565b7f61646472657373207a65726f206973206e6f7420612076616c6964206f776e6560008201527f7200000000000000000000000000000000000000000000000000000000000000602082015250565b7f6d75737420686176652041646d696e20726f6c6520696e206f7267616e617a6160008201527f74696f6e20746f206372656174652063726564656e7469616c20747970650000602082015250565b7f7472616e7366657220746f206e6f6e204f5247526563656976657220696d706c60008201527f656d656e74657200000000000000000000000000000000000000000000000000602082015250565b7f6d75737420686176652041646d696e20726f6c6520746f207472616e7366657260008201527f206f7267617a61696f6e00000000000000000000000000000000000000000000602082015250565b7f4f52473a207472616e736665722066726f6d20696e636f7272656374206f776e60008201527f6572000000000000000000000000000000000000000000000000000000000000602082015250565b7f6d75737420686176652041646d696e20726f6c6520746f2064656c657465206f60008201527f7267617a61696f6e000000000000000000000000000000000000000000000000602082015250565b7f6f776e657220717565727920666f72206e6f6e6578697374656e7420746f6b6560008201527f6e00000000000000000000000000000000000000000000000000000000000000602082015250565b7f696e646578206f7574206f6620626f756e640000000000000000000000000000600082015250565b7f4f52473a207472616e7366657220746f206e6f6e204f5247526563656976657260008201527f20696d706c656d656e7465720000000000000000000000000000000000000000602082015250565b7f44656c657465206f7267616e617a6174696f6e00000000000000000000000000600082015250565b7f63726561746520746f20746865207a65726f2061646472657373000000000000600082015250565b7f6f726167616e617a6174696f6e2068617665207472616e736665720000000000600082015250565b7f6d757374206d65206265207472616e7366657261626c652063726564656e746960008201527f616c207479706500000000000000000000000000000000000000000000000000602082015250565b7f4f52473a207472616e7366657220746f20746865207a65726f2061646472657360008201527f7300000000000000000000000000000000000000000000000000000000000000602082015250565b7f6d757374206d65206861766520726f6c6520696e206f7267616e617a6174696f60008201527f6e20746f206372656174652063726564656e7469616c20747970650000000000602082015250565b7f416363657373436f6e74726f6c3a206163636f756e7420000000000000000000600082015250565b7f206973206d697373696e6720726f6c6520000000000000000000000000000000600082015250565b6002811061560e5761560d614fc5565b5b50565b6002811061562257615621614fc5565b5b50565b61562e81614db6565b811461563957600080fd5b50565b61564581614dc8565b811461565057600080fd5b50565b61565c81614dd4565b811461566757600080fd5b50565b61567381614dde565b811461567e57600080fd5b50565b61568a81614e50565b811461569557600080fd5b5056fea26469706673582212203ed89334fe0623a343ac9c6435fcff8e1b1bb8c0945cd4bcffe705ba0f6a241f64736f6c63430008040033",
  "linkReferences": {},
  "deployedLinkReferences": {}
}