{
  "_format": "hh-sol-artifact-1",
  "contractName": "CreadentialManagement",
  "sourceName": "contracts/credential/CredentailMangement.sol",
  "abi": [
    {
      "anonymous": false,
      "inputs": [
        {
          "indexed": false,
          "internalType": "address",
          "name": "to",
          "type": "address"
        },
        {
          "indexed": false,
          "internalType": "uint256",
          "name": "orgId",
          "type": "uint256"
        },
        {
          "indexed": false,
          "internalType": "string",
          "name": "message",
          "type": "string"
        }
      ],
      "name": "CreateOrganazation",
      "type": "event"
    },
    {
      "anonymous": false,
      "inputs": [
        {
          "indexed": false,
          "internalType": "address",
          "name": "from",
          "type": "address"
        },
        {
          "indexed": false,
          "internalType": "uint256",
          "name": "orgId",
          "type": "uint256"
        },
        {
          "indexed": false,
          "internalType": "string",
          "name": "message",
          "type": "string"
        }
      ],
      "name": "DeleteOrganazation",
      "type": "event"
    },
    {
      "anonymous": false,
      "inputs": [
        {
          "indexed": true,
          "internalType": "bytes32",
          "name": "role",
          "type": "bytes32"
        },
        {
          "indexed": true,
          "internalType": "bytes32",
          "name": "previousAdminRole",
          "type": "bytes32"
        },
        {
          "indexed": true,
          "internalType": "bytes32",
          "name": "newAdminRole",
          "type": "bytes32"
        }
      ],
      "name": "RoleAdminChanged",
      "type": "event"
    },
    {
      "anonymous": false,
      "inputs": [
        {
          "indexed": true,
          "internalType": "bytes32",
          "name": "role",
          "type": "bytes32"
        },
        {
          "indexed": true,
          "internalType": "address",
          "name": "account",
          "type": "address"
        },
        {
          "indexed": true,
          "internalType": "address",
          "name": "sender",
          "type": "address"
        }
      ],
      "name": "RoleGranted",
      "type": "event"
    },
    {
      "anonymous": false,
      "inputs": [
        {
          "indexed": true,
          "internalType": "bytes32",
          "name": "role",
          "type": "bytes32"
        },
        {
          "indexed": true,
          "internalType": "address",
          "name": "account",
          "type": "address"
        },
        {
          "indexed": true,
          "internalType": "address",
          "name": "sender",
          "type": "address"
        }
      ],
      "name": "RoleRevoked",
      "type": "event"
    },
    {
      "anonymous": false,
      "inputs": [
        {
          "indexed": false,
          "internalType": "address",
          "name": "from",
          "type": "address"
        },
        {
          "indexed": false,
          "internalType": "address",
          "name": "to",
          "type": "address"
        },
        {
          "indexed": false,
          "internalType": "uint256",
          "name": "orgId",
          "type": "uint256"
        },
        {
          "indexed": false,
          "internalType": "string",
          "name": "message",
          "type": "string"
        }
      ],
      "name": "TransferOrganazation",
      "type": "event"
    },
    {
      "inputs": [],
      "name": "DEFAULT_ADMIN_ROLE",
      "outputs": [
        {
          "internalType": "bytes32",
          "name": "",
          "type": "bytes32"
        }
      ],
      "stateMutability": "view",
      "type": "function"
    },
    {
      "inputs": [],
      "name": "VERYFYIER_ROLE",
      "outputs": [
        {
          "internalType": "bytes32",
          "name": "",
          "type": "bytes32"
        }
      ],
      "stateMutability": "view",
      "type": "function"
    },
    {
      "inputs": [
        {
          "internalType": "uint256",
          "name": "",
          "type": "uint256"
        }
      ],
      "name": "_CtypeMetadata",
      "outputs": [
        {
          "internalType": "uint256",
          "name": "orgId",
          "type": "uint256"
        },
        {
          "internalType": "uint256",
          "name": "CTypeId",
          "type": "uint256"
        },
        {
          "internalType": "address",
          "name": "issuer",
          "type": "address"
        },
        {
          "internalType": "string",
          "name": "propertiesURI",
          "type": "string"
        },
        {
          "internalType": "string",
          "name": "propertiesHash",
          "type": "string"
        },
        {
          "internalType": "bool",
          "name": "transferable",
          "type": "bool"
        },
        {
          "internalType": "bool",
          "name": "revokable",
          "type": "bool"
        },
        {
          "internalType": "bool",
          "name": "expirable",
          "type": "bool"
        },
        {
          "internalType": "uint256",
          "name": "lifespan",
          "type": "uint256"
        },
        {
          "internalType": "enum CType.credentialTypeStatus",
          "name": "status",
          "type": "uint8"
        }
      ],
      "stateMutability": "view",
      "type": "function"
    },
    {
      "inputs": [
        {
          "internalType": "uint256",
          "name": "",
          "type": "uint256"
        }
      ],
      "name": "_credentiallMetadata",
      "outputs": [
        {
          "internalType": "uint256",
          "name": "credentialid",
          "type": "uint256"
        },
        {
          "internalType": "uint256",
          "name": "ctypeId",
          "type": "uint256"
        },
        {
          "internalType": "address",
          "name": "owner",
          "type": "address"
        },
        {
          "internalType": "string",
          "name": "name",
          "type": "string"
        },
        {
          "internalType": "string",
          "name": "propertyURI",
          "type": "string"
        },
        {
          "internalType": "string",
          "name": "propertyHash",
          "type": "string"
        },
        {
          "internalType": "uint256",
          "name": "createdAt",
          "type": "uint256"
        },
        {
          "internalType": "enum Credentia.credentialStatus",
          "name": "status",
          "type": "uint8"
        }
      ],
      "stateMutability": "view",
      "type": "function"
    },
    {
      "inputs": [
        {
          "internalType": "uint256",
          "name": "",
          "type": "uint256"
        }
      ],
      "name": "_organizationMetadata",
      "outputs": [
        {
          "internalType": "uint256",
          "name": "id",
          "type": "uint256"
        },
        {
          "internalType": "string",
          "name": "name",
          "type": "string"
        },
        {
          "internalType": "string",
          "name": "desc",
          "type": "string"
        },
        {
          "internalType": "string",
          "name": "uri",
          "type": "string"
        }
      ],
      "stateMutability": "view",
      "type": "function"
    },
    {
      "inputs": [
        {
          "internalType": "uint256",
          "name": "organizationId",
          "type": "uint256"
        },
        {
          "internalType": "string",
          "name": "propertiesURI",
          "type": "string"
        },
        {
          "internalType": "string",
          "name": "propertiesHash",
          "type": "string"
        },
        {
          "internalType": "bool",
          "name": "transferable",
          "type": "bool"
        },
        {
          "internalType": "bool",
          "name": "revokable",
          "type": "bool"
        },
        {
          "internalType": "bool",
          "name": "expirable",
          "type": "bool"
        },
        {
          "internalType": "uint256",
          "name": "lifespan",
          "type": "uint256"
        }
      ],
      "name": "createCtype",
      "outputs": [],
      "stateMutability": "nonpayable",
      "type": "function"
    },
    {
      "inputs": [
        {
          "internalType": "string",
          "name": "name",
          "type": "string"
        },
        {
          "internalType": "string",
          "name": "desc",
          "type": "string"
        },
        {
          "internalType": "string",
          "name": "uri",
          "type": "string"
        }
      ],
      "name": "createOrg",
      "outputs": [],
      "stateMutability": "nonpayable",
      "type": "function"
    },
    {
      "inputs": [
        {
          "internalType": "address",
          "name": "owner",
          "type": "address"
        }
      ],
      "name": "credentialsList",
      "outputs": [
        {
          "internalType": "uint256[]",
          "name": "",
          "type": "uint256[]"
        }
      ],
      "stateMutability": "view",
      "type": "function"
    },
    {
      "inputs": [
        {
          "internalType": "uint256",
          "name": "orgId",
          "type": "uint256"
        }
      ],
      "name": "ctypeLists",
      "outputs": [
        {
          "internalType": "uint256[]",
          "name": "",
          "type": "uint256[]"
        }
      ],
      "stateMutability": "view",
      "type": "function"
    },
    {
      "inputs": [
        {
          "internalType": "uint256",
          "name": "orgId",
          "type": "uint256"
        }
      ],
      "name": "ctypeOf",
      "outputs": [
        {
          "internalType": "uint256",
          "name": "",
          "type": "uint256"
        }
      ],
      "stateMutability": "view",
      "type": "function"
    },
    {
      "inputs": [
        {
          "internalType": "uint256",
          "name": "organizationId",
          "type": "uint256"
        },
        {
          "internalType": "uint256",
          "name": "ctypeId",
          "type": "uint256"
        }
      ],
      "name": "deleteCtype",
      "outputs": [],
      "stateMutability": "nonpayable",
      "type": "function"
    },
    {
      "inputs": [
        {
          "internalType": "uint256",
          "name": "organizationId",
          "type": "uint256"
        }
      ],
      "name": "deleteOrg",
      "outputs": [],
      "stateMutability": "nonpayable",
      "type": "function"
    },
    {
      "inputs": [
        {
          "internalType": "bytes32",
          "name": "role",
          "type": "bytes32"
        },
        {
          "internalType": "uint256",
          "name": "organizationId",
          "type": "uint256"
        }
      ],
      "name": "getRoleAdmin",
      "outputs": [
        {
          "internalType": "bytes32",
          "name": "",
          "type": "bytes32"
        }
      ],
      "stateMutability": "view",
      "type": "function"
    },
    {
      "inputs": [
        {
          "internalType": "bytes32",
          "name": "role",
          "type": "bytes32"
        },
        {
          "internalType": "uint256",
          "name": "index",
          "type": "uint256"
        },
        {
          "internalType": "uint256",
          "name": "organizationId",
          "type": "uint256"
        }
      ],
      "name": "getRoleMember",
      "outputs": [
        {
          "internalType": "address",
          "name": "",
          "type": "address"
        }
      ],
      "stateMutability": "view",
      "type": "function"
    },
    {
      "inputs": [
        {
          "internalType": "bytes32",
          "name": "role",
          "type": "bytes32"
        },
        {
          "internalType": "uint256",
          "name": "organizationId",
          "type": "uint256"
        }
      ],
      "name": "getRoleMemberCount",
      "outputs": [
        {
          "internalType": "uint256",
          "name": "",
          "type": "uint256"
        }
      ],
      "stateMutability": "view",
      "type": "function"
    },
    {
      "inputs": [
        {
          "internalType": "bytes32",
          "name": "role",
          "type": "bytes32"
        },
        {
          "internalType": "address",
          "name": "account",
          "type": "address"
        },
        {
          "internalType": "uint256",
          "name": "organizationId",
          "type": "uint256"
        }
      ],
      "name": "grantRole",
      "outputs": [],
      "stateMutability": "nonpayable",
      "type": "function"
    },
    {
      "inputs": [
        {
          "internalType": "bytes32",
          "name": "role",
          "type": "bytes32"
        },
        {
          "internalType": "address",
          "name": "account",
          "type": "address"
        },
        {
          "internalType": "uint256",
          "name": "organizationId",
          "type": "uint256"
        }
      ],
      "name": "hasRole",
      "outputs": [
        {
          "internalType": "bool",
          "name": "",
          "type": "bool"
        }
      ],
      "stateMutability": "view",
      "type": "function"
    },
    {
      "inputs": [
        {
          "internalType": "uint256",
          "name": "ctypeId",
          "type": "uint256"
        },
        {
          "internalType": "address",
          "name": "to",
          "type": "address"
        },
        {
          "internalType": "string",
          "name": "name",
          "type": "string"
        },
        {
          "internalType": "string",
          "name": "propertyURI",
          "type": "string"
        },
        {
          "internalType": "string",
          "name": "propertyHash",
          "type": "string"
        }
      ],
      "name": "issueCredential",
      "outputs": [],
      "stateMutability": "nonpayable",
      "type": "function"
    },
    {
      "inputs": [],
      "name": "organizationLists",
      "outputs": [
        {
          "internalType": "uint256[]",
          "name": "",
          "type": "uint256[]"
        }
      ],
      "stateMutability": "view",
      "type": "function"
    },
    {
      "inputs": [
        {
          "internalType": "address",
          "name": "owner",
          "type": "address"
        }
      ],
      "name": "organizationListsByUser",
      "outputs": [
        {
          "internalType": "uint256[]",
          "name": "",
          "type": "uint256[]"
        }
      ],
      "stateMutability": "view",
      "type": "function"
    },
    {
      "inputs": [
        {
          "internalType": "address",
          "name": "owner",
          "type": "address"
        }
      ],
      "name": "organizationOf",
      "outputs": [
        {
          "internalType": "uint256",
          "name": "",
          "type": "uint256"
        }
      ],
      "stateMutability": "view",
      "type": "function"
    },
    {
      "inputs": [
        {
          "internalType": "uint256",
          "name": "organizationId",
          "type": "uint256"
        }
      ],
      "name": "ownerOf",
      "outputs": [
        {
          "internalType": "address",
          "name": "",
          "type": "address"
        }
      ],
      "stateMutability": "view",
      "type": "function"
    },
    {
      "inputs": [
        {
          "internalType": "uint256",
          "name": "credentialid",
          "type": "uint256"
        }
      ],
      "name": "ownerOfCredential",
      "outputs": [
        {
          "internalType": "address",
          "name": "",
          "type": "address"
        }
      ],
      "stateMutability": "view",
      "type": "function"
    },
    {
      "inputs": [
        {
          "internalType": "uint256",
          "name": "credentialid",
          "type": "uint256"
        }
      ],
      "name": "revokeCredential",
      "outputs": [],
      "stateMutability": "nonpayable",
      "type": "function"
    },
    {
      "inputs": [
        {
          "internalType": "bytes32",
          "name": "role",
          "type": "bytes32"
        },
        {
          "internalType": "address",
          "name": "account",
          "type": "address"
        },
        {
          "internalType": "uint256",
          "name": "organizationId",
          "type": "uint256"
        }
      ],
      "name": "revokeRole",
      "outputs": [],
      "stateMutability": "nonpayable",
      "type": "function"
    },
    {
      "inputs": [
        {
          "internalType": "uint256",
          "name": "credentialid",
          "type": "uint256"
        }
      ],
      "name": "transfer",
      "outputs": [],
      "stateMutability": "nonpayable",
      "type": "function"
    },
    {
      "inputs": [
        {
          "internalType": "address",
          "name": "to",
          "type": "address"
        },
        {
          "internalType": "uint256",
          "name": "organizationId",
          "type": "uint256"
        }
      ],
      "name": "transferOrg",
      "outputs": [],
      "stateMutability": "nonpayable",
      "type": "function"
    },
    {
      "inputs": [
        {
          "internalType": "uint256",
          "name": "credentialid",
          "type": "uint256"
        }
      ],
      "name": "unRevokeCredential",
      "outputs": [],
      "stateMutability": "nonpayable",
      "type": "function"
    }
  ],
  "bytecode": "0x608060405234801561001057600080fd5b506156bb80620000216000396000f3fe608060405234801561001057600080fd5b50600436106101c45760003560e01c8063635b7f5e116100f9578063dcf2ed8011610097578063e4b3e27111610071578063e4b3e2711461056f578063ec1de9ac1461058b578063ed981375146105be578063fa05fd43146105ee576101c4565b8063dcf2ed80146104ea578063dd3e4ff514610523578063df2a7fe11461053f576101c4565b80638ace51c5116100d35780638ace51c514610464578063a217fddf14610480578063b5d8f2de1461049e578063d27efca5146104ce576101c4565b8063635b7f5e146103fc57806371f6c2f11461042c5780637771c7fd14610448576101c4565b8063471c7c8e116101665780635eba6847116101405780635eba68471461034957806360a255121461037957806362507c75146103955780636352211e146103cc576101c4565b8063471c7c8e146102cb57806350eb3fb9146102e957806358e1ec0c14610319576101c4565b806312514bba116101a257806312514bba146102335780631b87278d1461024f5780631f9eff9a1461026b578063312a32b01461029b576101c4565b806305bc28f4146101c957806308de6b7d146101e75780630d26c53b14610217575b600080fd5b6101d161060a565b6040516101de91906147a1565b60405180910390f35b61020160048036038101906101fc9190613dc9565b610662565b60405161020e91906147a1565b60405180910390f35b610231600480360381019061022c9190613e2e565b610769565b005b61024d60048036038101906102489190613fc8565b610790565b005b61026960048036038101906102649190613fc8565b610899565b005b61028560048036038101906102809190613e2e565b610a0a565b60405161029291906147c3565b60405180910390f35b6102b560048036038101906102b09190613dc9565b610a87565b6040516102c291906147a1565b60405180910390f35b6102d3610b1e565b6040516102e091906147de565b60405180910390f35b61030360048036038101906102fe9190613eb9565b610b42565b6040516103109190614678565b60405180910390f35b610333600480360381019061032e9190613fc8565b610b83565b6040516103409190614a3b565b60405180910390f35b610363600480360381019061035e9190613fc8565b610ba0565b6040516103709190614678565b60405180910390f35b610393600480360381019061038e9190613fc8565b610c52565b005b6103af60048036038101906103aa9190613fc8565b610dc3565b6040516103c3989796959493929190614b5a565b60405180910390f35b6103e660048036038101906103e19190613fc8565b610fd0565b6040516103f39190614678565b60405180910390f35b61041660048036038101906104119190613fc8565b611082565b60405161042391906147a1565b60405180910390f35b610446600480360381019061044191906140b0565b6110ed565b005b610462600480360381019061045d9190613df2565b611175565b005b61047e6004803603810190610479919061417e565b6111d7565b005b610488611238565b60405161049591906147de565b60405180910390f35b6104b860048036038101906104b39190613dc9565b61123f565b6040516104c59190614a3b565b60405180910390f35b6104e860048036038101906104e39190613e2e565b6112f7565b005b61050460048036038101906104ff9190613fc8565b61131e565b60405161051a9a99989796959493929190614ab0565b60405180910390f35b61053d60048036038101906105389190613ff1565b6114d6565b005b61055960048036038101906105549190613e7d565b6115b7565b60405161056691906147de565b60405180910390f35b61058960048036038101906105849190613f31565b6115e9565b005b6105a560048036038101906105a09190613fc8565b61162f565b6040516105b59493929190614a56565b60405180910390f35b6105d860048036038101906105d39190613e7d565b6117f7565b6040516105e59190614a3b565b60405180910390f35b61060860048036038101906106039190613fc8565b61182d565b005b6060602180548060200260200160405190810160405280929190818152602001828054801561065857602002820191906000526020600020905b815481526020019060010190808311610644575b5050505050905090565b6060600073ffffffffffffffffffffffffffffffffffffffff168273ffffffffffffffffffffffffffffffffffffffff1614156106d4576040517f08c379a00000000000000000000000000000000000000000000000000000000081526004016106cb9061489b565b60405180910390fd5b602060008373ffffffffffffffffffffffffffffffffffffffff1673ffffffffffffffffffffffffffffffffffffffff16815260200190815260200160002080548060200260200160405190810160405280929190818152602001828054801561075d57602002820191906000526020600020905b815481526020019060010190808311610749575b50505050509050919050565b61077383826115b7565b8161077e828261188d565b6107898585856118a3565b5050505050565b60011515601460006009600085815260200190815260200160002060010154815260200190815260200160002060050160009054906101000a900460ff16151514610810576040517f08c379a0000000000000000000000000000000000000000000000000000000008152600401610807906149db565b60405180910390fd5b61081981610ba0565b73ffffffffffffffffffffffffffffffffffffffff166108376118ea565b73ffffffffffffffffffffffffffffffffffffffff161461088d576040517f08c379a0000000000000000000000000000000000000000000000000000000008152600401610884906149db565b60405180910390fd5b610896816118f2565b50565b6108da6000801b6108a86118ea565b601460006009600087815260200190815260200160002060010154815260200190815260200160002060000154610a0a565b8061093f575061093e7fd16fc3b90ee4c6cd928f9a255fb3210447747361802de487637095cf8348da6761090c6118ea565b601460006009600087815260200190815260200160002060010154815260200190815260200160002060000154610a0a565b5b61097e576040517f08c379a000000000000000000000000000000000000000000000000000000000815260040161097590614a1b565b60405180910390fd5b60011515601460006009600085815260200190815260200160002060010154815260200190815260200160002060050160019054906101000a900460ff161515146109fe576040517f08c379a00000000000000000000000000000000000000000000000000000000081526004016109f59061481b565b60405180910390fd5b610a078161195a565b50565b600060176000858152602001908152602001600020600083815260200190815260200160002060000160008473ffffffffffffffffffffffffffffffffffffffff1673ffffffffffffffffffffffffffffffffffffffff16815260200190815260200160002060009054906101000a900460ff1690509392505050565b6060600b60008373ffffffffffffffffffffffffffffffffffffffff1673ffffffffffffffffffffffffffffffffffffffff168152602001908152602001600020805480602002602001604051908101604052809291908181526020018280548015610b1257602002820191906000526020600020905b815481526020019060010190808311610afe575b50505050509050919050565b7fd16fc3b90ee4c6cd928f9a255fb3210447747361802de487637095cf8348da6781565b6000610b7a836018600087815260200190815260200160002060008581526020019081526020016000206119c290919063ffffffff16565b90509392505050565b600060156000838152602001908152602001600020549050919050565b6000806008600084815260200190815260200160002060009054906101000a900473ffffffffffffffffffffffffffffffffffffffff169050600073ffffffffffffffffffffffffffffffffffffffff168173ffffffffffffffffffffffffffffffffffffffff161415610c49576040517f08c379a0000000000000000000000000000000000000000000000000000000008152600401610c409061487b565b60405180910390fd5b80915050919050565b610c936000801b610c616118ea565b601460006009600087815260200190815260200160002060010154815260200190815260200160002060000154610a0a565b80610cf85750610cf77fd16fc3b90ee4c6cd928f9a255fb3210447747361802de487637095cf8348da67610cc56118ea565b601460006009600087815260200190815260200160002060010154815260200190815260200160002060000154610a0a565b5b610d37576040517f08c379a0000000000000000000000000000000000000000000000000000000008152600401610d2e90614a1b565b60405180910390fd5b60011515601460006009600085815260200190815260200160002060010154815260200190815260200160002060050160019054906101000a900460ff16151514610db7576040517f08c379a0000000000000000000000000000000000000000000000000000000008152600401610dae9061481b565b60405180910390fd5b610dc0816118f2565b50565b60096020528060005260406000206000915090508060000154908060010154908060020160009054906101000a900473ffffffffffffffffffffffffffffffffffffffff1690806003018054610e1890614ed7565b80601f0160208091040260200160405190810160405280929190818152602001828054610e4490614ed7565b8015610e915780601f10610e6657610100808354040283529160200191610e91565b820191906000526020600020905b815481529060010190602001808311610e7457829003601f168201915b505050505090806004018054610ea690614ed7565b80601f0160208091040260200160405190810160405280929190818152602001828054610ed290614ed7565b8015610f1f5780601f10610ef457610100808354040283529160200191610f1f565b820191906000526020600020905b815481529060010190602001808311610f0257829003601f168201915b505050505090806005018054610f3490614ed7565b80601f0160208091040260200160405190810160405280929190818152602001828054610f6090614ed7565b8015610fad5780601f10610f8257610100808354040283529160200191610fad565b820191906000526020600020905b815481529060010190602001808311610f9057829003601f168201915b5050505050908060060154908060070160009054906101000a900460ff16905088565b600080601d600084815260200190815260200160002060009054906101000a900473ffffffffffffffffffffffffffffffffffffffff169050600073ffffffffffffffffffffffffffffffffffffffff168173ffffffffffffffffffffffffffffffffffffffff161415611079576040517f08c379a00000000000000000000000000000000000000000000000000000000081526004016110709061495b565b60405180910390fd5b80915050919050565b6060601660008381526020019081526020016000208054806020026020016040519081016040528092919081815260200182805480156110e157602002820191906000526020600020905b8154815260200190600101908083116110cd575b50505050509050919050565b6111026000801b6110fc6118ea565b89610a0a565b611141576040517f08c379a0000000000000000000000000000000000000000000000000000000008152600401611138906148bb565b60405180910390fd5b61116261114c6118ea565b8861115760236119dc565b8989898989896119ea565b61116c6023611e17565b50505050505050565b61118a6000801b6111846118ea565b83610a0a565b6111c9576040517f08c379a00000000000000000000000000000000000000000000000000000000081526004016111c0906148fb565b60405180910390fd5b6111d38282611e2d565b5050565b6111ec6000801b6111e66118ea565b84610a0a565b61122b576040517f08c379a00000000000000000000000000000000000000000000000000000000081526004016112229061485b565b60405180910390fd5b61123481611e53565b5050565b6000801b81565b60008073ffffffffffffffffffffffffffffffffffffffff168273ffffffffffffffffffffffffffffffffffffffff1614156112b0576040517f08c379a00000000000000000000000000000000000000000000000000000000081526004016112a79061489b565b60405180910390fd5b601f60008373ffffffffffffffffffffffffffffffffffffffff1673ffffffffffffffffffffffffffffffffffffffff168152602001908152602001600020549050919050565b61130183826115b7565b8161130c828261188d565b611317858585611ebb565b5050505050565b60146020528060005260406000206000915090508060000154908060010154908060020160009054906101000a900473ffffffffffffffffffffffffffffffffffffffff169080600301805461137390614ed7565b80601f016020809104026020016040519081016040528092919081815260200182805461139f90614ed7565b80156113ec5780601f106113c1576101008083540402835291602001916113ec565b820191906000526020600020905b8154815290600101906020018083116113cf57829003601f168201915b50505050509080600401805461140190614ed7565b80601f016020809104026020016040519081016040528092919081815260200182805461142d90614ed7565b801561147a5780601f1061144f5761010080835404028352916020019161147a565b820191906000526020600020905b81548152906001019060200180831161145d57829003601f168201915b5050505050908060050160009054906101000a900460ff16908060050160019054906101000a900460ff16908060050160029054906101000a900460ff16908060060154908060070160009054906101000a900460ff1690508a565b6115016000801b6114e56118ea565b6014600089815260200190815260200160002060000154610a0a565b80611550575061154f7fd16fc3b90ee4c6cd928f9a255fb3210447747361802de487637095cf8348da676115336118ea565b6014600089815260200190815260200160002060000154610a0a565b5b61158f576040517f08c379a000000000000000000000000000000000000000000000000000000000815260040161158690614a1b565b60405180910390fd5b6115a661159c60246119dc565b8686868686611f02565b6115b06024611e17565b5050505050565b600060176000848152602001908152602001600020600083815260200190815260200160002060010154905092915050565b6116036115f46118ea565b6115fe60226119dc565b6122e8565b61162061160e6118ea565b84848461161b60226119dc565b6122fa565b61162a6022611e17565b505050565b601e60205280600052604060002060009150905080600001549080600101805461165890614ed7565b80601f016020809104026020016040519081016040528092919081815260200182805461168490614ed7565b80156116d15780601f106116a6576101008083540402835291602001916116d1565b820191906000526020600020905b8154815290600101906020018083116116b457829003601f168201915b5050505050908060020180546116e690614ed7565b80601f016020809104026020016040519081016040528092919081815260200182805461171290614ed7565b801561175f5780601f106117345761010080835404028352916020019161175f565b820191906000526020600020905b81548152906001019060200180831161174257829003601f168201915b50505050509080600301805461177490614ed7565b80601f01602080910402602001604051908101604052809291908181526020018280546117a090614ed7565b80156117ed5780601f106117c2576101008083540402835291602001916117ed565b820191906000526020600020905b8154815290600101906020018083116117d057829003601f168201915b5050505050905084565b60006118256018600085815260200190815260200160002060008481526020019081526020016000206124a3565b905092915050565b6118426000801b61183c6118ea565b83610a0a565b611881576040517f08c379a00000000000000000000000000000000000000000000000000000000081526004016118789061493b565b60405180910390fd5b61188a816124b8565b50565b61189f826118996118ea565b83612608565b5050565b6118ae8383836126a7565b6118e48260186000868152602001908152602001600020600084815260200190815260200160002061279b90919063ffffffff16565b50505050565b600033905090565b60016009600083815260200190815260200160002060070160006101000a81548160ff02191690836001811115611952577f4e487b7100000000000000000000000000000000000000000000000000000000600052602160045260246000fd5b021790555050565b60006009600083815260200190815260200160002060070160006101000a81548160ff021916908360018111156119ba577f4e487b7100000000000000000000000000000000000000000000000000000000600052602160045260246000fd5b021790555050565b60006119d183600001836127cb565b60001c905092915050565b600081600001549050919050565b6040518061014001604052808981526020018881526020018a73ffffffffffffffffffffffffffffffffffffffff168152602001878152602001868152602001851515815260200184151581526020018315158152602001828152602001600180811115611a81577f4e487b7100000000000000000000000000000000000000000000000000000000600052602160045260246000fd5b815250600c600082015181600001556020820151816001015560408201518160020160006101000a81548173ffffffffffffffffffffffffffffffffffffffff021916908373ffffffffffffffffffffffffffffffffffffffff1602179055506060820151816003019080519060200190611afd929190613b88565b506080820151816004019080519060200190611b1a929190613b88565b5060a08201518160050160006101000a81548160ff02191690831515021790555060c08201518160050160016101000a81548160ff02191690831515021790555060e08201518160050160026101000a81548160ff02191690831515021790555061010082015181600601556101208201518160070160006101000a81548160ff02191690836001811115611bd8577f4e487b7100000000000000000000000000000000000000000000000000000000600052602160045260246000fd5b0217905550905050600c6014600089815260200190815260200160002060008201548160000155600182015481600101556002820160009054906101000a900473ffffffffffffffffffffffffffffffffffffffff168160020160006101000a81548173ffffffffffffffffffffffffffffffffffffffff021916908373ffffffffffffffffffffffffffffffffffffffff1602179055506003820181600301908054611c8490614ed7565b611c8f929190613c0e565b506004820181600401908054611ca490614ed7565b611caf929190613c0e565b506005820160009054906101000a900460ff168160050160006101000a81548160ff0219169083151502179055506005820160019054906101000a900460ff168160050160016101000a81548160ff0219169083151502179055506005820160029054906101000a900460ff168160050160026101000a81548160ff021916908315150217905550600682015481600601556007820160009054906101000a900460ff168160070160006101000a81548160ff02191690836001811115611d9f577f4e487b7100000000000000000000000000000000000000000000000000000000600052602160045260246000fd5b0217905550905050601660008981526020019081526020016000208790806001815401808255809150506001900390600052602060002001600090919091909150556001601560008a81526020019081526020016000206000828254611e059190614cbf565b92505081905550505050505050505050565b6001816000016000828254019250508190555050565b611e4f611e386118ea565b83836040518060200160405280600081525061281c565b5050565b60006014600083815260200190815260200160002060070160006101000a81548160ff02191690836001811115611eb3577f4e487b7100000000000000000000000000000000000000000000000000000000600052602160045260246000fd5b021790555050565b611ec6838383612878565b611efc8260186000868152602001908152602001600020600084815260200190815260200160002061296d90919063ffffffff16565b50505050565b600073ffffffffffffffffffffffffffffffffffffffff168473ffffffffffffffffffffffffffffffffffffffff161415611f72576040517f08c379a0000000000000000000000000000000000000000000000000000000008152600401611f69906149bb565b60405180910390fd5b6040518061010001604052808781526020018681526020018573ffffffffffffffffffffffffffffffffffffffff168152602001848152602001838152602001828152602001428152602001600180811115611ff7577f4e487b7100000000000000000000000000000000000000000000000000000000600052602160045260246000fd5b81525060008082015181600001556020820151816001015560408201518160020160006101000a81548173ffffffffffffffffffffffffffffffffffffffff021916908373ffffffffffffffffffffffffffffffffffffffff1602179055506060820151816003019080519060200190612072929190613b88565b50608082015181600401908051906020019061208f929190613b88565b5060a08201518160050190805190602001906120ac929190613b88565b5060c0820151816006015560e08201518160070160006101000a81548160ff02191690836001811115612108577f4e487b7100000000000000000000000000000000000000000000000000000000600052602160045260246000fd5b021790555090505060006009600088815260200190815260200160002060008201548160000155600182015481600101556002820160009054906101000a900473ffffffffffffffffffffffffffffffffffffffff168160020160006101000a81548173ffffffffffffffffffffffffffffffffffffffff021916908373ffffffffffffffffffffffffffffffffffffffff16021790555060038201816003019080546121b490614ed7565b6121bf929190613c0e565b5060048201816004019080546121d490614ed7565b6121df929190613c0e565b5060058201816005019080546121f490614ed7565b6121ff929190613c0e565b50600682015481600601556007820160009054906101000a900460ff168160070160006101000a81548160ff02191690836001811115612268577f4e487b7100000000000000000000000000000000000000000000000000000000600052602160045260246000fd5b0217905550905050600b60008573ffffffffffffffffffffffffffffffffffffffff1673ffffffffffffffffffffffffffffffffffffffff1681526020019081526020016000208690806001815401808255809150506001900390600052602060002001600090919091909150556122e0848761299d565b505050505050565b6122f66000801b83836118a3565b5050565b6040518060800160405280828152602001858152602001848152602001838152506019600082015181600001556020820151816001019080519060200190612343929190613b88565b506040820151816002019080519060200190612360929190613b88565b50606082015181600301908051906020019061237d929190613b88565b509050506019601e60008381526020019081526020016000206000820154816000015560018201816001019080546123b490614ed7565b6123bf929190613c0e565b5060028201816002019080546123d490614ed7565b6123df929190613c0e565b5060038201816003019080546123f490614ed7565b6123ff929190613c0e565b509050506021819080600181540180825580915050600190039060005260206000200160009091909190915055602060008673ffffffffffffffffffffffffffffffffffffffff1673ffffffffffffffffffffffffffffffffffffffff16815260200190815260200160002081908060018154018082558091505060019003906000526020600020016000909190919091505561249c8582612ad2565b5050505050565b60006124b182600001612c40565b9050919050565b60006124c382610fd0565b90506124d181600084612c51565b6001601f60008373ffffffffffffffffffffffffffffffffffffffff1673ffffffffffffffffffffffffffffffffffffffff16815260200190815260200160002060008282546125219190614d6f565b92505081905550601d600083815260200190815260200160002060006101000a81549073ffffffffffffffffffffffffffffffffffffffff0219169055601e600083815260200190815260200160002060008082016000905560018201600061258a9190613c9b565b60028201600061259a9190613c9b565b6003820160006125aa9190613c9b565b50506125b582612c56565b6125bf8183612cd7565b7fb96e9e9671568c853f546705289ff8106f51ba021f91e74dcc22e38a5ab422c781836040516125f0929190614765565b60405180910390a161260481600084612dd4565b5050565b612613838383610a0a565b6126a2576126388273ffffffffffffffffffffffffffffffffffffffff166014612dd9565b6126468460001c6020612dd9565b60405160200161265792919061463e565b6040516020818303038152906040526040517f08c379a000000000000000000000000000000000000000000000000000000000815260040161269991906147f9565b60405180910390fd5b505050565b6126b2838383610a0a565b61279657600160176000858152602001908152602001600020600083815260200190815260200160002060000160008473ffffffffffffffffffffffffffffffffffffffff1673ffffffffffffffffffffffffffffffffffffffff16815260200190815260200160002060006101000a81548160ff02191690831515021790555061273b6118ea565b73ffffffffffffffffffffffffffffffffffffffff168273ffffffffffffffffffffffffffffffffffffffff16847f2f8788117e7eff1d82e926ec794901d17c78024a50270940304540a733656f0d60405160405180910390a45b505050565b60006127c3836000018373ffffffffffffffffffffffffffffffffffffffff1660001b6130d3565b905092915050565b6000826000018281548110612809577f4e487b7100000000000000000000000000000000000000000000000000000000600052603260045260246000fd5b9060005260206000200154905092915050565b612827848484613143565b61283384848484613421565b612872576040517f08c379a0000000000000000000000000000000000000000000000000000000008152600401612869906148db565b60405180910390fd5b50505050565b612883838383610a0a565b1561296857600060176000858152602001908152602001600020600083815260200190815260200160002060000160008473ffffffffffffffffffffffffffffffffffffffff1673ffffffffffffffffffffffffffffffffffffffff16815260200190815260200160002060006101000a81548160ff02191690831515021790555061290d6118ea565b73ffffffffffffffffffffffffffffffffffffffff168273ffffffffffffffffffffffffffffffffffffffff16847ff6391f5c32d9c69d2a47ea670b442974b53935d1edc7fd64eb21e047a839171b60405160405180910390a45b505050565b6000612995836000018373ffffffffffffffffffffffffffffffffffffffff1660001b6135b8565b905092915050565b600073ffffffffffffffffffffffffffffffffffffffff168273ffffffffffffffffffffffffffffffffffffffff161415612a0d576040517f08c379a0000000000000000000000000000000000000000000000000000000008152600401612a04906149bb565b60405180910390fd5b612a196000838361373e565b816008600083815260200190815260200160002060006101000a81548173ffffffffffffffffffffffffffffffffffffffff021916908373ffffffffffffffffffffffffffffffffffffffff1602179055506001600a60008473ffffffffffffffffffffffffffffffffffffffff1673ffffffffffffffffffffffffffffffffffffffff1681526020019081526020016000206000828254612abb9190614cbf565b92505081905550612ace60008383613743565b5050565b600073ffffffffffffffffffffffffffffffffffffffff168273ffffffffffffffffffffffffffffffffffffffff161415612b42576040517f08c379a0000000000000000000000000000000000000000000000000000000008152600401612b39906149bb565b60405180910390fd5b612b4e60008383612c51565b6001601f60008473ffffffffffffffffffffffffffffffffffffffff1673ffffffffffffffffffffffffffffffffffffffff1681526020019081526020016000206000828254612b9e9190614cbf565b9250508190555081601d600083815260200190815260200160002060006101000a81548173ffffffffffffffffffffffffffffffffffffffff021916908373ffffffffffffffffffffffffffffffffffffffff1602179055507f2b91a110f13ecbd5db0cd898f4df6c0627864d45204d76be0118046af370b1498282604051612c28929190614729565b60405180910390a1612c3c60008383612dd4565b5050565b600081600001805490509050919050565b505050565b60005b602180549050811015612cd3578160218281548110612ca1577f4e487b7100000000000000000000000000000000000000000000000000000000600052603260045260246000fd5b90600052602060002001541415612cc057612cbb81613748565b612cd3565b8080612ccb90614f3a565b915050612c59565b5050565b60005b602060008473ffffffffffffffffffffffffffffffffffffffff1673ffffffffffffffffffffffffffffffffffffffff16815260200190815260200160002080549050811015612dcf5781602060008573ffffffffffffffffffffffffffffffffffffffff1673ffffffffffffffffffffffffffffffffffffffff1681526020019081526020016000208281548110612d9c577f4e487b7100000000000000000000000000000000000000000000000000000000600052603260045260246000fd5b90600052602060002001541415612dbc57612db783826138ac565b612dcf565b8080612dc790614f3a565b915050612cda565b505050565b505050565b606060006002836002612dec9190614d15565b612df69190614cbf565b67ffffffffffffffff811115612e35577f4e487b7100000000000000000000000000000000000000000000000000000000600052604160045260246000fd5b6040519080825280601f01601f191660200182016040528015612e675781602001600182028036833780820191505090505b5090507f300000000000000000000000000000000000000000000000000000000000000081600081518110612ec5577f4e487b7100000000000000000000000000000000000000000000000000000000600052603260045260246000fd5b60200101907effffffffffffffffffffffffffffffffffffffffffffffffffffffffffffff1916908160001a9053507f780000000000000000000000000000000000000000000000000000000000000081600181518110612f4f577f4e487b7100000000000000000000000000000000000000000000000000000000600052603260045260246000fd5b60200101907effffffffffffffffffffffffffffffffffffffffffffffffffffffffffffff1916908160001a90535060006001846002612f8f9190614d15565b612f999190614cbf565b90505b6001811115613085577f3031323334353637383961626364656600000000000000000000000000000000600f861660108110613001577f4e487b7100000000000000000000000000000000000000000000000000000000600052603260045260246000fd5b1a60f81b82828151811061303e577f4e487b7100000000000000000000000000000000000000000000000000000000600052603260045260246000fd5b60200101907effffffffffffffffffffffffffffffffffffffffffffffffffffffffffffff1916908160001a905350600485901c94508061307e90614ead565b9050612f9c565b50600084146130c9576040517f08c379a00000000000000000000000000000000000000000000000000000000081526004016130c09061483b565b60405180910390fd5b8091505092915050565b60006130df8383613b42565b61313857826000018290806001815401808255809150506001900390600052602060002001600090919091909150558260000180549050836001016000848152602001908152602001600020819055506001905061313d565b600090505b92915050565b8273ffffffffffffffffffffffffffffffffffffffff1661316382610fd0565b73ffffffffffffffffffffffffffffffffffffffff16146131b9576040517f08c379a00000000000000000000000000000000000000000000000000000000081526004016131b09061491b565b60405180910390fd5b600073ffffffffffffffffffffffffffffffffffffffff168273ffffffffffffffffffffffffffffffffffffffff161415613229576040517f08c379a0000000000000000000000000000000000000000000000000000000008152600401613220906149fb565b60405180910390fd5b613234838383612c51565b61323d81612c56565b60218190806001815401808255809150506001900390600052602060002001600090919091909150556132708382612cd7565b602060008373ffffffffffffffffffffffffffffffffffffffff1673ffffffffffffffffffffffffffffffffffffffff1681526020019081526020016000208190806001815401808255809150506001900390600052602060002001600090919091909150556001601f60008573ffffffffffffffffffffffffffffffffffffffff1673ffffffffffffffffffffffffffffffffffffffff16815260200190815260200160002060008282546133269190614d6f565b925050819055506001601f60008473ffffffffffffffffffffffffffffffffffffffff1673ffffffffffffffffffffffffffffffffffffffff168152602001908152602001600020600082825461337d9190614cbf565b9250508190555081601d600083815260200190815260200160002060006101000a81548173ffffffffffffffffffffffffffffffffffffffff021916908373ffffffffffffffffffffffffffffffffffffffff1602179055507f28a7bb89184e38b25c8ac71cd1d0d14acf8af5bfa3e7bda868b4f646a238115e838383604051613409939291906146df565b60405180910390a161341c838383612dd4565b505050565b60006134428473ffffffffffffffffffffffffffffffffffffffff16613b65565b156135ab578373ffffffffffffffffffffffffffffffffffffffff16639556949061346b6118ea565b8786866040518563ffffffff1660e01b815260040161348d9493929190614693565b602060405180830381600087803b1580156134a757600080fd5b505af19250505080156134d857506040513d601f19601f820116820180604052508101906134d59190613f08565b60015b61355b573d8060008114613508576040519150601f19603f3d011682016040523d82523d6000602084013e61350d565b606091505b50600081511415613553576040517f08c379a000000000000000000000000000000000000000000000000000000000815260040161354a9061499b565b60405180910390fd5b805181602001fd5b639556949060e01b7bffffffffffffffffffffffffffffffffffffffffffffffffffffffff1916817bffffffffffffffffffffffffffffffffffffffffffffffffffffffff1916149150506135b0565b600190505b949350505050565b600080836001016000848152602001908152602001600020549050600081146137325760006001826135ea9190614d6f565b90506000600186600001805490506136029190614d6f565b90508181146136bd576000866000018281548110613649577f4e487b7100000000000000000000000000000000000000000000000000000000600052603260045260246000fd5b9060005260206000200154905080876000018481548110613693577f4e487b7100000000000000000000000000000000000000000000000000000000600052603260045260246000fd5b90600052602060002001819055508387600101600083815260200190815260200160002081905550505b856000018054806136f7577f4e487b7100000000000000000000000000000000000000000000000000000000600052603160045260246000fd5b600190038181906000526020600020016000905590558560010160008681526020019081526020016000206000905560019350505050613738565b60009150505b92915050565b505050565b505050565b602180549050811061378f576040517f08c379a00000000000000000000000000000000000000000000000000000000081526004016137869061497b565b60405180910390fd5b60008190505b60016021805490506137a79190614d6f565b81101561385a5760216001826137bd9190614cbf565b815481106137f4577f4e487b7100000000000000000000000000000000000000000000000000000000600052603260045260246000fd5b906000526020600020015460218281548110613839577f4e487b7100000000000000000000000000000000000000000000000000000000600052603260045260246000fd5b9060005260206000200181905550808061385290614f3a565b915050613795565b506021805480613893577f4e487b7100000000000000000000000000000000000000000000000000000000600052603160045260246000fd5b6001900381819060005260206000200160009055905550565b602060008373ffffffffffffffffffffffffffffffffffffffff1673ffffffffffffffffffffffffffffffffffffffff168152602001908152602001600020805490508110613930576040517f08c379a00000000000000000000000000000000000000000000000000000000081526004016139279061497b565b60405180910390fd5b60008190505b6001602060008573ffffffffffffffffffffffffffffffffffffffff1673ffffffffffffffffffffffffffffffffffffffff168152602001908152602001600020805490506139859190614d6f565b811015613ab257602060008473ffffffffffffffffffffffffffffffffffffffff1673ffffffffffffffffffffffffffffffffffffffff1681526020019081526020016000206001826139d89190614cbf565b81548110613a0f577f4e487b7100000000000000000000000000000000000000000000000000000000600052603260045260246000fd5b9060005260206000200154602060008573ffffffffffffffffffffffffffffffffffffffff1673ffffffffffffffffffffffffffffffffffffffff1681526020019081526020016000208281548110613a91577f4e487b7100000000000000000000000000000000000000000000000000000000600052603260045260246000fd5b90600052602060002001819055508080613aaa90614f3a565b915050613936565b50602060008373ffffffffffffffffffffffffffffffffffffffff1673ffffffffffffffffffffffffffffffffffffffff168152602001908152602001600020805480613b28577f4e487b7100000000000000000000000000000000000000000000000000000000600052603160045260246000fd5b600190038181906000526020600020016000905590555050565b600080836001016000848152602001908152602001600020541415905092915050565b6000808273ffffffffffffffffffffffffffffffffffffffff163b119050919050565b828054613b9490614ed7565b90600052602060002090601f016020900481019282613bb65760008555613bfd565b82601f10613bcf57805160ff1916838001178555613bfd565b82800160010185558215613bfd579182015b82811115613bfc578251825591602001919060010190613be1565b5b509050613c0a9190613cdb565b5090565b828054613c1a90614ed7565b90600052602060002090601f016020900481019282613c3c5760008555613c8a565b82601f10613c4d5780548555613c8a565b82800160010185558215613c8a57600052602060002091601f016020900482015b82811115613c89578254825591600101919060010190613c6e565b5b509050613c979190613cdb565b5090565b508054613ca790614ed7565b6000825580601f10613cb95750613cd8565b601f016020900490600052602060002090810190613cd79190613cdb565b5b50565b5b80821115613cf4576000816000905550600101613cdc565b5090565b6000613d0b613d0684614c12565b614bed565b905082815260208101848484011115613d2357600080fd5b613d2e848285614e6b565b509392505050565b600081359050613d4581615612565b92915050565b600081359050613d5a81615629565b92915050565b600081359050613d6f81615640565b92915050565b600081519050613d8481615657565b92915050565b600082601f830112613d9b57600080fd5b8135613dab848260208601613cf8565b91505092915050565b600081359050613dc38161566e565b92915050565b600060208284031215613ddb57600080fd5b6000613de984828501613d36565b91505092915050565b60008060408385031215613e0557600080fd5b6000613e1385828601613d36565b9250506020613e2485828601613db4565b9150509250929050565b600080600060608486031215613e4357600080fd5b6000613e5186828701613d60565b9350506020613e6286828701613d36565b9250506040613e7386828701613db4565b9150509250925092565b60008060408385031215613e9057600080fd5b6000613e9e85828601613d60565b9250506020613eaf85828601613db4565b9150509250929050565b600080600060608486031215613ece57600080fd5b6000613edc86828701613d60565b9350506020613eed86828701613db4565b9250506040613efe86828701613db4565b9150509250925092565b600060208284031215613f1a57600080fd5b6000613f2884828501613d75565b91505092915050565b600080600060608486031215613f4657600080fd5b600084013567ffffffffffffffff811115613f6057600080fd5b613f6c86828701613d8a565b935050602084013567ffffffffffffffff811115613f8957600080fd5b613f9586828701613d8a565b925050604084013567ffffffffffffffff811115613fb257600080fd5b613fbe86828701613d8a565b9150509250925092565b600060208284031215613fda57600080fd5b6000613fe884828501613db4565b91505092915050565b600080600080600060a0868803121561400957600080fd5b600061401788828901613db4565b955050602061402888828901613d36565b945050604086013567ffffffffffffffff81111561404557600080fd5b61405188828901613d8a565b935050606086013567ffffffffffffffff81111561406e57600080fd5b61407a88828901613d8a565b925050608086013567ffffffffffffffff81111561409757600080fd5b6140a388828901613d8a565b9150509295509295909350565b600080600080600080600060e0888a0312156140cb57600080fd5b60006140d98a828b01613db4565b975050602088013567ffffffffffffffff8111156140f657600080fd5b6141028a828b01613d8a565b965050604088013567ffffffffffffffff81111561411f57600080fd5b61412b8a828b01613d8a565b955050606061413c8a828b01613d4b565b945050608061414d8a828b01613d4b565b93505060a061415e8a828b01613d4b565b92505060c061416f8a828b01613db4565b91505092959891949750929550565b6000806040838503121561419157600080fd5b600061419f85828601613db4565b92505060206141b085828601613db4565b9150509250929050565b60006141c68383614620565b60208301905092915050565b6141db81614da3565b82525050565b60006141ec82614c53565b6141f68185614c81565b935061420183614c43565b8060005b8381101561423257815161421988826141ba565b975061422483614c74565b925050600181019050614205565b5085935050505092915050565b61424881614db5565b82525050565b61425781614dc1565b82525050565b600061426882614c5e565b6142728185614c92565b9350614282818560208601614e7a565b61428b8161503f565b840191505092915050565b61429f81614e47565b82525050565b6142ae81614e59565b82525050565b60006142bf82614c69565b6142c98185614ca3565b93506142d9818560208601614e7a565b6142e28161503f565b840191505092915050565b60006142f882614c69565b6143028185614cb4565b9350614312818560208601614e7a565b80840191505092915050565b600061432b602583614ca3565b915061433682615050565b604082019050919050565b600061434e602083614ca3565b91506143598261509f565b602082019050919050565b6000614371603e83614ca3565b915061437c826150c8565b604082019050919050565b6000614394601983614ca3565b915061439f82615117565b602082019050919050565b60006143b7602683614ca3565b91506143c282615140565b604082019050919050565b60006143da602183614ca3565b91506143e58261518f565b604082019050919050565b60006143fd603e83614ca3565b9150614408826151de565b604082019050919050565b6000614420602783614ca3565b915061442b8261522d565b604082019050919050565b6000614443602a83614ca3565b915061444e8261527c565b604082019050919050565b6000614466602283614ca3565b9150614471826152cb565b604082019050919050565b6000614489602883614ca3565b91506144948261531a565b604082019050919050565b60006144ac602183614ca3565b91506144b782615369565b604082019050919050565b60006144cf601283614ca3565b91506144da826153b8565b602082019050919050565b60006144f2602c83614ca3565b91506144fd826153e1565b604082019050919050565b6000614515601383614ca3565b915061452082615430565b602082019050919050565b6000614538601a83614ca3565b915061454382615459565b602082019050919050565b600061455b601b83614ca3565b915061456682615482565b602082019050919050565b600061457e602783614ca3565b9150614589826154ab565b604082019050919050565b60006145a1602183614ca3565b91506145ac826154fa565b604082019050919050565b60006145c4603b83614ca3565b91506145cf82615549565b604082019050919050565b60006145e7601783614cb4565b91506145f282615598565b601782019050919050565b600061460a601183614cb4565b9150614615826155c1565b601182019050919050565b61462981614e3d565b82525050565b61463881614e3d565b82525050565b6000614649826145da565b915061465582856142ed565b9150614660826145fd565b915061466c82846142ed565b91508190509392505050565b600060208201905061468d60008301846141d2565b92915050565b60006080820190506146a860008301876141d2565b6146b560208301866141d2565b6146c2604083018561462f565b81810360608301526146d4818461425d565b905095945050505050565b60006080820190506146f460008301866141d2565b61470160208301856141d2565b61470e604083018461462f565b818103606083015261471f8161454e565b9050949350505050565b600060608201905061473e60008301856141d2565b61474b602083018461462f565b818103604083015261475c81614387565b90509392505050565b600060608201905061477a60008301856141d2565b614787602083018461462f565b818103604083015261479881614508565b90509392505050565b600060208201905081810360008301526147bb81846141e1565b905092915050565b60006020820190506147d8600083018461423f565b92915050565b60006020820190506147f3600083018461424e565b92915050565b6000602082019050818103600083015261481381846142b4565b905092915050565b600060208201905081810360008301526148348161431e565b9050919050565b6000602082019050818103600083015261485481614341565b9050919050565b6000602082019050818103600083015261487481614364565b9050919050565b60006020820190508181036000830152614894816143aa565b9050919050565b600060208201905081810360008301526148b4816143cd565b9050919050565b600060208201905081810360008301526148d4816143f0565b9050919050565b600060208201905081810360008301526148f481614413565b9050919050565b6000602082019050818103600083015261491481614436565b9050919050565b6000602082019050818103600083015261493481614459565b9050919050565b600060208201905081810360008301526149548161447c565b9050919050565b600060208201905081810360008301526149748161449f565b9050919050565b60006020820190508181036000830152614994816144c2565b9050919050565b600060208201905081810360008301526149b4816144e5565b9050919050565b600060208201905081810360008301526149d48161452b565b9050919050565b600060208201905081810360008301526149f481614571565b9050919050565b60006020820190508181036000830152614a1481614594565b9050919050565b60006020820190508181036000830152614a34816145b7565b9050919050565b6000602082019050614a50600083018461462f565b92915050565b6000608082019050614a6b600083018761462f565b8181036020830152614a7d81866142b4565b90508181036040830152614a9181856142b4565b90508181036060830152614aa581846142b4565b905095945050505050565b600061014082019050614ac6600083018d61462f565b614ad3602083018c61462f565b614ae0604083018b6141d2565b8181036060830152614af2818a6142b4565b90508181036080830152614b0681896142b4565b9050614b1560a083018861423f565b614b2260c083018761423f565b614b2f60e083018661423f565b614b3d61010083018561462f565b614b4b6101208301846142a5565b9b9a5050505050505050505050565b600061010082019050614b70600083018b61462f565b614b7d602083018a61462f565b614b8a60408301896141d2565b8181036060830152614b9c81886142b4565b90508181036080830152614bb081876142b4565b905081810360a0830152614bc481866142b4565b9050614bd360c083018561462f565b614be060e0830184614296565b9998505050505050505050565b6000614bf7614c08565b9050614c038282614f09565b919050565b6000604051905090565b600067ffffffffffffffff821115614c2d57614c2c615010565b5b614c368261503f565b9050602081019050919050565b6000819050602082019050919050565b600081519050919050565b600081519050919050565b600081519050919050565b6000602082019050919050565b600082825260208201905092915050565b600082825260208201905092915050565b600082825260208201905092915050565b600081905092915050565b6000614cca82614e3d565b9150614cd583614e3d565b9250827fffffffffffffffffffffffffffffffffffffffffffffffffffffffffffffffff03821115614d0a57614d09614f83565b5b828201905092915050565b6000614d2082614e3d565b9150614d2b83614e3d565b9250817fffffffffffffffffffffffffffffffffffffffffffffffffffffffffffffffff0483118215151615614d6457614d63614f83565b5b828202905092915050565b6000614d7a82614e3d565b9150614d8583614e3d565b925082821015614d9857614d97614f83565b5b828203905092915050565b6000614dae82614e1d565b9050919050565b60008115159050919050565b6000819050919050565b60007fffffffff0000000000000000000000000000000000000000000000000000000082169050919050565b6000819050614e05826155ea565b919050565b6000819050614e18826155fe565b919050565b600073ffffffffffffffffffffffffffffffffffffffff82169050919050565b6000819050919050565b6000614e5282614df7565b9050919050565b6000614e6482614e0a565b9050919050565b82818337600083830152505050565b60005b83811015614e98578082015181840152602081019050614e7d565b83811115614ea7576000848401525b50505050565b6000614eb882614e3d565b91506000821415614ecc57614ecb614f83565b5b600182039050919050565b60006002820490506001821680614eef57607f821691505b60208210811415614f0357614f02614fe1565b5b50919050565b614f128261503f565b810181811067ffffffffffffffff82111715614f3157614f30615010565b5b80604052505050565b6000614f4582614e3d565b91507fffffffffffffffffffffffffffffffffffffffffffffffffffffffffffffffff821415614f7857614f77614f83565b5b600182019050919050565b7f4e487b7100000000000000000000000000000000000000000000000000000000600052601160045260246000fd5b7f4e487b7100000000000000000000000000000000000000000000000000000000600052602160045260246000fd5b7f4e487b7100000000000000000000000000000000000000000000000000000000600052602260045260246000fd5b7f4e487b7100000000000000000000000000000000000000000000000000000000600052604160045260246000fd5b6000601f19601f8301169050919050565b7f6d757374206d65206265207265766f6b6561626c652063726564656e7469616c60008201527f2074797065000000000000000000000000000000000000000000000000000000602082015250565b7f537472696e67733a20686578206c656e67746820696e73756666696369656e74600082015250565b7f6d75737420686176652041646d696e20726f6c6520696e206f7267616e617a6160008201527f74696f6e20746f2064656c6574652063726564656e7469616c20747970650000602082015250565b7f6f726167616e617a6174696f6e20686176652063726561746500000000000000600082015250565b7f6f776e657220717565727920666f72206e6f6e6578697374656e74206372656460008201527f656e7469616c0000000000000000000000000000000000000000000000000000602082015250565b7f61646472657373207a65726f206973206e6f7420612076616c6964206f776e6560008201527f7200000000000000000000000000000000000000000000000000000000000000602082015250565b7f6d75737420686176652041646d696e20726f6c6520696e206f7267616e617a6160008201527f74696f6e20746f206372656174652063726564656e7469616c20747970650000602082015250565b7f7472616e7366657220746f206e6f6e204f5247526563656976657220696d706c60008201527f656d656e74657200000000000000000000000000000000000000000000000000602082015250565b7f6d75737420686176652041646d696e20726f6c6520746f207472616e7366657260008201527f206f7267617a61696f6e00000000000000000000000000000000000000000000602082015250565b7f4f52473a207472616e736665722066726f6d20696e636f7272656374206f776e60008201527f6572000000000000000000000000000000000000000000000000000000000000602082015250565b7f6d75737420686176652041646d696e20726f6c6520746f2064656c657465206f60008201527f7267617a61696f6e000000000000000000000000000000000000000000000000602082015250565b7f6f776e657220717565727920666f72206e6f6e6578697374656e7420746f6b6560008201527f6e00000000000000000000000000000000000000000000000000000000000000602082015250565b7f696e646578206f7574206f6620626f756e640000000000000000000000000000600082015250565b7f4f52473a207472616e7366657220746f206e6f6e204f5247526563656976657260008201527f20696d706c656d656e7465720000000000000000000000000000000000000000602082015250565b7f44656c657465206f7267616e617a6174696f6e00000000000000000000000000600082015250565b7f63726561746520746f20746865207a65726f2061646472657373000000000000600082015250565b7f6f726167616e617a6174696f6e2068617665207472616e736665720000000000600082015250565b7f6d757374206d65206265207472616e7366657261626c652063726564656e746960008201527f616c207479706500000000000000000000000000000000000000000000000000602082015250565b7f4f52473a207472616e7366657220746f20746865207a65726f2061646472657360008201527f7300000000000000000000000000000000000000000000000000000000000000602082015250565b7f6d757374206d65206861766520726f6c6520696e206f7267616e617a6174696f60008201527f6e20746f206372656174652063726564656e7469616c20747970650000000000602082015250565b7f416363657373436f6e74726f6c3a206163636f756e7420000000000000000000600082015250565b7f206973206d697373696e6720726f6c6520000000000000000000000000000000600082015250565b600281106155fb576155fa614fb2565b5b50565b6002811061560f5761560e614fb2565b5b50565b61561b81614da3565b811461562657600080fd5b50565b61563281614db5565b811461563d57600080fd5b50565b61564981614dc1565b811461565457600080fd5b50565b61566081614dcb565b811461566b57600080fd5b50565b61567781614e3d565b811461568257600080fd5b5056fea2646970667358221220cfccc45eff262b18d55e3e9405e4b2cb7f3efceaf38bbf1440fa46bee35575e264736f6c63430008040033",
  "linkReferences": {},
  "deployedLinkReferences": {}
}