{
  "_format": "hh-sol-artifact-1",
  "contractName": "CreadentialManagement",
  "sourceName": "contracts/credential/CredentailMangement.sol",
  "abi": [
    {
      "anonymous": false,
      "inputs": [
        {
          "indexed": true,
          "internalType": "bytes32",
          "name": "role",
          "type": "bytes32"
        },
        {
          "indexed": true,
          "internalType": "bytes32",
          "name": "previousAdminRole",
          "type": "bytes32"
        },
        {
          "indexed": true,
          "internalType": "bytes32",
          "name": "newAdminRole",
          "type": "bytes32"
        }
      ],
      "name": "RoleAdminChanged",
      "type": "event"
    },
    {
      "anonymous": false,
      "inputs": [
        {
          "indexed": true,
          "internalType": "bytes32",
          "name": "role",
          "type": "bytes32"
        },
        {
          "indexed": true,
          "internalType": "address",
          "name": "account",
          "type": "address"
        },
        {
          "indexed": true,
          "internalType": "address",
          "name": "sender",
          "type": "address"
        }
      ],
      "name": "RoleGranted",
      "type": "event"
    },
    {
      "anonymous": false,
      "inputs": [
        {
          "indexed": true,
          "internalType": "bytes32",
          "name": "role",
          "type": "bytes32"
        },
        {
          "indexed": true,
          "internalType": "address",
          "name": "account",
          "type": "address"
        },
        {
          "indexed": true,
          "internalType": "address",
          "name": "sender",
          "type": "address"
        }
      ],
      "name": "RoleRevoked",
      "type": "event"
    },
    {
      "anonymous": false,
      "inputs": [
        {
          "indexed": false,
          "internalType": "address",
          "name": "to",
          "type": "address"
        },
        {
          "indexed": false,
          "internalType": "uint256",
          "name": "credentialid",
          "type": "uint256"
        }
      ],
      "name": "TransferCredential",
      "type": "event"
    },
    {
      "anonymous": false,
      "inputs": [
        {
          "indexed": false,
          "internalType": "address",
          "name": "from",
          "type": "address"
        },
        {
          "indexed": false,
          "internalType": "address",
          "name": "to",
          "type": "address"
        },
        {
          "indexed": false,
          "internalType": "uint256",
          "name": "orgId",
          "type": "uint256"
        },
        {
          "indexed": false,
          "internalType": "string",
          "name": "message",
          "type": "string"
        }
      ],
      "name": "TransferOrganazation",
      "type": "event"
    },
    {
      "inputs": [],
      "name": "DEFAULT_ADMIN_ROLE",
      "outputs": [
        {
          "internalType": "bytes32",
          "name": "",
          "type": "bytes32"
        }
      ],
      "stateMutability": "view",
      "type": "function"
    },
    {
      "inputs": [],
      "name": "VERYFYIER_ROLE",
      "outputs": [
        {
          "internalType": "bytes32",
          "name": "",
          "type": "bytes32"
        }
      ],
      "stateMutability": "view",
      "type": "function"
    },
    {
      "inputs": [
        {
          "internalType": "uint256",
          "name": "",
          "type": "uint256"
        }
      ],
      "name": "_CtypeMetadata",
      "outputs": [
        {
          "internalType": "uint256",
          "name": "orgId",
          "type": "uint256"
        },
        {
          "internalType": "uint256",
          "name": "CTypeId",
          "type": "uint256"
        },
        {
          "internalType": "address",
          "name": "issuer",
          "type": "address"
        },
        {
          "internalType": "string",
          "name": "propertiesURI",
          "type": "string"
        },
        {
          "internalType": "string",
          "name": "propertiesHash",
          "type": "string"
        },
        {
          "internalType": "bool",
          "name": "transferable",
          "type": "bool"
        },
        {
          "internalType": "bool",
          "name": "revokable",
          "type": "bool"
        },
        {
          "internalType": "bool",
          "name": "expirable",
          "type": "bool"
        },
        {
          "internalType": "uint256",
          "name": "lifespan",
          "type": "uint256"
        },
        {
          "internalType": "enum CType.credentialTypeStatus",
          "name": "status",
          "type": "uint8"
        }
      ],
      "stateMutability": "view",
      "type": "function"
    },
    {
      "inputs": [
        {
          "internalType": "uint256",
          "name": "",
          "type": "uint256"
        }
      ],
      "name": "_credentiallMetadata",
      "outputs": [
        {
          "internalType": "uint256",
          "name": "credentialid",
          "type": "uint256"
        },
        {
          "internalType": "uint256",
          "name": "ctypeId",
          "type": "uint256"
        },
        {
          "internalType": "address",
          "name": "owner",
          "type": "address"
        },
        {
          "internalType": "string",
          "name": "name",
          "type": "string"
        },
        {
          "internalType": "string",
          "name": "propertyURI",
          "type": "string"
        },
        {
          "internalType": "string",
          "name": "propertyHash",
          "type": "string"
        },
        {
          "internalType": "uint256",
          "name": "createdAt",
          "type": "uint256"
        },
        {
          "internalType": "enum Credentia.credentialStatus",
          "name": "status",
          "type": "uint8"
        }
      ],
      "stateMutability": "view",
      "type": "function"
    },
    {
      "inputs": [
        {
          "internalType": "uint256",
          "name": "",
          "type": "uint256"
        }
      ],
      "name": "_organizationMetadata",
      "outputs": [
        {
          "internalType": "uint256",
          "name": "id",
          "type": "uint256"
        },
        {
          "internalType": "string",
          "name": "name",
          "type": "string"
        },
        {
          "internalType": "string",
          "name": "desc",
          "type": "string"
        },
        {
          "internalType": "string",
          "name": "uri",
          "type": "string"
        }
      ],
      "stateMutability": "view",
      "type": "function"
    },
    {
      "inputs": [
        {
          "internalType": "uint256",
          "name": "organizationId",
          "type": "uint256"
        },
        {
          "internalType": "string",
          "name": "propertiesURI",
          "type": "string"
        },
        {
          "internalType": "string",
          "name": "propertiesHash",
          "type": "string"
        },
        {
          "internalType": "bool",
          "name": "transferable",
          "type": "bool"
        },
        {
          "internalType": "bool",
          "name": "revokable",
          "type": "bool"
        },
        {
          "internalType": "bool",
          "name": "expirable",
          "type": "bool"
        },
        {
          "internalType": "uint256",
          "name": "lifespan",
          "type": "uint256"
        }
      ],
      "name": "createCtype",
      "outputs": [],
      "stateMutability": "nonpayable",
      "type": "function"
    },
    {
      "inputs": [
        {
          "internalType": "string",
          "name": "name",
          "type": "string"
        },
        {
          "internalType": "string",
          "name": "desc",
          "type": "string"
        },
        {
          "internalType": "string",
          "name": "uri",
          "type": "string"
        }
      ],
      "name": "createOrg",
      "outputs": [],
      "stateMutability": "nonpayable",
      "type": "function"
    },
    {
      "inputs": [
        {
          "internalType": "address",
          "name": "owner",
          "type": "address"
        }
      ],
      "name": "credentialsList",
      "outputs": [
        {
          "internalType": "uint256[]",
          "name": "",
          "type": "uint256[]"
        }
      ],
      "stateMutability": "view",
      "type": "function"
    },
    {
      "inputs": [
        {
          "internalType": "uint256",
          "name": "orgId",
          "type": "uint256"
        }
      ],
      "name": "ctypeLists",
      "outputs": [
        {
          "internalType": "uint256[]",
          "name": "",
          "type": "uint256[]"
        }
      ],
      "stateMutability": "view",
      "type": "function"
    },
    {
      "inputs": [
        {
          "internalType": "uint256",
          "name": "orgId",
          "type": "uint256"
        }
      ],
      "name": "ctypeOf",
      "outputs": [
        {
          "internalType": "uint256",
          "name": "",
          "type": "uint256"
        }
      ],
      "stateMutability": "view",
      "type": "function"
    },
    {
      "inputs": [
        {
          "internalType": "uint256",
          "name": "organizationId",
          "type": "uint256"
        },
        {
          "internalType": "uint256",
          "name": "ctypeId",
          "type": "uint256"
        }
      ],
      "name": "deleteCtype",
      "outputs": [],
      "stateMutability": "nonpayable",
      "type": "function"
    },
    {
      "inputs": [
        {
          "internalType": "uint256",
          "name": "organizationId",
          "type": "uint256"
        }
      ],
      "name": "deleteOrg",
      "outputs": [],
      "stateMutability": "nonpayable",
      "type": "function"
    },
    {
      "inputs": [
        {
          "internalType": "bytes32",
          "name": "role",
          "type": "bytes32"
        },
        {
          "internalType": "uint256",
          "name": "organizationId",
          "type": "uint256"
        }
      ],
      "name": "getRoleAdmin",
      "outputs": [
        {
          "internalType": "bytes32",
          "name": "",
          "type": "bytes32"
        }
      ],
      "stateMutability": "view",
      "type": "function"
    },
    {
      "inputs": [
        {
          "internalType": "bytes32",
          "name": "role",
          "type": "bytes32"
        },
        {
          "internalType": "uint256",
          "name": "index",
          "type": "uint256"
        },
        {
          "internalType": "uint256",
          "name": "organizationId",
          "type": "uint256"
        }
      ],
      "name": "getRoleMember",
      "outputs": [
        {
          "internalType": "address",
          "name": "",
          "type": "address"
        }
      ],
      "stateMutability": "view",
      "type": "function"
    },
    {
      "inputs": [
        {
          "internalType": "bytes32",
          "name": "role",
          "type": "bytes32"
        },
        {
          "internalType": "uint256",
          "name": "organizationId",
          "type": "uint256"
        }
      ],
      "name": "getRoleMemberCount",
      "outputs": [
        {
          "internalType": "uint256",
          "name": "",
          "type": "uint256"
        }
      ],
      "stateMutability": "view",
      "type": "function"
    },
    {
      "inputs": [
        {
          "internalType": "bytes32",
          "name": "role",
          "type": "bytes32"
        },
        {
          "internalType": "address",
          "name": "account",
          "type": "address"
        },
        {
          "internalType": "uint256",
          "name": "organizationId",
          "type": "uint256"
        }
      ],
      "name": "grantRole",
      "outputs": [],
      "stateMutability": "nonpayable",
      "type": "function"
    },
    {
      "inputs": [
        {
          "internalType": "bytes32",
          "name": "role",
          "type": "bytes32"
        },
        {
          "internalType": "address",
          "name": "account",
          "type": "address"
        },
        {
          "internalType": "uint256",
          "name": "organizationId",
          "type": "uint256"
        }
      ],
      "name": "hasRole",
      "outputs": [
        {
          "internalType": "bool",
          "name": "",
          "type": "bool"
        }
      ],
      "stateMutability": "view",
      "type": "function"
    },
    {
      "inputs": [
        {
          "internalType": "uint256",
          "name": "ctypeId",
          "type": "uint256"
        },
        {
          "internalType": "address",
          "name": "to",
          "type": "address"
        },
        {
          "internalType": "string",
          "name": "name",
          "type": "string"
        },
        {
          "internalType": "string",
          "name": "propertyURI",
          "type": "string"
        },
        {
          "internalType": "string",
          "name": "propertyHash",
          "type": "string"
        }
      ],
      "name": "issueCredential",
      "outputs": [],
      "stateMutability": "nonpayable",
      "type": "function"
    },
    {
      "inputs": [],
      "name": "organizationLists",
      "outputs": [
        {
          "internalType": "uint256[]",
          "name": "",
          "type": "uint256[]"
        }
      ],
      "stateMutability": "view",
      "type": "function"
    },
    {
      "inputs": [
        {
          "internalType": "address",
          "name": "owner",
          "type": "address"
        }
      ],
      "name": "organizationListsByUser",
      "outputs": [
        {
          "internalType": "uint256[]",
          "name": "",
          "type": "uint256[]"
        }
      ],
      "stateMutability": "view",
      "type": "function"
    },
    {
      "inputs": [
        {
          "internalType": "address",
          "name": "owner",
          "type": "address"
        }
      ],
      "name": "organizationOf",
      "outputs": [
        {
          "internalType": "uint256",
          "name": "",
          "type": "uint256"
        }
      ],
      "stateMutability": "view",
      "type": "function"
    },
    {
      "inputs": [
        {
          "internalType": "uint256",
          "name": "organizationId",
          "type": "uint256"
        }
      ],
      "name": "ownerOf",
      "outputs": [
        {
          "internalType": "address",
          "name": "",
          "type": "address"
        }
      ],
      "stateMutability": "view",
      "type": "function"
    },
    {
      "inputs": [
        {
          "internalType": "uint256",
          "name": "credentialid",
          "type": "uint256"
        }
      ],
      "name": "ownerOfCredential",
      "outputs": [
        {
          "internalType": "address",
          "name": "",
          "type": "address"
        }
      ],
      "stateMutability": "view",
      "type": "function"
    },
    {
      "inputs": [
        {
          "internalType": "bytes32",
          "name": "role",
          "type": "bytes32"
        },
        {
          "internalType": "address",
          "name": "account",
          "type": "address"
        },
        {
          "internalType": "uint256",
          "name": "organizationId",
          "type": "uint256"
        }
      ],
      "name": "revokeRole",
      "outputs": [],
      "stateMutability": "nonpayable",
      "type": "function"
    },
    {
      "inputs": [
        {
          "internalType": "uint256",
          "name": "credentialid",
          "type": "uint256"
        },
        {
          "internalType": "bool",
          "name": "revoke",
          "type": "bool"
        }
      ],
      "name": "toggleRevokeCredential",
      "outputs": [],
      "stateMutability": "nonpayable",
      "type": "function"
    },
    {
      "inputs": [
        {
          "internalType": "uint256",
          "name": "credentialid",
          "type": "uint256"
        },
        {
          "internalType": "address",
          "name": "to",
          "type": "address"
        }
      ],
      "name": "transfer",
      "outputs": [],
      "stateMutability": "nonpayable",
      "type": "function"
    },
    {
      "inputs": [
        {
          "internalType": "address",
          "name": "to",
          "type": "address"
        },
        {
          "internalType": "uint256",
          "name": "organizationId",
          "type": "uint256"
        }
      ],
      "name": "transferOrg",
      "outputs": [],
      "stateMutability": "nonpayable",
      "type": "function"
    },
    {
      "inputs": [
        {
          "internalType": "uint256",
          "name": "ctypeId",
          "type": "uint256"
        }
      ],
      "name": "usersByCTypes",
      "outputs": [
        {
          "internalType": "uint256[]",
          "name": "",
          "type": "uint256[]"
        }
      ],
      "stateMutability": "view",
      "type": "function"
    }
  ],
  "bytecode": "0x608060405234801561001057600080fd5b50615eae80620000216000396000f3fe608060405234801561001057600080fd5b50600436106101c45760003560e01c806371f6c2f1116100f9578063dcf2ed8011610097578063e4b3e27111610071578063e4b3e27114610583578063ec1de9ac1461059f578063ed981375146105d2578063fa05fd4314610602576101c4565b8063dcf2ed80146104fe578063dd3e4ff514610537578063df2a7fe114610553576101c4565b8063a217fddf116100d3578063a217fddf14610478578063b5d8f2de14610496578063b7760c8f146104c6578063d27efca5146104e2576101c4565b806371f6c2f1146104245780637771c7fd146104405780638ace51c51461045c576101c4565b806350eb3fb91161016657806362507c751161014057806362507c751461035d5780636352211e14610394578063635b7f5e146103c45780636bda8f46146103f4576101c4565b806350eb3fb9146102cd57806358e1ec0c146102fd5780635eba68471461032d576101c4565b80631562bd45116101a25780631562bd45146102335780631f9eff9a1461024f578063312a32b01461027f578063471c7c8e146102af576101c4565b806305bc28f4146101c957806308de6b7d146101e75780630d26c53b14610217575b600080fd5b6101d161061e565b6040516101de9190614f31565b60405180910390f35b61020160048036038101906101fc919061450d565b610676565b60405161020e9190614f31565b60405180910390f35b610231600480360381019061022c9190614572565b61077d565b005b61024d60048036038101906102489190614830565b6107a4565b005b61026960048036038101906102649190614572565b61092b565b6040516102769190614f53565b60405180910390f35b6102996004803603810190610294919061450d565b6109a8565b6040516102a69190614f31565b60405180910390f35b6102b7610a3f565b6040516102c49190614f6e565b60405180910390f35b6102e760048036038101906102e291906145fd565b610a63565b6040516102f49190614e57565b60405180910390f35b6103176004803603810190610312919061470c565b610aa4565b604051610324919061522b565b60405180910390f35b6103476004803603810190610342919061470c565b610ac1565b6040516103549190614e57565b60405180910390f35b6103776004803603810190610372919061470c565b610b73565b60405161038b98979695949392919061534a565b60405180910390f35b6103ae60048036038101906103a9919061470c565b610d80565b6040516103bb9190614e57565b60405180910390f35b6103de60048036038101906103d9919061470c565b610e32565b6040516103eb9190614f31565b60405180910390f35b61040e6004803603810190610409919061470c565b610e9d565b60405161041b9190614f31565b60405180910390f35b61043e6004803603810190610439919061486c565b610f08565b005b61045a60048036038101906104559190614536565b610f90565b005b6104766004803603810190610471919061493a565b610ff2565b005b610480611053565b60405161048d9190614f6e565b60405180910390f35b6104b060048036038101906104ab919061450d565b61105a565b6040516104bd919061522b565b60405180910390f35b6104e060048036038101906104db9190614735565b611112565b005b6104fc60048036038101906104f79190614572565b611256565b005b6105186004803603810190610513919061470c565b61127d565b60405161052e9a999897969594939291906152a0565b60405180910390f35b610551600480360381019061054c9190614771565b611435565b005b61056d600480360381019061056891906145c1565b611516565b60405161057a9190614f6e565b60405180910390f35b61059d60048036038101906105989190614675565b611548565b005b6105b960048036038101906105b4919061470c565b61158e565b6040516105c99493929190615246565b60405180910390f35b6105ec60048036038101906105e791906145c1565b611756565b6040516105f9919061522b565b60405180910390f35b61061c6004803603810190610617919061470c565b61178c565b005b6060602280548060200260200160405190810160405280929190818152602001828054801561066c57602002820191906000526020600020905b815481526020019060010190808311610658575b5050505050905090565b6060600073ffffffffffffffffffffffffffffffffffffffff168273ffffffffffffffffffffffffffffffffffffffff1614156106e8576040517f08c379a00000000000000000000000000000000000000000000000000000000081526004016106df9061500b565b60405180910390fd5b602160008373ffffffffffffffffffffffffffffffffffffffff1673ffffffffffffffffffffffffffffffffffffffff16815260200190815260200160002080548060200260200160405190810160405280929190818152602001828054801561077157602002820191906000526020600020905b81548152602001906001019080831161075d575b50505050509050919050565b6107878382611516565b8161079282826117ec565b61079d858585611802565b5050505050565b6107e56000801b6107b3611849565b60156000600960008881526020019081526020016000206001015481526020019081526020016000206000015461092b565b8061084a57506108497fd16fc3b90ee4c6cd928f9a255fb3210447747361802de487637095cf8348da67610817611849565b60156000600960008881526020019081526020016000206001015481526020019081526020016000206000015461092b565b5b610889576040517f08c379a0000000000000000000000000000000000000000000000000000000008152600401610880906151ab565b60405180910390fd5b60011515601560006009600086815260200190815260200160002060010154815260200190815260200160002060050160019054906101000a900460ff16151514610909576040517f08c379a00000000000000000000000000000000000000000000000000000000081526004016109009061502b565b60405180910390fd5b801561091d5761091882611851565b610927565b610926826118b9565b5b5050565b600060186000858152602001908152602001600020600083815260200190815260200160002060000160008473ffffffffffffffffffffffffffffffffffffffff1673ffffffffffffffffffffffffffffffffffffffff16815260200190815260200160002060009054906101000a900460ff1690509392505050565b6060600b60008373ffffffffffffffffffffffffffffffffffffffff1673ffffffffffffffffffffffffffffffffffffffff168152602001908152602001600020805480602002602001604051908101604052809291908181526020018280548015610a3357602002820191906000526020600020905b815481526020019060010190808311610a1f575b50505050509050919050565b7fd16fc3b90ee4c6cd928f9a255fb3210447747361802de487637095cf8348da6781565b6000610a9b8360196000878152602001908152602001600020600085815260200190815260200160002061192190919063ffffffff16565b90509392505050565b600060166000838152602001908152602001600020549050919050565b6000806008600084815260200190815260200160002060009054906101000a900473ffffffffffffffffffffffffffffffffffffffff169050600073ffffffffffffffffffffffffffffffffffffffff168173ffffffffffffffffffffffffffffffffffffffff161415610b6a576040517f08c379a0000000000000000000000000000000000000000000000000000000008152600401610b6190614feb565b60405180910390fd5b80915050919050565b60096020528060005260406000206000915090508060000154908060010154908060020160009054906101000a900473ffffffffffffffffffffffffffffffffffffffff1690806003018054610bc8906156c7565b80601f0160208091040260200160405190810160405280929190818152602001828054610bf4906156c7565b8015610c415780601f10610c1657610100808354040283529160200191610c41565b820191906000526020600020905b815481529060010190602001808311610c2457829003601f168201915b505050505090806004018054610c56906156c7565b80601f0160208091040260200160405190810160405280929190818152602001828054610c82906156c7565b8015610ccf5780601f10610ca457610100808354040283529160200191610ccf565b820191906000526020600020905b815481529060010190602001808311610cb257829003601f168201915b505050505090806005018054610ce4906156c7565b80601f0160208091040260200160405190810160405280929190818152602001828054610d10906156c7565b8015610d5d5780601f10610d3257610100808354040283529160200191610d5d565b820191906000526020600020905b815481529060010190602001808311610d4057829003601f168201915b5050505050908060060154908060070160009054906101000a900460ff16905088565b600080601e600084815260200190815260200160002060009054906101000a900473ffffffffffffffffffffffffffffffffffffffff169050600073ffffffffffffffffffffffffffffffffffffffff168173ffffffffffffffffffffffffffffffffffffffff161415610e29576040517f08c379a0000000000000000000000000000000000000000000000000000000008152600401610e209061512b565b60405180910390fd5b80915050919050565b606060176000838152602001908152602001600020805480602002602001604051908101604052809291908181526020018280548015610e9157602002820191906000526020600020905b815481526020019060010190808311610e7d575b50505050509050919050565b6060600c6000838152602001908152602001600020805480602002602001604051908101604052809291908181526020018280548015610efc57602002820191906000526020600020905b815481526020019060010190808311610ee8575b50505050509050919050565b610f1d6000801b610f17611849565b8961092b565b610f5c576040517f08c379a0000000000000000000000000000000000000000000000000000000008152600401610f539061504b565b60405180910390fd5b610f7d610f67611849565b88610f72602461193b565b898989898989611949565b610f876024611d76565b50505050505050565b610fa56000801b610f9f611849565b8361092b565b610fe4576040517f08c379a0000000000000000000000000000000000000000000000000000000008152600401610fdb9061508b565b60405180910390fd5b610fee8282611d8c565b5050565b6110076000801b611001611849565b8461092b565b611046576040517f08c379a000000000000000000000000000000000000000000000000000000000815260040161103d90614fcb565b60405180910390fd5b61104f81611db2565b5050565b6000801b81565b60008073ffffffffffffffffffffffffffffffffffffffff168273ffffffffffffffffffffffffffffffffffffffff1614156110cb576040517f08c379a00000000000000000000000000000000000000000000000000000000081526004016110c29061500b565b60405180910390fd5b602060008373ffffffffffffffffffffffffffffffffffffffff1673ffffffffffffffffffffffffffffffffffffffff168152602001908152602001600020549050919050565b60011515601560006009600086815260200190815260200160002060010154815260200190815260200160002060050160009054906101000a900460ff16151514611192576040517f08c379a00000000000000000000000000000000000000000000000000000000081526004016111899061520b565b60405180910390fd5b61119b82610ac1565b73ffffffffffffffffffffffffffffffffffffffff166111b9611849565b73ffffffffffffffffffffffffffffffffffffffff161461120f576040517f08c379a00000000000000000000000000000000000000000000000000000000081526004016112069061518b565b60405180910390fd5b6112198183611e1a565b7f82bb9862383e10e8e8730473f431e7df993cd494ecc4dfc8ffaf1a60aa6f86f0818360405161124a929190614f08565b60405180910390a15050565b6112608382611516565b8161126b82826117ec565b611276858585611e40565b5050505050565b60156020528060005260406000206000915090508060000154908060010154908060020160009054906101000a900473ffffffffffffffffffffffffffffffffffffffff16908060030180546112d2906156c7565b80601f01602080910402602001604051908101604052809291908181526020018280546112fe906156c7565b801561134b5780601f106113205761010080835404028352916020019161134b565b820191906000526020600020905b81548152906001019060200180831161132e57829003601f168201915b505050505090806004018054611360906156c7565b80601f016020809104026020016040519081016040528092919081815260200182805461138c906156c7565b80156113d95780601f106113ae576101008083540402835291602001916113d9565b820191906000526020600020905b8154815290600101906020018083116113bc57829003601f168201915b5050505050908060050160009054906101000a900460ff16908060050160019054906101000a900460ff16908060050160029054906101000a900460ff16908060060154908060070160009054906101000a900460ff1690508a565b6114606000801b611444611849565b601560008981526020019081526020016000206000015461092b565b806114af57506114ae7fd16fc3b90ee4c6cd928f9a255fb3210447747361802de487637095cf8348da67611492611849565b601560008981526020019081526020016000206000015461092b565b5b6114ee576040517f08c379a00000000000000000000000000000000000000000000000000000000081526004016114e5906151ab565b60405180910390fd5b6115056114fb602561193b565b8686868686611e87565b61150f6025611d76565b5050505050565b600060186000848152602001908152602001600020600083815260200190815260200160002060010154905092915050565b611562611553611849565b61155d602361193b565b6122a7565b61157f61156d611849565b84848461157a602361193b565b6122b9565b6115896023611d76565b505050565b601f6020528060005260406000206000915090508060000154908060010180546115b7906156c7565b80601f01602080910402602001604051908101604052809291908181526020018280546115e3906156c7565b80156116305780601f1061160557610100808354040283529160200191611630565b820191906000526020600020905b81548152906001019060200180831161161357829003601f168201915b505050505090806002018054611645906156c7565b80601f0160208091040260200160405190810160405280929190818152602001828054611671906156c7565b80156116be5780601f10611693576101008083540402835291602001916116be565b820191906000526020600020905b8154815290600101906020018083116116a157829003601f168201915b5050505050908060030180546116d3906156c7565b80601f01602080910402602001604051908101604052809291908181526020018280546116ff906156c7565b801561174c5780601f106117215761010080835404028352916020019161174c565b820191906000526020600020905b81548152906001019060200180831161172f57829003601f168201915b5050505050905084565b6000611784601960008581526020019081526020016000206000848152602001908152602001600020612462565b905092915050565b6117a16000801b61179b611849565b8361092b565b6117e0576040517f08c379a00000000000000000000000000000000000000000000000000000000081526004016117d7906150eb565b60405180910390fd5b6117e981612477565b50565b6117fe826117f8611849565b8361258e565b5050565b61180d83838361262d565b6118438260196000868152602001908152602001600020600084815260200190815260200160002061272190919063ffffffff16565b50505050565b600033905090565b60016009600083815260200190815260200160002060070160006101000a81548160ff021916908360018111156118b1577f4e487b7100000000000000000000000000000000000000000000000000000000600052602160045260246000fd5b021790555050565b60006009600083815260200190815260200160002060070160006101000a81548160ff02191690836001811115611919577f4e487b7100000000000000000000000000000000000000000000000000000000600052602160045260246000fd5b021790555050565b60006119308360000183612751565b60001c905092915050565b600081600001549050919050565b6040518061014001604052808981526020018881526020018a73ffffffffffffffffffffffffffffffffffffffff1681526020018781526020018681526020018515158152602001841515815260200183151581526020018281526020016001808111156119e0577f4e487b7100000000000000000000000000000000000000000000000000000000600052602160045260246000fd5b815250600d600082015181600001556020820151816001015560408201518160020160006101000a81548173ffffffffffffffffffffffffffffffffffffffff021916908373ffffffffffffffffffffffffffffffffffffffff1602179055506060820151816003019080519060200190611a5c9291906142cc565b506080820151816004019080519060200190611a799291906142cc565b5060a08201518160050160006101000a81548160ff02191690831515021790555060c08201518160050160016101000a81548160ff02191690831515021790555060e08201518160050160026101000a81548160ff02191690831515021790555061010082015181600601556101208201518160070160006101000a81548160ff02191690836001811115611b37577f4e487b7100000000000000000000000000000000000000000000000000000000600052602160045260246000fd5b0217905550905050600d6015600089815260200190815260200160002060008201548160000155600182015481600101556002820160009054906101000a900473ffffffffffffffffffffffffffffffffffffffff168160020160006101000a81548173ffffffffffffffffffffffffffffffffffffffff021916908373ffffffffffffffffffffffffffffffffffffffff1602179055506003820181600301908054611be3906156c7565b611bee929190614352565b506004820181600401908054611c03906156c7565b611c0e929190614352565b506005820160009054906101000a900460ff168160050160006101000a81548160ff0219169083151502179055506005820160019054906101000a900460ff168160050160016101000a81548160ff0219169083151502179055506005820160029054906101000a900460ff168160050160026101000a81548160ff021916908315150217905550600682015481600601556007820160009054906101000a900460ff168160070160006101000a81548160ff02191690836001811115611cfe577f4e487b7100000000000000000000000000000000000000000000000000000000600052602160045260246000fd5b0217905550905050601760008981526020019081526020016000208790806001815401808255809150506001900390600052602060002001600090919091909150556001601660008a81526020019081526020016000206000828254611d6491906154af565b92505081905550505050505050505050565b6001816000016000828254019250508190555050565b611dae611d97611849565b8383604051806020016040528060008152506127a2565b5050565b60006015600083815260200190815260200160002060070160006101000a81548160ff02191690836001811115611e12577f4e487b7100000000000000000000000000000000000000000000000000000000600052602160045260246000fd5b021790555050565b611e3c611e25611849565b8383604051806020016040528060008152506127fe565b5050565b611e4b83838361285a565b611e818260196000868152602001908152602001600020600084815260200190815260200160002061294f90919063ffffffff16565b50505050565b600073ffffffffffffffffffffffffffffffffffffffff168473ffffffffffffffffffffffffffffffffffffffff161415611ef7576040517f08c379a0000000000000000000000000000000000000000000000000000000008152600401611eee906151cb565b60405180910390fd5b6040518061010001604052808781526020018681526020018573ffffffffffffffffffffffffffffffffffffffff168152602001848152602001838152602001828152602001428152602001600180811115611f7c577f4e487b7100000000000000000000000000000000000000000000000000000000600052602160045260246000fd5b81525060008082015181600001556020820151816001015560408201518160020160006101000a81548173ffffffffffffffffffffffffffffffffffffffff021916908373ffffffffffffffffffffffffffffffffffffffff1602179055506060820151816003019080519060200190611ff79291906142cc565b5060808201518160040190805190602001906120149291906142cc565b5060a08201518160050190805190602001906120319291906142cc565b5060c0820151816006015560e08201518160070160006101000a81548160ff0219169083600181111561208d577f4e487b7100000000000000000000000000000000000000000000000000000000600052602160045260246000fd5b021790555090505060006009600088815260200190815260200160002060008201548160000155600182015481600101556002820160009054906101000a900473ffffffffffffffffffffffffffffffffffffffff168160020160006101000a81548173ffffffffffffffffffffffffffffffffffffffff021916908373ffffffffffffffffffffffffffffffffffffffff1602179055506003820181600301908054612139906156c7565b612144929190614352565b506004820181600401908054612159906156c7565b612164929190614352565b506005820181600501908054612179906156c7565b612184929190614352565b50600682015481600601556007820160009054906101000a900460ff168160070160006101000a81548160ff021916908360018111156121ed577f4e487b7100000000000000000000000000000000000000000000000000000000600052602160045260246000fd5b0217905550905050600b60008573ffffffffffffffffffffffffffffffffffffffff1673ffffffffffffffffffffffffffffffffffffffff168152602001908152602001600020869080600181540180825580915050600190039060005260206000200160009091909190915055600c600086815260200190815260200160002086908060018154018082558091505060019003906000526020600020016000909190919091505561229f848761297f565b505050505050565b6122b56000801b8383611802565b5050565b604051806080016040528082815260200185815260200184815260200183815250601a6000820151816000015560208201518160010190805190602001906123029291906142cc565b50604082015181600201908051906020019061231f9291906142cc565b50606082015181600301908051906020019061233c9291906142cc565b50905050601a601f6000838152602001908152602001600020600082015481600001556001820181600101908054612373906156c7565b61237e929190614352565b506002820181600201908054612393906156c7565b61239e929190614352565b5060038201816003019080546123b3906156c7565b6123be929190614352565b509050506022819080600181540180825580915050600190039060005260206000200160009091909190915055602160008673ffffffffffffffffffffffffffffffffffffffff1673ffffffffffffffffffffffffffffffffffffffff16815260200190815260200160002081908060018154018082558091505060019003906000526020600020016000909190919091505561245b8582612ab4565b5050505050565b600061247082600001612be9565b9050919050565b600061248282610d80565b905061249081600084612bfa565b6001602060008373ffffffffffffffffffffffffffffffffffffffff1673ffffffffffffffffffffffffffffffffffffffff16815260200190815260200160002060008282546124e0919061555f565b92505081905550601e600083815260200190815260200160002060006101000a81549073ffffffffffffffffffffffffffffffffffffffff0219169055601f600083815260200190815260200160002060008082016000905560018201600061254991906143df565b60028201600061255991906143df565b60038201600061256991906143df565b505061257482612bff565b61257e8183612c80565b61258a81600084612d7d565b5050565b61259983838361092b565b612628576125be8273ffffffffffffffffffffffffffffffffffffffff166014612d82565b6125cc8460001c6020612d82565b6040516020016125dd929190614e1d565b6040516020818303038152906040526040517f08c379a000000000000000000000000000000000000000000000000000000000815260040161261f9190614f89565b60405180910390fd5b505050565b61263883838361092b565b61271c57600160186000858152602001908152602001600020600083815260200190815260200160002060000160008473ffffffffffffffffffffffffffffffffffffffff1673ffffffffffffffffffffffffffffffffffffffff16815260200190815260200160002060006101000a81548160ff0219169083151502179055506126c1611849565b73ffffffffffffffffffffffffffffffffffffffff168273ffffffffffffffffffffffffffffffffffffffff16847f2f8788117e7eff1d82e926ec794901d17c78024a50270940304540a733656f0d60405160405180910390a45b505050565b6000612749836000018373ffffffffffffffffffffffffffffffffffffffff1660001b61307c565b905092915050565b600082600001828154811061278f577f4e487b7100000000000000000000000000000000000000000000000000000000600052603260045260246000fd5b9060005260206000200154905092915050565b6127ad8484846130ec565b6127b9848484846133ca565b6127f8576040517f08c379a00000000000000000000000000000000000000000000000000000000081526004016127ef9061506b565b60405180910390fd5b50505050565b612809848484613561565b612815848484846137d2565b612854576040517f08c379a000000000000000000000000000000000000000000000000000000000815260040161284b9061510b565b60405180910390fd5b50505050565b61286583838361092b565b1561294a57600060186000858152602001908152602001600020600083815260200190815260200160002060000160008473ffffffffffffffffffffffffffffffffffffffff1673ffffffffffffffffffffffffffffffffffffffff16815260200190815260200160002060006101000a81548160ff0219169083151502179055506128ef611849565b73ffffffffffffffffffffffffffffffffffffffff168273ffffffffffffffffffffffffffffffffffffffff16847ff6391f5c32d9c69d2a47ea670b442974b53935d1edc7fd64eb21e047a839171b60405160405180910390a45b505050565b6000612977836000018373ffffffffffffffffffffffffffffffffffffffff1660001b613969565b905092915050565b600073ffffffffffffffffffffffffffffffffffffffff168273ffffffffffffffffffffffffffffffffffffffff1614156129ef576040517f08c379a00000000000000000000000000000000000000000000000000000000081526004016129e6906151cb565b60405180910390fd5b6129fb60008383613aef565b816008600083815260200190815260200160002060006101000a81548173ffffffffffffffffffffffffffffffffffffffff021916908373ffffffffffffffffffffffffffffffffffffffff1602179055506001600a60008473ffffffffffffffffffffffffffffffffffffffff1673ffffffffffffffffffffffffffffffffffffffff1681526020019081526020016000206000828254612a9d91906154af565b92505081905550612ab060008383613af4565b5050565b600073ffffffffffffffffffffffffffffffffffffffff168273ffffffffffffffffffffffffffffffffffffffff161415612b24576040517f08c379a0000000000000000000000000000000000000000000000000000000008152600401612b1b906151cb565b60405180910390fd5b612b3060008383612bfa565b6001602060008473ffffffffffffffffffffffffffffffffffffffff1673ffffffffffffffffffffffffffffffffffffffff1681526020019081526020016000206000828254612b8091906154af565b9250508190555081601e600083815260200190815260200160002060006101000a81548173ffffffffffffffffffffffffffffffffffffffff021916908373ffffffffffffffffffffffffffffffffffffffff160217905550612be560008383612d7d565b5050565b600081600001805490509050919050565b505050565b60005b602280549050811015612c7c578160228281548110612c4a577f4e487b7100000000000000000000000000000000000000000000000000000000600052603260045260246000fd5b90600052602060002001541415612c6957612c6481613af9565b612c7c565b8080612c749061572a565b915050612c02565b5050565b60005b602160008473ffffffffffffffffffffffffffffffffffffffff1673ffffffffffffffffffffffffffffffffffffffff16815260200190815260200160002080549050811015612d785781602160008573ffffffffffffffffffffffffffffffffffffffff1673ffffffffffffffffffffffffffffffffffffffff1681526020019081526020016000208281548110612d45577f4e487b7100000000000000000000000000000000000000000000000000000000600052603260045260246000fd5b90600052602060002001541415612d6557612d608382613c5d565b612d78565b8080612d709061572a565b915050612c83565b505050565b505050565b606060006002836002612d959190615505565b612d9f91906154af565b67ffffffffffffffff811115612dde577f4e487b7100000000000000000000000000000000000000000000000000000000600052604160045260246000fd5b6040519080825280601f01601f191660200182016040528015612e105781602001600182028036833780820191505090505b5090507f300000000000000000000000000000000000000000000000000000000000000081600081518110612e6e577f4e487b7100000000000000000000000000000000000000000000000000000000600052603260045260246000fd5b60200101907effffffffffffffffffffffffffffffffffffffffffffffffffffffffffffff1916908160001a9053507f780000000000000000000000000000000000000000000000000000000000000081600181518110612ef8577f4e487b7100000000000000000000000000000000000000000000000000000000600052603260045260246000fd5b60200101907effffffffffffffffffffffffffffffffffffffffffffffffffffffffffffff1916908160001a90535060006001846002612f389190615505565b612f4291906154af565b90505b600181111561302e577f3031323334353637383961626364656600000000000000000000000000000000600f861660108110612faa577f4e487b7100000000000000000000000000000000000000000000000000000000600052603260045260246000fd5b1a60f81b828281518110612fe7577f4e487b7100000000000000000000000000000000000000000000000000000000600052603260045260246000fd5b60200101907effffffffffffffffffffffffffffffffffffffffffffffffffffffffffffff1916908160001a905350600485901c9450806130279061569d565b9050612f45565b5060008414613072576040517f08c379a000000000000000000000000000000000000000000000000000000000815260040161306990614fab565b60405180910390fd5b8091505092915050565b60006130888383613ef3565b6130e15782600001829080600181540180825580915050600190039060005260206000200160009091909190915055826000018054905083600101600084815260200190815260200160002081905550600190506130e6565b600090505b92915050565b8273ffffffffffffffffffffffffffffffffffffffff1661310c82610d80565b73ffffffffffffffffffffffffffffffffffffffff1614613162576040517f08c379a0000000000000000000000000000000000000000000000000000000008152600401613159906150cb565b60405180910390fd5b600073ffffffffffffffffffffffffffffffffffffffff168273ffffffffffffffffffffffffffffffffffffffff1614156131d2576040517f08c379a00000000000000000000000000000000000000000000000000000000081526004016131c9906151eb565b60405180910390fd5b6131dd838383612bfa565b6131e681612bff565b60228190806001815401808255809150506001900390600052602060002001600090919091909150556132198382612c80565b602160008373ffffffffffffffffffffffffffffffffffffffff1673ffffffffffffffffffffffffffffffffffffffff1681526020019081526020016000208190806001815401808255809150506001900390600052602060002001600090919091909150556001602060008573ffffffffffffffffffffffffffffffffffffffff1673ffffffffffffffffffffffffffffffffffffffff16815260200190815260200160002060008282546132cf919061555f565b925050819055506001602060008473ffffffffffffffffffffffffffffffffffffffff1673ffffffffffffffffffffffffffffffffffffffff168152602001908152602001600020600082825461332691906154af565b9250508190555081601e600083815260200190815260200160002060006101000a81548173ffffffffffffffffffffffffffffffffffffffff021916908373ffffffffffffffffffffffffffffffffffffffff1602179055507f28a7bb89184e38b25c8ac71cd1d0d14acf8af5bfa3e7bda868b4f646a238115e8383836040516133b293929190614ebe565b60405180910390a16133c5838383612d7d565b505050565b60006133eb8473ffffffffffffffffffffffffffffffffffffffff16613f16565b15613554578373ffffffffffffffffffffffffffffffffffffffff166395569490613414611849565b8786866040518563ffffffff1660e01b81526004016134369493929190614e72565b602060405180830381600087803b15801561345057600080fd5b505af192505050801561348157506040513d601f19601f8201168201806040525081019061347e919061464c565b60015b613504573d80600081146134b1576040519150601f19603f3d011682016040523d82523d6000602084013e6134b6565b606091505b506000815114156134fc576040517f08c379a00000000000000000000000000000000000000000000000000000000081526004016134f39061516b565b60405180910390fd5b805181602001fd5b639556949060e01b7bffffffffffffffffffffffffffffffffffffffffffffffffffffffff1916817bffffffffffffffffffffffffffffffffffffffffffffffffffffffff191614915050613559565b600190505b949350505050565b8273ffffffffffffffffffffffffffffffffffffffff1661358182610ac1565b73ffffffffffffffffffffffffffffffffffffffff16146135d7576040517f08c379a00000000000000000000000000000000000000000000000000000000081526004016135ce906150ab565b60405180910390fd5b600073ffffffffffffffffffffffffffffffffffffffff168273ffffffffffffffffffffffffffffffffffffffff161415613647576040517f08c379a000000000000000000000000000000000000000000000000000000000815260040161363e906151eb565b60405180910390fd5b613652838383613aef565b61365c8382613f39565b600b60008373ffffffffffffffffffffffffffffffffffffffff1673ffffffffffffffffffffffffffffffffffffffff1681526020019081526020016000208190806001815401808255809150506001900390600052602060002001600090919091909150556001600a60008573ffffffffffffffffffffffffffffffffffffffff1673ffffffffffffffffffffffffffffffffffffffff1681526020019081526020016000206000828254613712919061555f565b925050819055506001600a60008473ffffffffffffffffffffffffffffffffffffffff1673ffffffffffffffffffffffffffffffffffffffff168152602001908152602001600020600082825461376991906154af565b92505081905550816008600083815260200190815260200160002060006101000a81548173ffffffffffffffffffffffffffffffffffffffff021916908373ffffffffffffffffffffffffffffffffffffffff1602179055506137cd838383613af4565b505050565b60006137f38473ffffffffffffffffffffffffffffffffffffffff16613f16565b1561395c578373ffffffffffffffffffffffffffffffffffffffff166310a85a7d61381c611849565b8786866040518563ffffffff1660e01b815260040161383e9493929190614e72565b602060405180830381600087803b15801561385857600080fd5b505af192505050801561388957506040513d601f19601f82011682018060405250810190613886919061464c565b60015b61390c573d80600081146138b9576040519150601f19603f3d011682016040523d82523d6000602084013e6138be565b606091505b50600081511415613904576040517f08c379a00000000000000000000000000000000000000000000000000000000081526004016138fb9061516b565b60405180910390fd5b805181602001fd5b6310a85a7d60e01b7bffffffffffffffffffffffffffffffffffffffffffffffffffffffff1916817bffffffffffffffffffffffffffffffffffffffffffffffffffffffff191614915050613961565b600190505b949350505050565b60008083600101600084815260200190815260200160002054905060008114613ae357600060018261399b919061555f565b90506000600186600001805490506139b3919061555f565b9050818114613a6e5760008660000182815481106139fa577f4e487b7100000000000000000000000000000000000000000000000000000000600052603260045260246000fd5b9060005260206000200154905080876000018481548110613a44577f4e487b7100000000000000000000000000000000000000000000000000000000600052603260045260246000fd5b90600052602060002001819055508387600101600083815260200190815260200160002081905550505b85600001805480613aa8577f4e487b7100000000000000000000000000000000000000000000000000000000600052603160045260246000fd5b600190038181906000526020600020016000905590558560010160008681526020019081526020016000206000905560019350505050613ae9565b60009150505b92915050565b505050565b505050565b6022805490508110613b40576040517f08c379a0000000000000000000000000000000000000000000000000000000008152600401613b379061514b565b60405180910390fd5b60008190505b6001602280549050613b58919061555f565b811015613c0b576022600182613b6e91906154af565b81548110613ba5577f4e487b7100000000000000000000000000000000000000000000000000000000600052603260045260246000fd5b906000526020600020015460228281548110613bea577f4e487b7100000000000000000000000000000000000000000000000000000000600052603260045260246000fd5b90600052602060002001819055508080613c039061572a565b915050613b46565b506022805480613c44577f4e487b7100000000000000000000000000000000000000000000000000000000600052603160045260246000fd5b6001900381819060005260206000200160009055905550565b602160008373ffffffffffffffffffffffffffffffffffffffff1673ffffffffffffffffffffffffffffffffffffffff168152602001908152602001600020805490508110613ce1576040517f08c379a0000000000000000000000000000000000000000000000000000000008152600401613cd89061514b565b60405180910390fd5b60008190505b6001602160008573ffffffffffffffffffffffffffffffffffffffff1673ffffffffffffffffffffffffffffffffffffffff16815260200190815260200160002080549050613d36919061555f565b811015613e6357602160008473ffffffffffffffffffffffffffffffffffffffff1673ffffffffffffffffffffffffffffffffffffffff168152602001908152602001600020600182613d8991906154af565b81548110613dc0577f4e487b7100000000000000000000000000000000000000000000000000000000600052603260045260246000fd5b9060005260206000200154602160008573ffffffffffffffffffffffffffffffffffffffff1673ffffffffffffffffffffffffffffffffffffffff1681526020019081526020016000208281548110613e42577f4e487b7100000000000000000000000000000000000000000000000000000000600052603260045260246000fd5b90600052602060002001819055508080613e5b9061572a565b915050613ce7565b50602160008373ffffffffffffffffffffffffffffffffffffffff1673ffffffffffffffffffffffffffffffffffffffff168152602001908152602001600020805480613ed9577f4e487b7100000000000000000000000000000000000000000000000000000000600052603160045260246000fd5b600190038181906000526020600020016000905590555050565b600080836001016000848152602001908152602001600020541415905092915050565b6000808273ffffffffffffffffffffffffffffffffffffffff163b119050919050565b60005b600b60008473ffffffffffffffffffffffffffffffffffffffff1673ffffffffffffffffffffffffffffffffffffffff168152602001908152602001600020805490508110156140315781600b60008573ffffffffffffffffffffffffffffffffffffffff1673ffffffffffffffffffffffffffffffffffffffff1681526020019081526020016000208281548110613ffe577f4e487b7100000000000000000000000000000000000000000000000000000000600052603260045260246000fd5b9060005260206000200154141561401e576140198382614036565b614031565b80806140299061572a565b915050613f3c565b505050565b600b60008373ffffffffffffffffffffffffffffffffffffffff1673ffffffffffffffffffffffffffffffffffffffff1681526020019081526020016000208054905081106140ba576040517f08c379a00000000000000000000000000000000000000000000000000000000081526004016140b19061514b565b60405180910390fd5b60008190505b6001600b60008573ffffffffffffffffffffffffffffffffffffffff1673ffffffffffffffffffffffffffffffffffffffff1681526020019081526020016000208054905061410f919061555f565b81101561423c57600b60008473ffffffffffffffffffffffffffffffffffffffff1673ffffffffffffffffffffffffffffffffffffffff16815260200190815260200160002060018261416291906154af565b81548110614199577f4e487b7100000000000000000000000000000000000000000000000000000000600052603260045260246000fd5b9060005260206000200154600b60008573ffffffffffffffffffffffffffffffffffffffff1673ffffffffffffffffffffffffffffffffffffffff168152602001908152602001600020828154811061421b577f4e487b7100000000000000000000000000000000000000000000000000000000600052603260045260246000fd5b906000526020600020018190555080806142349061572a565b9150506140c0565b50600b60008373ffffffffffffffffffffffffffffffffffffffff1673ffffffffffffffffffffffffffffffffffffffff1681526020019081526020016000208054806142b2577f4e487b7100000000000000000000000000000000000000000000000000000000600052603160045260246000fd5b600190038181906000526020600020016000905590555050565b8280546142d8906156c7565b90600052602060002090601f0160209004810192826142fa5760008555614341565b82601f1061431357805160ff1916838001178555614341565b82800160010185558215614341579182015b82811115614340578251825591602001919060010190614325565b5b50905061434e919061441f565b5090565b82805461435e906156c7565b90600052602060002090601f01602090048101928261438057600085556143ce565b82601f1061439157805485556143ce565b828001600101855582156143ce57600052602060002091601f016020900482015b828111156143cd5782548255916001019190600101906143b2565b5b5090506143db919061441f565b5090565b5080546143eb906156c7565b6000825580601f106143fd575061441c565b601f01602090049060005260206000209081019061441b919061441f565b5b50565b5b80821115614438576000816000905550600101614420565b5090565b600061444f61444a84615402565b6153dd565b90508281526020810184848401111561446757600080fd5b61447284828561565b565b509392505050565b60008135905061448981615e05565b92915050565b60008135905061449e81615e1c565b92915050565b6000813590506144b381615e33565b92915050565b6000815190506144c881615e4a565b92915050565b600082601f8301126144df57600080fd5b81356144ef84826020860161443c565b91505092915050565b60008135905061450781615e61565b92915050565b60006020828403121561451f57600080fd5b600061452d8482850161447a565b91505092915050565b6000806040838503121561454957600080fd5b60006145578582860161447a565b9250506020614568858286016144f8565b9150509250929050565b60008060006060848603121561458757600080fd5b6000614595868287016144a4565b93505060206145a68682870161447a565b92505060406145b7868287016144f8565b9150509250925092565b600080604083850312156145d457600080fd5b60006145e2858286016144a4565b92505060206145f3858286016144f8565b9150509250929050565b60008060006060848603121561461257600080fd5b6000614620868287016144a4565b9350506020614631868287016144f8565b9250506040614642868287016144f8565b9150509250925092565b60006020828403121561465e57600080fd5b600061466c848285016144b9565b91505092915050565b60008060006060848603121561468a57600080fd5b600084013567ffffffffffffffff8111156146a457600080fd5b6146b0868287016144ce565b935050602084013567ffffffffffffffff8111156146cd57600080fd5b6146d9868287016144ce565b925050604084013567ffffffffffffffff8111156146f657600080fd5b614702868287016144ce565b9150509250925092565b60006020828403121561471e57600080fd5b600061472c848285016144f8565b91505092915050565b6000806040838503121561474857600080fd5b6000614756858286016144f8565b92505060206147678582860161447a565b9150509250929050565b600080600080600060a0868803121561478957600080fd5b6000614797888289016144f8565b95505060206147a88882890161447a565b945050604086013567ffffffffffffffff8111156147c557600080fd5b6147d1888289016144ce565b935050606086013567ffffffffffffffff8111156147ee57600080fd5b6147fa888289016144ce565b925050608086013567ffffffffffffffff81111561481757600080fd5b614823888289016144ce565b9150509295509295909350565b6000806040838503121561484357600080fd5b6000614851858286016144f8565b92505060206148628582860161448f565b9150509250929050565b600080600080600080600060e0888a03121561488757600080fd5b60006148958a828b016144f8565b975050602088013567ffffffffffffffff8111156148b257600080fd5b6148be8a828b016144ce565b965050604088013567ffffffffffffffff8111156148db57600080fd5b6148e78a828b016144ce565b95505060606148f88a828b0161448f565b94505060806149098a828b0161448f565b93505060a061491a8a828b0161448f565b92505060c061492b8a828b016144f8565b91505092959891949750929550565b6000806040838503121561494d57600080fd5b600061495b858286016144f8565b925050602061496c858286016144f8565b9150509250929050565b60006149828383614dff565b60208301905092915050565b61499781615593565b82525050565b60006149a882615443565b6149b28185615471565b93506149bd83615433565b8060005b838110156149ee5781516149d58882614976565b97506149e083615464565b9250506001810190506149c1565b5085935050505092915050565b614a04816155a5565b82525050565b614a13816155b1565b82525050565b6000614a248261544e565b614a2e8185615482565b9350614a3e81856020860161566a565b614a478161582f565b840191505092915050565b614a5b81615637565b82525050565b614a6a81615649565b82525050565b6000614a7b82615459565b614a858185615493565b9350614a9581856020860161566a565b614a9e8161582f565b840191505092915050565b6000614ab482615459565b614abe81856154a4565b9350614ace81856020860161566a565b80840191505092915050565b6000614ae7602083615493565b9150614af282615840565b602082019050919050565b6000614b0a603e83615493565b9150614b1582615869565b604082019050919050565b6000614b2d602683615493565b9150614b38826158b8565b604082019050919050565b6000614b50602183615493565b9150614b5b82615907565b604082019050919050565b6000614b73601283615493565b9150614b7e82615956565b602082019050919050565b6000614b96603e83615493565b9150614ba18261597f565b604082019050919050565b6000614bb9602783615493565b9150614bc4826159ce565b604082019050919050565b6000614bdc602a83615493565b9150614be782615a1d565b604082019050919050565b6000614bff602883615493565b9150614c0a82615a6c565b604082019050919050565b6000614c22602283615493565b9150614c2d82615abb565b604082019050919050565b6000614c45602883615493565b9150614c5082615b0a565b604082019050919050565b6000614c68603083615493565b9150614c7382615b59565b604082019050919050565b6000614c8b602183615493565b9150614c9682615ba8565b604082019050919050565b6000614cae601283615493565b9150614cb982615bf7565b602082019050919050565b6000614cd1602c83615493565b9150614cdc82615c20565b604082019050919050565b6000614cf4600a83615493565b9150614cff82615c6f565b602082019050919050565b6000614d17601283615493565b9150614d2282615c98565b602082019050919050565b6000614d3a601a83615493565b9150614d4582615cc1565b602082019050919050565b6000614d5d601b83615493565b9150614d6882615cea565b602082019050919050565b6000614d80602183615493565b9150614d8b82615d13565b604082019050919050565b6000614da3601583615493565b9150614dae82615d62565b602082019050919050565b6000614dc66017836154a4565b9150614dd182615d8b565b601782019050919050565b6000614de96011836154a4565b9150614df482615db4565b601182019050919050565b614e088161562d565b82525050565b614e178161562d565b82525050565b6000614e2882614db9565b9150614e348285614aa9565b9150614e3f82614ddc565b9150614e4b8284614aa9565b91508190509392505050565b6000602082019050614e6c600083018461498e565b92915050565b6000608082019050614e87600083018761498e565b614e94602083018661498e565b614ea16040830185614e0e565b8181036060830152614eb38184614a19565b905095945050505050565b6000608082019050614ed3600083018661498e565b614ee0602083018561498e565b614eed6040830184614e0e565b8181036060830152614efe81614d50565b9050949350505050565b6000604082019050614f1d600083018561498e565b614f2a6020830184614e0e565b9392505050565b60006020820190508181036000830152614f4b818461499d565b905092915050565b6000602082019050614f6860008301846149fb565b92915050565b6000602082019050614f836000830184614a0a565b92915050565b60006020820190508181036000830152614fa38184614a70565b905092915050565b60006020820190508181036000830152614fc481614ada565b9050919050565b60006020820190508181036000830152614fe481614afd565b9050919050565b6000602082019050818103600083015261500481614b20565b9050919050565b6000602082019050818103600083015261502481614b43565b9050919050565b6000602082019050818103600083015261504481614b66565b9050919050565b6000602082019050818103600083015261506481614b89565b9050919050565b6000602082019050818103600083015261508481614bac565b9050919050565b600060208201905081810360008301526150a481614bcf565b9050919050565b600060208201905081810360008301526150c481614bf2565b9050919050565b600060208201905081810360008301526150e481614c15565b9050919050565b6000602082019050818103600083015261510481614c38565b9050919050565b6000602082019050818103600083015261512481614c5b565b9050919050565b6000602082019050818103600083015261514481614c7e565b9050919050565b6000602082019050818103600083015261516481614ca1565b9050919050565b6000602082019050818103600083015261518481614cc4565b9050919050565b600060208201905081810360008301526151a481614ce7565b9050919050565b600060208201905081810360008301526151c481614d0a565b9050919050565b600060208201905081810360008301526151e481614d2d565b9050919050565b6000602082019050818103600083015261520481614d73565b9050919050565b6000602082019050818103600083015261522481614d96565b9050919050565b60006020820190506152406000830184614e0e565b92915050565b600060808201905061525b6000830187614e0e565b818103602083015261526d8186614a70565b905081810360408301526152818185614a70565b905081810360608301526152958184614a70565b905095945050505050565b6000610140820190506152b6600083018d614e0e565b6152c3602083018c614e0e565b6152d0604083018b61498e565b81810360608301526152e2818a614a70565b905081810360808301526152f68189614a70565b905061530560a08301886149fb565b61531260c08301876149fb565b61531f60e08301866149fb565b61532d610100830185614e0e565b61533b610120830184614a61565b9b9a5050505050505050505050565b600061010082019050615360600083018b614e0e565b61536d602083018a614e0e565b61537a604083018961498e565b818103606083015261538c8188614a70565b905081810360808301526153a08187614a70565b905081810360a08301526153b48186614a70565b90506153c360c0830185614e0e565b6153d060e0830184614a52565b9998505050505050505050565b60006153e76153f8565b90506153f382826156f9565b919050565b6000604051905090565b600067ffffffffffffffff82111561541d5761541c615800565b5b6154268261582f565b9050602081019050919050565b6000819050602082019050919050565b600081519050919050565b600081519050919050565b600081519050919050565b6000602082019050919050565b600082825260208201905092915050565b600082825260208201905092915050565b600082825260208201905092915050565b600081905092915050565b60006154ba8261562d565b91506154c58361562d565b9250827fffffffffffffffffffffffffffffffffffffffffffffffffffffffffffffffff038211156154fa576154f9615773565b5b828201905092915050565b60006155108261562d565b915061551b8361562d565b9250817fffffffffffffffffffffffffffffffffffffffffffffffffffffffffffffffff048311821515161561555457615553615773565b5b828202905092915050565b600061556a8261562d565b91506155758361562d565b92508282101561558857615587615773565b5b828203905092915050565b600061559e8261560d565b9050919050565b60008115159050919050565b6000819050919050565b60007fffffffff0000000000000000000000000000000000000000000000000000000082169050919050565b60008190506155f582615ddd565b919050565b600081905061560882615df1565b919050565b600073ffffffffffffffffffffffffffffffffffffffff82169050919050565b6000819050919050565b6000615642826155e7565b9050919050565b6000615654826155fa565b9050919050565b82818337600083830152505050565b60005b8381101561568857808201518184015260208101905061566d565b83811115615697576000848401525b50505050565b60006156a88261562d565b915060008214156156bc576156bb615773565b5b600182039050919050565b600060028204905060018216806156df57607f821691505b602082108114156156f3576156f26157d1565b5b50919050565b6157028261582f565b810181811067ffffffffffffffff8211171561572157615720615800565b5b80604052505050565b60006157358261562d565b91507fffffffffffffffffffffffffffffffffffffffffffffffffffffffffffffffff82141561576857615767615773565b5b600182019050919050565b7f4e487b7100000000000000000000000000000000000000000000000000000000600052601160045260246000fd5b7f4e487b7100000000000000000000000000000000000000000000000000000000600052602160045260246000fd5b7f4e487b7100000000000000000000000000000000000000000000000000000000600052602260045260246000fd5b7f4e487b7100000000000000000000000000000000000000000000000000000000600052604160045260246000fd5b6000601f19601f8301169050919050565b7f537472696e67733a20686578206c656e67746820696e73756666696369656e74600082015250565b7f6d75737420686176652041646d696e20726f6c6520696e206f7267616e617a6160008201527f74696f6e20746f2064656c6574652063726564656e7469616c20747970650000602082015250565b7f6f776e657220717565727920666f72206e6f6e6578697374656e74206372656460008201527f656e7469616c0000000000000000000000000000000000000000000000000000602082015250565b7f61646472657373207a65726f206973206e6f7420612076616c6964206f776e6560008201527f7200000000000000000000000000000000000000000000000000000000000000602082015250565b7f6e6f74207265766f6b61626c6520747970650000000000000000000000000000600082015250565b7f6d75737420686176652041646d696e20726f6c6520696e206f7267616e617a6160008201527f74696f6e20746f206372656174652063726564656e7469616c20747970650000602082015250565b7f7472616e7366657220746f206e6f6e204f5247526563656976657220696d706c60008201527f656d656e74657200000000000000000000000000000000000000000000000000602082015250565b7f6d75737420686176652041646d696e20726f6c6520746f207472616e7366657260008201527f206f7267617a61696f6e00000000000000000000000000000000000000000000602082015250565b7f43726564656e7469613a207472616e736665722066726f6d20696e636f72726560008201527f6374206f776e6572000000000000000000000000000000000000000000000000602082015250565b7f4f52473a207472616e736665722066726f6d20696e636f7272656374206f776e60008201527f6572000000000000000000000000000000000000000000000000000000000000602082015250565b7f6d75737420686176652041646d696e20726f6c6520746f2064656c657465206f60008201527f7267617a61696f6e000000000000000000000000000000000000000000000000602082015250565b7f7472616e7366657220746f206e6f6e204f6e43726564656e746961526563656960008201527f7665642020696d706c656d656e74657200000000000000000000000000000000602082015250565b7f6f776e657220717565727920666f72206e6f6e6578697374656e7420746f6b6560008201527f6e00000000000000000000000000000000000000000000000000000000000000602082015250565b7f696e646578206f7574206f6620626f756e640000000000000000000000000000600082015250565b7f4f52473a207472616e7366657220746f206e6f6e204f5247526563656976657260008201527f20696d706c656d656e7465720000000000000000000000000000000000000000602082015250565b7f6f6e6c79206f776e657200000000000000000000000000000000000000000000600082015250565b7f6d757374206265206f7267206d656d6265720000000000000000000000000000600082015250565b7f63726561746520746f20746865207a65726f2061646472657373000000000000600082015250565b7f6f726167616e617a6174696f6e2068617665207472616e736665720000000000600082015250565b7f4f52473a207472616e7366657220746f20746865207a65726f2061646472657360008201527f7300000000000000000000000000000000000000000000000000000000000000602082015250565b7f6e6f74207472616e7366657261626c6520747970650000000000000000000000600082015250565b7f416363657373436f6e74726f6c3a206163636f756e7420000000000000000000600082015250565b7f206973206d697373696e6720726f6c6520000000000000000000000000000000600082015250565b60028110615dee57615ded6157a2565b5b50565b60028110615e0257615e016157a2565b5b50565b615e0e81615593565b8114615e1957600080fd5b50565b615e25816155a5565b8114615e3057600080fd5b50565b615e3c816155b1565b8114615e4757600080fd5b50565b615e53816155bb565b8114615e5e57600080fd5b50565b615e6a8161562d565b8114615e7557600080fd5b5056fea26469706673582212203f36982f267971e5f7669ddb752851e0ee62a4f2ae32a351a078e5d2c581492a64736f6c63430008040033",
  "linkReferences": {},
  "deployedLinkReferences": {}
}