{
  "_format": "hh-sol-artifact-1",
  "contractName": "CTypeManagement",
  "sourceName": "contracts/ctype/CTypeManagement.sol",
  "abi": [
    {
      "anonymous": false,
      "inputs": [
        {
          "indexed": false,
          "internalType": "address",
          "name": "to",
          "type": "address"
        },
        {
          "indexed": false,
          "internalType": "uint256",
          "name": "orgId",
          "type": "uint256"
        },
        {
          "indexed": false,
          "internalType": "string",
          "name": "message",
          "type": "string"
        }
      ],
      "name": "CreateOrganazation",
      "type": "event"
    },
    {
      "anonymous": false,
      "inputs": [
        {
          "indexed": false,
          "internalType": "address",
          "name": "from",
          "type": "address"
        },
        {
          "indexed": false,
          "internalType": "uint256",
          "name": "orgId",
          "type": "uint256"
        },
        {
          "indexed": false,
          "internalType": "string",
          "name": "message",
          "type": "string"
        }
      ],
      "name": "DeleteOrganazation",
      "type": "event"
    },
    {
      "anonymous": false,
      "inputs": [
        {
          "indexed": true,
          "internalType": "bytes32",
          "name": "role",
          "type": "bytes32"
        },
        {
          "indexed": true,
          "internalType": "bytes32",
          "name": "previousAdminRole",
          "type": "bytes32"
        },
        {
          "indexed": true,
          "internalType": "bytes32",
          "name": "newAdminRole",
          "type": "bytes32"
        }
      ],
      "name": "RoleAdminChanged",
      "type": "event"
    },
    {
      "anonymous": false,
      "inputs": [
        {
          "indexed": true,
          "internalType": "bytes32",
          "name": "role",
          "type": "bytes32"
        },
        {
          "indexed": true,
          "internalType": "address",
          "name": "account",
          "type": "address"
        },
        {
          "indexed": true,
          "internalType": "address",
          "name": "sender",
          "type": "address"
        }
      ],
      "name": "RoleGranted",
      "type": "event"
    },
    {
      "anonymous": false,
      "inputs": [
        {
          "indexed": true,
          "internalType": "bytes32",
          "name": "role",
          "type": "bytes32"
        },
        {
          "indexed": true,
          "internalType": "address",
          "name": "account",
          "type": "address"
        },
        {
          "indexed": true,
          "internalType": "address",
          "name": "sender",
          "type": "address"
        }
      ],
      "name": "RoleRevoked",
      "type": "event"
    },
    {
      "anonymous": false,
      "inputs": [
        {
          "indexed": false,
          "internalType": "address",
          "name": "from",
          "type": "address"
        },
        {
          "indexed": false,
          "internalType": "address",
          "name": "to",
          "type": "address"
        },
        {
          "indexed": false,
          "internalType": "uint256",
          "name": "orgId",
          "type": "uint256"
        },
        {
          "indexed": false,
          "internalType": "string",
          "name": "message",
          "type": "string"
        }
      ],
      "name": "TransferOrganazation",
      "type": "event"
    },
    {
      "inputs": [],
      "name": "DEFAULT_ADMIN_ROLE",
      "outputs": [
        {
          "internalType": "bytes32",
          "name": "",
          "type": "bytes32"
        }
      ],
      "stateMutability": "view",
      "type": "function"
    },
    {
      "inputs": [],
      "name": "VERYFYIER_ROLE",
      "outputs": [
        {
          "internalType": "bytes32",
          "name": "",
          "type": "bytes32"
        }
      ],
      "stateMutability": "view",
      "type": "function"
    },
    {
      "inputs": [
        {
          "internalType": "uint256",
          "name": "",
          "type": "uint256"
        }
      ],
      "name": "_CtypeMetadata",
      "outputs": [
        {
          "internalType": "uint256",
          "name": "orgId",
          "type": "uint256"
        },
        {
          "internalType": "uint256",
          "name": "CTypeId",
          "type": "uint256"
        },
        {
          "internalType": "address",
          "name": "issuer",
          "type": "address"
        },
        {
          "internalType": "string",
          "name": "propertiesURI",
          "type": "string"
        },
        {
          "internalType": "string",
          "name": "propertiesHash",
          "type": "string"
        },
        {
          "internalType": "bool",
          "name": "transferable",
          "type": "bool"
        },
        {
          "internalType": "bool",
          "name": "revokable",
          "type": "bool"
        },
        {
          "internalType": "bool",
          "name": "expirable",
          "type": "bool"
        },
        {
          "internalType": "uint256",
          "name": "lifespan",
          "type": "uint256"
        },
        {
          "internalType": "enum CType.credentialTypeStatus",
          "name": "status",
          "type": "uint8"
        }
      ],
      "stateMutability": "view",
      "type": "function"
    },
    {
      "inputs": [
        {
          "internalType": "uint256",
          "name": "",
          "type": "uint256"
        }
      ],
      "name": "_organizationMetadata",
      "outputs": [
        {
          "internalType": "uint256",
          "name": "id",
          "type": "uint256"
        },
        {
          "internalType": "string",
          "name": "name",
          "type": "string"
        },
        {
          "internalType": "string",
          "name": "desc",
          "type": "string"
        },
        {
          "internalType": "string",
          "name": "uri",
          "type": "string"
        }
      ],
      "stateMutability": "view",
      "type": "function"
    },
    {
      "inputs": [
        {
          "internalType": "uint256",
          "name": "organizationId",
          "type": "uint256"
        },
        {
          "internalType": "string",
          "name": "propertiesURI",
          "type": "string"
        },
        {
          "internalType": "string",
          "name": "propertiesHash",
          "type": "string"
        },
        {
          "internalType": "bool",
          "name": "transferable",
          "type": "bool"
        },
        {
          "internalType": "bool",
          "name": "revokable",
          "type": "bool"
        },
        {
          "internalType": "bool",
          "name": "expirable",
          "type": "bool"
        },
        {
          "internalType": "uint256",
          "name": "lifespan",
          "type": "uint256"
        }
      ],
      "name": "createCtype",
      "outputs": [],
      "stateMutability": "nonpayable",
      "type": "function"
    },
    {
      "inputs": [
        {
          "internalType": "string",
          "name": "name",
          "type": "string"
        },
        {
          "internalType": "string",
          "name": "desc",
          "type": "string"
        },
        {
          "internalType": "string",
          "name": "uri",
          "type": "string"
        }
      ],
      "name": "createOrg",
      "outputs": [],
      "stateMutability": "nonpayable",
      "type": "function"
    },
    {
      "inputs": [
        {
          "internalType": "uint256",
          "name": "orgId",
          "type": "uint256"
        }
      ],
      "name": "ctypeLists",
      "outputs": [
        {
          "internalType": "uint256[]",
          "name": "",
          "type": "uint256[]"
        }
      ],
      "stateMutability": "view",
      "type": "function"
    },
    {
      "inputs": [
        {
          "internalType": "uint256",
          "name": "orgId",
          "type": "uint256"
        }
      ],
      "name": "ctypeOf",
      "outputs": [
        {
          "internalType": "uint256",
          "name": "",
          "type": "uint256"
        }
      ],
      "stateMutability": "view",
      "type": "function"
    },
    {
      "inputs": [
        {
          "internalType": "uint256",
          "name": "organizationId",
          "type": "uint256"
        },
        {
          "internalType": "uint256",
          "name": "ctypeId",
          "type": "uint256"
        }
      ],
      "name": "deleteCtype",
      "outputs": [],
      "stateMutability": "nonpayable",
      "type": "function"
    },
    {
      "inputs": [
        {
          "internalType": "uint256",
          "name": "organizationId",
          "type": "uint256"
        }
      ],
      "name": "deleteOrg",
      "outputs": [],
      "stateMutability": "nonpayable",
      "type": "function"
    },
    {
      "inputs": [
        {
          "internalType": "bytes32",
          "name": "role",
          "type": "bytes32"
        },
        {
          "internalType": "uint256",
          "name": "organizationId",
          "type": "uint256"
        }
      ],
      "name": "getRoleAdmin",
      "outputs": [
        {
          "internalType": "bytes32",
          "name": "",
          "type": "bytes32"
        }
      ],
      "stateMutability": "view",
      "type": "function"
    },
    {
      "inputs": [
        {
          "internalType": "bytes32",
          "name": "role",
          "type": "bytes32"
        },
        {
          "internalType": "uint256",
          "name": "index",
          "type": "uint256"
        },
        {
          "internalType": "uint256",
          "name": "organizationId",
          "type": "uint256"
        }
      ],
      "name": "getRoleMember",
      "outputs": [
        {
          "internalType": "address",
          "name": "",
          "type": "address"
        }
      ],
      "stateMutability": "view",
      "type": "function"
    },
    {
      "inputs": [
        {
          "internalType": "bytes32",
          "name": "role",
          "type": "bytes32"
        },
        {
          "internalType": "uint256",
          "name": "organizationId",
          "type": "uint256"
        }
      ],
      "name": "getRoleMemberCount",
      "outputs": [
        {
          "internalType": "uint256",
          "name": "",
          "type": "uint256"
        }
      ],
      "stateMutability": "view",
      "type": "function"
    },
    {
      "inputs": [
        {
          "internalType": "bytes32",
          "name": "role",
          "type": "bytes32"
        },
        {
          "internalType": "address",
          "name": "account",
          "type": "address"
        },
        {
          "internalType": "uint256",
          "name": "organizationId",
          "type": "uint256"
        }
      ],
      "name": "grantRole",
      "outputs": [],
      "stateMutability": "nonpayable",
      "type": "function"
    },
    {
      "inputs": [
        {
          "internalType": "bytes32",
          "name": "role",
          "type": "bytes32"
        },
        {
          "internalType": "address",
          "name": "account",
          "type": "address"
        },
        {
          "internalType": "uint256",
          "name": "organizationId",
          "type": "uint256"
        }
      ],
      "name": "hasRole",
      "outputs": [
        {
          "internalType": "bool",
          "name": "",
          "type": "bool"
        }
      ],
      "stateMutability": "view",
      "type": "function"
    },
    {
      "inputs": [],
      "name": "organizationLists",
      "outputs": [
        {
          "internalType": "uint256[]",
          "name": "",
          "type": "uint256[]"
        }
      ],
      "stateMutability": "view",
      "type": "function"
    },
    {
      "inputs": [
        {
          "internalType": "address",
          "name": "owner",
          "type": "address"
        }
      ],
      "name": "organizationListsByUser",
      "outputs": [
        {
          "internalType": "uint256[]",
          "name": "",
          "type": "uint256[]"
        }
      ],
      "stateMutability": "view",
      "type": "function"
    },
    {
      "inputs": [
        {
          "internalType": "address",
          "name": "owner",
          "type": "address"
        }
      ],
      "name": "organizationOf",
      "outputs": [
        {
          "internalType": "uint256",
          "name": "",
          "type": "uint256"
        }
      ],
      "stateMutability": "view",
      "type": "function"
    },
    {
      "inputs": [
        {
          "internalType": "uint256",
          "name": "organizationId",
          "type": "uint256"
        }
      ],
      "name": "ownerOf",
      "outputs": [
        {
          "internalType": "address",
          "name": "",
          "type": "address"
        }
      ],
      "stateMutability": "view",
      "type": "function"
    },
    {
      "inputs": [
        {
          "internalType": "bytes32",
          "name": "role",
          "type": "bytes32"
        },
        {
          "internalType": "address",
          "name": "account",
          "type": "address"
        },
        {
          "internalType": "uint256",
          "name": "organizationId",
          "type": "uint256"
        }
      ],
      "name": "revokeRole",
      "outputs": [],
      "stateMutability": "nonpayable",
      "type": "function"
    },
    {
      "inputs": [
        {
          "internalType": "address",
          "name": "to",
          "type": "address"
        },
        {
          "internalType": "uint256",
          "name": "organizationId",
          "type": "uint256"
        }
      ],
      "name": "transferOrg",
      "outputs": [],
      "stateMutability": "nonpayable",
      "type": "function"
    }
  ],
  "bytecode": "0x608060405234801561001057600080fd5b5061432d806100206000396000f3fe608060405234801561001057600080fd5b50600436106101375760003560e01c80637771c7fd116100b8578063dcf2ed801161007c578063dcf2ed8014610372578063df2a7fe1146103ab578063e4b3e271146103db578063ec1de9ac146103f7578063ed9813751461042a578063fa05fd431461045a57610137565b80637771c7fd146102d05780638ace51c5146102ec578063a217fddf14610308578063b5d8f2de14610326578063d27efca51461035657610137565b806350eb3fb9116100ff57806350eb3fb9146101f457806358e1ec0c146102245780636352211e14610254578063635b7f5e1461028457806371f6c2f1146102b457610137565b806305bc28f41461013c57806308de6b7d1461015a5780630d26c53b1461018a5780631f9eff9a146101a6578063471c7c8e146101d6575b600080fd5b610144610476565b604051610151919061369b565b60405180910390f35b610174600480360381019061016f9190612e1d565b6104ce565b604051610181919061369b565b60405180910390f35b6101a4600480360381019061019f9190612e82565b6105d5565b005b6101c060048036038101906101bb9190612e82565b6105fc565b6040516101cd91906136bd565b60405180910390f35b6101de610679565b6040516101eb91906136d8565b60405180910390f35b61020e60048036038101906102099190612f0d565b61069d565b60405161021b9190613572565b60405180910390f35b61023e6004803603810190610239919061301c565b6106de565b60405161024b91906138b5565b60405180910390f35b61026e6004803603810190610269919061301c565b6106fb565b60405161027b9190613572565b60405180910390f35b61029e6004803603810190610299919061301c565b6107ad565b6040516102ab919061369b565b60405180910390f35b6102ce60048036038101906102c99190613045565b610818565b005b6102ea60048036038101906102e59190612e46565b6108a0565b005b61030660048036038101906103019190613113565b610902565b005b610310610963565b60405161031d91906136d8565b60405180910390f35b610340600480360381019061033b9190612e1d565b61096a565b60405161034d91906138b5565b60405180910390f35b610370600480360381019061036b9190612e82565b610a22565b005b61038c6004803603810190610387919061301c565b610a49565b6040516103a29a9998979695949392919061392a565b60405180910390f35b6103c560048036038101906103c09190612ed1565b610c01565b6040516103d291906136d8565b60405180910390f35b6103f560048036038101906103f09190612f85565b610c33565b005b610411600480360381019061040c919061301c565b610c79565b60405161042194939291906138d0565b60405180910390f35b610444600480360381019061043f9190612ed1565b610e41565b60405161045191906138b5565b60405180910390f35b610474600480360381019061046f919061301c565b610e77565b005b606060158054806020026020016040519081016040528092919081815260200182805480156104c457602002820191906000526020600020905b8154815260200190600101908083116104b0575b5050505050905090565b6060600073ffffffffffffffffffffffffffffffffffffffff168273ffffffffffffffffffffffffffffffffffffffff161415610540576040517f08c379a000000000000000000000000000000000000000000000000000000000815260040161053790613755565b60405180910390fd5b601460008373ffffffffffffffffffffffffffffffffffffffff1673ffffffffffffffffffffffffffffffffffffffff1681526020019081526020016000208054806020026020016040519081016040528092919081815260200182805480156105c957602002820191906000526020600020905b8154815260200190600101908083116105b5575b50505050509050919050565b6105df8382610c01565b816105ea8282610ed7565b6105f5858585610eed565b5050505050565b6000600b6000858152602001908152602001600020600083815260200190815260200160002060000160008473ffffffffffffffffffffffffffffffffffffffff1673ffffffffffffffffffffffffffffffffffffffff16815260200190815260200160002060009054906101000a900460ff1690509392505050565b7fd16fc3b90ee4c6cd928f9a255fb3210447747361802de487637095cf8348da6781565b60006106d583600c60008781526020019081526020016000206000858152602001908152602001600020610f3490919063ffffffff16565b90509392505050565b600060096000838152602001908152602001600020549050919050565b6000806011600084815260200190815260200160002060009054906101000a900473ffffffffffffffffffffffffffffffffffffffff169050600073ffffffffffffffffffffffffffffffffffffffff168173ffffffffffffffffffffffffffffffffffffffff1614156107a4576040517f08c379a000000000000000000000000000000000000000000000000000000000815260040161079b90613815565b60405180910390fd5b80915050919050565b6060600a600083815260200190815260200160002080548060200260200160405190810160405280929190818152602001828054801561080c57602002820191906000526020600020905b8154815260200190600101908083116107f8575b50505050509050919050565b61082d6000801b610827610f4e565b896105fc565b61086c576040517f08c379a000000000000000000000000000000000000000000000000000000000815260040161086390613775565b60405180910390fd5b61088d610877610f4e565b886108826017610f56565b898989898989610f64565b6108976017611390565b50505050505050565b6108b56000801b6108af610f4e565b836105fc565b6108f4576040517f08c379a00000000000000000000000000000000000000000000000000000000081526004016108eb906137b5565b60405180910390fd5b6108fe82826113a6565b5050565b6109176000801b610911610f4e565b846105fc565b610956576040517f08c379a000000000000000000000000000000000000000000000000000000000815260040161094d90613735565b60405180910390fd5b61095f816113cc565b5050565b6000801b81565b60008073ffffffffffffffffffffffffffffffffffffffff168273ffffffffffffffffffffffffffffffffffffffff1614156109db576040517f08c379a00000000000000000000000000000000000000000000000000000000081526004016109d290613755565b60405180910390fd5b601360008373ffffffffffffffffffffffffffffffffffffffff1673ffffffffffffffffffffffffffffffffffffffff168152602001908152602001600020549050919050565b610a2c8382610c01565b81610a378282610ed7565b610a42858585611434565b5050505050565b60086020528060005260406000206000915090508060000154908060010154908060020160009054906101000a900473ffffffffffffffffffffffffffffffffffffffff1690806003018054610a9e90613c99565b80601f0160208091040260200160405190810160405280929190818152602001828054610aca90613c99565b8015610b175780601f10610aec57610100808354040283529160200191610b17565b820191906000526020600020905b815481529060010190602001808311610afa57829003601f168201915b505050505090806004018054610b2c90613c99565b80601f0160208091040260200160405190810160405280929190818152602001828054610b5890613c99565b8015610ba55780601f10610b7a57610100808354040283529160200191610ba5565b820191906000526020600020905b815481529060010190602001808311610b8857829003601f168201915b5050505050908060050160009054906101000a900460ff16908060050160019054906101000a900460ff16908060050160029054906101000a900460ff16908060060154908060070160009054906101000a900460ff1690508a565b6000600b6000848152602001908152602001600020600083815260200190815260200160002060010154905092915050565b610c4d610c3e610f4e565b610c486016610f56565b61147b565b610c6a610c58610f4e565b848484610c656016610f56565b61148d565b610c746016611390565b505050565b6012602052806000526040600020600091509050806000015490806001018054610ca290613c99565b80601f0160208091040260200160405190810160405280929190818152602001828054610cce90613c99565b8015610d1b5780601f10610cf057610100808354040283529160200191610d1b565b820191906000526020600020905b815481529060010190602001808311610cfe57829003601f168201915b505050505090806002018054610d3090613c99565b80601f0160208091040260200160405190810160405280929190818152602001828054610d5c90613c99565b8015610da95780601f10610d7e57610100808354040283529160200191610da9565b820191906000526020600020905b815481529060010190602001808311610d8c57829003601f168201915b505050505090806003018054610dbe90613c99565b80601f0160208091040260200160405190810160405280929190818152602001828054610dea90613c99565b8015610e375780601f10610e0c57610100808354040283529160200191610e37565b820191906000526020600020905b815481529060010190602001808311610e1a57829003601f168201915b5050505050905084565b6000610e6f600c60008581526020019081526020016000206000848152602001908152602001600020611636565b905092915050565b610e8c6000801b610e86610f4e565b836105fc565b610ecb576040517f08c379a0000000000000000000000000000000000000000000000000000000008152600401610ec2906137f5565b60405180910390fd5b610ed48161164b565b50565b610ee982610ee3610f4e565b8361179b565b5050565b610ef883838361183a565b610f2e82600c6000868152602001908152602001600020600084815260200190815260200160002061192e90919063ffffffff16565b50505050565b6000610f43836000018361195e565b60001c905092915050565b600033905090565b600081600001549050919050565b6040518061014001604052808981526020018881526020018a73ffffffffffffffffffffffffffffffffffffffff168152602001878152602001868152602001851515815260200184151581526020018315158152602001828152602001600180811115610ffb577f4e487b7100000000000000000000000000000000000000000000000000000000600052602160045260246000fd5b81525060008082015181600001556020820151816001015560408201518160020160006101000a81548173ffffffffffffffffffffffffffffffffffffffff021916908373ffffffffffffffffffffffffffffffffffffffff1602179055506060820151816003019080519060200190611076929190612bdc565b506080820151816004019080519060200190611093929190612bdc565b5060a08201518160050160006101000a81548160ff02191690831515021790555060c08201518160050160016101000a81548160ff02191690831515021790555060e08201518160050160026101000a81548160ff02191690831515021790555061010082015181600601556101208201518160070160006101000a81548160ff02191690836001811115611151577f4e487b7100000000000000000000000000000000000000000000000000000000600052602160045260246000fd5b021790555090505060006008600089815260200190815260200160002060008201548160000155600182015481600101556002820160009054906101000a900473ffffffffffffffffffffffffffffffffffffffff168160020160006101000a81548173ffffffffffffffffffffffffffffffffffffffff021916908373ffffffffffffffffffffffffffffffffffffffff16021790555060038201816003019080546111fd90613c99565b611208929190612c62565b50600482018160040190805461121d90613c99565b611228929190612c62565b506005820160009054906101000a900460ff168160050160006101000a81548160ff0219169083151502179055506005820160019054906101000a900460ff168160050160016101000a81548160ff0219169083151502179055506005820160029054906101000a900460ff168160050160026101000a81548160ff021916908315150217905550600682015481600601556007820160009054906101000a900460ff168160070160006101000a81548160ff02191690836001811115611318577f4e487b7100000000000000000000000000000000000000000000000000000000600052602160045260246000fd5b0217905550905050600a60008981526020019081526020016000208790806001815401808255809150506001900390600052602060002001600090919091909150556001600960008a8152602001908152602001600020600082825461137e9190613aa6565b92505081905550505050505050505050565b6001816000016000828254019250508190555050565b6113c86113b1610f4e565b8383604051806020016040528060008152506119af565b5050565b60006008600083815260200190815260200160002060070160006101000a81548160ff0219169083600181111561142c577f4e487b7100000000000000000000000000000000000000000000000000000000600052602160045260246000fd5b021790555050565b61143f838383611a0b565b61147582600c60008681526020019081526020016000206000848152602001908152602001600020611b0090919063ffffffff16565b50505050565b6114896000801b8383610eed565b5050565b604051806080016040528082815260200185815260200184815260200183815250600d6000820151816000015560208201518160010190805190602001906114d6929190612bdc565b5060408201518160020190805190602001906114f3929190612bdc565b506060820151816003019080519060200190611510929190612bdc565b50905050600d6012600083815260200190815260200160002060008201548160000155600182018160010190805461154790613c99565b611552929190612c62565b50600282018160020190805461156790613c99565b611572929190612c62565b50600382018160030190805461158790613c99565b611592929190612c62565b509050506015819080600181540180825580915050600190039060005260206000200160009091909190915055601460008673ffffffffffffffffffffffffffffffffffffffff1673ffffffffffffffffffffffffffffffffffffffff16815260200190815260200160002081908060018154018082558091505060019003906000526020600020016000909190919091505561162f8582611b30565b5050505050565b600061164482600001611c9e565b9050919050565b6000611656826106fb565b905061166481600084611caf565b6001601360008373ffffffffffffffffffffffffffffffffffffffff1673ffffffffffffffffffffffffffffffffffffffff16815260200190815260200160002060008282546116b49190613b56565b925050819055506011600083815260200190815260200160002060006101000a81549073ffffffffffffffffffffffffffffffffffffffff02191690556012600083815260200190815260200160002060008082016000905560018201600061171d9190612cef565b60028201600061172d9190612cef565b60038201600061173d9190612cef565b505061174882611cb4565b6117528183611d35565b7fb96e9e9671568c853f546705289ff8106f51ba021f91e74dcc22e38a5ab422c7818360405161178392919061365f565b60405180910390a161179781600084611e32565b5050565b6117a68383836105fc565b611835576117cb8273ffffffffffffffffffffffffffffffffffffffff166014611e37565b6117d98460001c6020611e37565b6040516020016117ea929190613538565b6040516020818303038152906040526040517f08c379a000000000000000000000000000000000000000000000000000000000815260040161182c91906136f3565b60405180910390fd5b505050565b6118458383836105fc565b611929576001600b6000858152602001908152602001600020600083815260200190815260200160002060000160008473ffffffffffffffffffffffffffffffffffffffff1673ffffffffffffffffffffffffffffffffffffffff16815260200190815260200160002060006101000a81548160ff0219169083151502179055506118ce610f4e565b73ffffffffffffffffffffffffffffffffffffffff168273ffffffffffffffffffffffffffffffffffffffff16847f2f8788117e7eff1d82e926ec794901d17c78024a50270940304540a733656f0d60405160405180910390a45b505050565b6000611956836000018373ffffffffffffffffffffffffffffffffffffffff1660001b612131565b905092915050565b600082600001828154811061199c577f4e487b7100000000000000000000000000000000000000000000000000000000600052603260045260246000fd5b9060005260206000200154905092915050565b6119ba8484846121a1565b6119c68484848461247f565b611a05576040517f08c379a00000000000000000000000000000000000000000000000000000000081526004016119fc90613795565b60405180910390fd5b50505050565b611a168383836105fc565b15611afb576000600b6000858152602001908152602001600020600083815260200190815260200160002060000160008473ffffffffffffffffffffffffffffffffffffffff1673ffffffffffffffffffffffffffffffffffffffff16815260200190815260200160002060006101000a81548160ff021916908315150217905550611aa0610f4e565b73ffffffffffffffffffffffffffffffffffffffff168273ffffffffffffffffffffffffffffffffffffffff16847ff6391f5c32d9c69d2a47ea670b442974b53935d1edc7fd64eb21e047a839171b60405160405180910390a45b505050565b6000611b28836000018373ffffffffffffffffffffffffffffffffffffffff1660001b612616565b905092915050565b600073ffffffffffffffffffffffffffffffffffffffff168273ffffffffffffffffffffffffffffffffffffffff161415611ba0576040517f08c379a0000000000000000000000000000000000000000000000000000000008152600401611b9790613875565b60405180910390fd5b611bac60008383611caf565b6001601360008473ffffffffffffffffffffffffffffffffffffffff1673ffffffffffffffffffffffffffffffffffffffff1681526020019081526020016000206000828254611bfc9190613aa6565b92505081905550816011600083815260200190815260200160002060006101000a81548173ffffffffffffffffffffffffffffffffffffffff021916908373ffffffffffffffffffffffffffffffffffffffff1602179055507f2b91a110f13ecbd5db0cd898f4df6c0627864d45204d76be0118046af370b1498282604051611c86929190613623565b60405180910390a1611c9a60008383611e32565b5050565b600081600001805490509050919050565b505050565b60005b601580549050811015611d31578160158281548110611cff577f4e487b7100000000000000000000000000000000000000000000000000000000600052603260045260246000fd5b90600052602060002001541415611d1e57611d198161279c565b611d31565b8080611d2990613cfc565b915050611cb7565b5050565b60005b601460008473ffffffffffffffffffffffffffffffffffffffff1673ffffffffffffffffffffffffffffffffffffffff16815260200190815260200160002080549050811015611e2d5781601460008573ffffffffffffffffffffffffffffffffffffffff1673ffffffffffffffffffffffffffffffffffffffff1681526020019081526020016000208281548110611dfa577f4e487b7100000000000000000000000000000000000000000000000000000000600052603260045260246000fd5b90600052602060002001541415611e1a57611e158382612900565b611e2d565b8080611e2590613cfc565b915050611d38565b505050565b505050565b606060006002836002611e4a9190613afc565b611e549190613aa6565b67ffffffffffffffff811115611e93577f4e487b7100000000000000000000000000000000000000000000000000000000600052604160045260246000fd5b6040519080825280601f01601f191660200182016040528015611ec55781602001600182028036833780820191505090505b5090507f300000000000000000000000000000000000000000000000000000000000000081600081518110611f23577f4e487b7100000000000000000000000000000000000000000000000000000000600052603260045260246000fd5b60200101907effffffffffffffffffffffffffffffffffffffffffffffffffffffffffffff1916908160001a9053507f780000000000000000000000000000000000000000000000000000000000000081600181518110611fad577f4e487b7100000000000000000000000000000000000000000000000000000000600052603260045260246000fd5b60200101907effffffffffffffffffffffffffffffffffffffffffffffffffffffffffffff1916908160001a90535060006001846002611fed9190613afc565b611ff79190613aa6565b90505b60018111156120e3577f3031323334353637383961626364656600000000000000000000000000000000600f86166010811061205f577f4e487b7100000000000000000000000000000000000000000000000000000000600052603260045260246000fd5b1a60f81b82828151811061209c577f4e487b7100000000000000000000000000000000000000000000000000000000600052603260045260246000fd5b60200101907effffffffffffffffffffffffffffffffffffffffffffffffffffffffffffff1916908160001a905350600485901c9450806120dc90613c6f565b9050611ffa565b5060008414612127576040517f08c379a000000000000000000000000000000000000000000000000000000000815260040161211e90613715565b60405180910390fd5b8091505092915050565b600061213d8383612b96565b61219657826000018290806001815401808255809150506001900390600052602060002001600090919091909150558260000180549050836001016000848152602001908152602001600020819055506001905061219b565b600090505b92915050565b8273ffffffffffffffffffffffffffffffffffffffff166121c1826106fb565b73ffffffffffffffffffffffffffffffffffffffff1614612217576040517f08c379a000000000000000000000000000000000000000000000000000000000815260040161220e906137d5565b60405180910390fd5b600073ffffffffffffffffffffffffffffffffffffffff168273ffffffffffffffffffffffffffffffffffffffff161415612287576040517f08c379a000000000000000000000000000000000000000000000000000000000815260040161227e90613895565b60405180910390fd5b612292838383611caf565b61229b81611cb4565b60158190806001815401808255809150506001900390600052602060002001600090919091909150556122ce8382611d35565b601460008373ffffffffffffffffffffffffffffffffffffffff1673ffffffffffffffffffffffffffffffffffffffff1681526020019081526020016000208190806001815401808255809150506001900390600052602060002001600090919091909150556001601360008573ffffffffffffffffffffffffffffffffffffffff1673ffffffffffffffffffffffffffffffffffffffff16815260200190815260200160002060008282546123849190613b56565b925050819055506001601360008473ffffffffffffffffffffffffffffffffffffffff1673ffffffffffffffffffffffffffffffffffffffff16815260200190815260200160002060008282546123db9190613aa6565b92505081905550816011600083815260200190815260200160002060006101000a81548173ffffffffffffffffffffffffffffffffffffffff021916908373ffffffffffffffffffffffffffffffffffffffff1602179055507f28a7bb89184e38b25c8ac71cd1d0d14acf8af5bfa3e7bda868b4f646a238115e838383604051612467939291906135d9565b60405180910390a161247a838383611e32565b505050565b60006124a08473ffffffffffffffffffffffffffffffffffffffff16612bb9565b15612609578373ffffffffffffffffffffffffffffffffffffffff1663955694906124c9610f4e565b8786866040518563ffffffff1660e01b81526004016124eb949392919061358d565b602060405180830381600087803b15801561250557600080fd5b505af192505050801561253657506040513d601f19601f820116820180604052508101906125339190612f5c565b60015b6125b9573d8060008114612566576040519150601f19603f3d011682016040523d82523d6000602084013e61256b565b606091505b506000815114156125b1576040517f08c379a00000000000000000000000000000000000000000000000000000000081526004016125a890613855565b60405180910390fd5b805181602001fd5b639556949060e01b7bffffffffffffffffffffffffffffffffffffffffffffffffffffffff1916817bffffffffffffffffffffffffffffffffffffffffffffffffffffffff19161491505061260e565b600190505b949350505050565b600080836001016000848152602001908152602001600020549050600081146127905760006001826126489190613b56565b90506000600186600001805490506126609190613b56565b905081811461271b5760008660000182815481106126a7577f4e487b7100000000000000000000000000000000000000000000000000000000600052603260045260246000fd5b90600052602060002001549050808760000184815481106126f1577f4e487b7100000000000000000000000000000000000000000000000000000000600052603260045260246000fd5b90600052602060002001819055508387600101600083815260200190815260200160002081905550505b85600001805480612755577f4e487b7100000000000000000000000000000000000000000000000000000000600052603160045260246000fd5b600190038181906000526020600020016000905590558560010160008681526020019081526020016000206000905560019350505050612796565b60009150505b92915050565b60158054905081106127e3576040517f08c379a00000000000000000000000000000000000000000000000000000000081526004016127da90613835565b60405180910390fd5b60008190505b60016015805490506127fb9190613b56565b8110156128ae5760156001826128119190613aa6565b81548110612848577f4e487b7100000000000000000000000000000000000000000000000000000000600052603260045260246000fd5b90600052602060002001546015828154811061288d577f4e487b7100000000000000000000000000000000000000000000000000000000600052603260045260246000fd5b906000526020600020018190555080806128a690613cfc565b9150506127e9565b5060158054806128e7577f4e487b7100000000000000000000000000000000000000000000000000000000600052603160045260246000fd5b6001900381819060005260206000200160009055905550565b601460008373ffffffffffffffffffffffffffffffffffffffff1673ffffffffffffffffffffffffffffffffffffffff168152602001908152602001600020805490508110612984576040517f08c379a000000000000000000000000000000000000000000000000000000000815260040161297b90613835565b60405180910390fd5b60008190505b6001601460008573ffffffffffffffffffffffffffffffffffffffff1673ffffffffffffffffffffffffffffffffffffffff168152602001908152602001600020805490506129d99190613b56565b811015612b0657601460008473ffffffffffffffffffffffffffffffffffffffff1673ffffffffffffffffffffffffffffffffffffffff168152602001908152602001600020600182612a2c9190613aa6565b81548110612a63577f4e487b7100000000000000000000000000000000000000000000000000000000600052603260045260246000fd5b9060005260206000200154601460008573ffffffffffffffffffffffffffffffffffffffff1673ffffffffffffffffffffffffffffffffffffffff1681526020019081526020016000208281548110612ae5577f4e487b7100000000000000000000000000000000000000000000000000000000600052603260045260246000fd5b90600052602060002001819055508080612afe90613cfc565b91505061298a565b50601460008373ffffffffffffffffffffffffffffffffffffffff1673ffffffffffffffffffffffffffffffffffffffff168152602001908152602001600020805480612b7c577f4e487b7100000000000000000000000000000000000000000000000000000000600052603160045260246000fd5b600190038181906000526020600020016000905590555050565b600080836001016000848152602001908152602001600020541415905092915050565b6000808273ffffffffffffffffffffffffffffffffffffffff163b119050919050565b828054612be890613c99565b90600052602060002090601f016020900481019282612c0a5760008555612c51565b82601f10612c2357805160ff1916838001178555612c51565b82800160010185558215612c51579182015b82811115612c50578251825591602001919060010190612c35565b5b509050612c5e9190612d2f565b5090565b828054612c6e90613c99565b90600052602060002090601f016020900481019282612c905760008555612cde565b82601f10612ca15780548555612cde565b82800160010185558215612cde57600052602060002091601f016020900482015b82811115612cdd578254825591600101919060010190612cc2565b5b509050612ceb9190612d2f565b5090565b508054612cfb90613c99565b6000825580601f10612d0d5750612d2c565b601f016020900490600052602060002090810190612d2b9190612d2f565b5b50565b5b80821115612d48576000816000905550600101612d30565b5090565b6000612d5f612d5a846139f9565b6139d4565b905082815260208101848484011115612d7757600080fd5b612d82848285613c2d565b509392505050565b600081359050612d9981614284565b92915050565b600081359050612dae8161429b565b92915050565b600081359050612dc3816142b2565b92915050565b600081519050612dd8816142c9565b92915050565b600082601f830112612def57600080fd5b8135612dff848260208601612d4c565b91505092915050565b600081359050612e17816142e0565b92915050565b600060208284031215612e2f57600080fd5b6000612e3d84828501612d8a565b91505092915050565b60008060408385031215612e5957600080fd5b6000612e6785828601612d8a565b9250506020612e7885828601612e08565b9150509250929050565b600080600060608486031215612e9757600080fd5b6000612ea586828701612db4565b9350506020612eb686828701612d8a565b9250506040612ec786828701612e08565b9150509250925092565b60008060408385031215612ee457600080fd5b6000612ef285828601612db4565b9250506020612f0385828601612e08565b9150509250929050565b600080600060608486031215612f2257600080fd5b6000612f3086828701612db4565b9350506020612f4186828701612e08565b9250506040612f5286828701612e08565b9150509250925092565b600060208284031215612f6e57600080fd5b6000612f7c84828501612dc9565b91505092915050565b600080600060608486031215612f9a57600080fd5b600084013567ffffffffffffffff811115612fb457600080fd5b612fc086828701612dde565b935050602084013567ffffffffffffffff811115612fdd57600080fd5b612fe986828701612dde565b925050604084013567ffffffffffffffff81111561300657600080fd5b61301286828701612dde565b9150509250925092565b60006020828403121561302e57600080fd5b600061303c84828501612e08565b91505092915050565b600080600080600080600060e0888a03121561306057600080fd5b600061306e8a828b01612e08565b975050602088013567ffffffffffffffff81111561308b57600080fd5b6130978a828b01612dde565b965050604088013567ffffffffffffffff8111156130b457600080fd5b6130c08a828b01612dde565b95505060606130d18a828b01612d9f565b94505060806130e28a828b01612d9f565b93505060a06130f38a828b01612d9f565b92505060c06131048a828b01612e08565b91505092959891949750929550565b6000806040838503121561312657600080fd5b600061313485828601612e08565b925050602061314585828601612e08565b9150509250929050565b600061315b838361351a565b60208301905092915050565b61317081613b8a565b82525050565b600061318182613a3a565b61318b8185613a68565b935061319683613a2a565b8060005b838110156131c75781516131ae888261314f565b97506131b983613a5b565b92505060018101905061319a565b5085935050505092915050565b6131dd81613b9c565b82525050565b6131ec81613ba8565b82525050565b60006131fd82613a45565b6132078185613a79565b9350613217818560208601613c3c565b61322081613e01565b840191505092915050565b61323481613c1b565b82525050565b600061324582613a50565b61324f8185613a8a565b935061325f818560208601613c3c565b61326881613e01565b840191505092915050565b600061327e82613a50565b6132888185613a9b565b9350613298818560208601613c3c565b80840191505092915050565b60006132b1602083613a8a565b91506132bc82613e12565b602082019050919050565b60006132d4603e83613a8a565b91506132df82613e3b565b604082019050919050565b60006132f7601983613a8a565b915061330282613e8a565b602082019050919050565b600061331a602183613a8a565b915061332582613eb3565b604082019050919050565b600061333d603e83613a8a565b915061334882613f02565b604082019050919050565b6000613360602783613a8a565b915061336b82613f51565b604082019050919050565b6000613383602a83613a8a565b915061338e82613fa0565b604082019050919050565b60006133a6602283613a8a565b91506133b182613fef565b604082019050919050565b60006133c9602883613a8a565b91506133d48261403e565b604082019050919050565b60006133ec602183613a8a565b91506133f78261408d565b604082019050919050565b600061340f601283613a8a565b915061341a826140dc565b602082019050919050565b6000613432602c83613a8a565b915061343d82614105565b604082019050919050565b6000613455601383613a8a565b915061346082614154565b602082019050919050565b6000613478601a83613a8a565b91506134838261417d565b602082019050919050565b600061349b601b83613a8a565b91506134a6826141a6565b602082019050919050565b60006134be602183613a8a565b91506134c9826141cf565b604082019050919050565b60006134e1601783613a9b565b91506134ec8261421e565b601782019050919050565b6000613504601183613a9b565b915061350f82614247565b601182019050919050565b61352381613c11565b82525050565b61353281613c11565b82525050565b6000613543826134d4565b915061354f8285613273565b915061355a826134f7565b91506135668284613273565b91508190509392505050565b60006020820190506135876000830184613167565b92915050565b60006080820190506135a26000830187613167565b6135af6020830186613167565b6135bc6040830185613529565b81810360608301526135ce81846131f2565b905095945050505050565b60006080820190506135ee6000830186613167565b6135fb6020830185613167565b6136086040830184613529565b81810360608301526136198161348e565b9050949350505050565b60006060820190506136386000830185613167565b6136456020830184613529565b8181036040830152613656816132ea565b90509392505050565b60006060820190506136746000830185613167565b6136816020830184613529565b818103604083015261369281613448565b90509392505050565b600060208201905081810360008301526136b58184613176565b905092915050565b60006020820190506136d260008301846131d4565b92915050565b60006020820190506136ed60008301846131e3565b92915050565b6000602082019050818103600083015261370d818461323a565b905092915050565b6000602082019050818103600083015261372e816132a4565b9050919050565b6000602082019050818103600083015261374e816132c7565b9050919050565b6000602082019050818103600083015261376e8161330d565b9050919050565b6000602082019050818103600083015261378e81613330565b9050919050565b600060208201905081810360008301526137ae81613353565b9050919050565b600060208201905081810360008301526137ce81613376565b9050919050565b600060208201905081810360008301526137ee81613399565b9050919050565b6000602082019050818103600083015261380e816133bc565b9050919050565b6000602082019050818103600083015261382e816133df565b9050919050565b6000602082019050818103600083015261384e81613402565b9050919050565b6000602082019050818103600083015261386e81613425565b9050919050565b6000602082019050818103600083015261388e8161346b565b9050919050565b600060208201905081810360008301526138ae816134b1565b9050919050565b60006020820190506138ca6000830184613529565b92915050565b60006080820190506138e56000830187613529565b81810360208301526138f7818661323a565b9050818103604083015261390b818561323a565b9050818103606083015261391f818461323a565b905095945050505050565b600061014082019050613940600083018d613529565b61394d602083018c613529565b61395a604083018b613167565b818103606083015261396c818a61323a565b90508181036080830152613980818961323a565b905061398f60a08301886131d4565b61399c60c08301876131d4565b6139a960e08301866131d4565b6139b7610100830185613529565b6139c561012083018461322b565b9b9a5050505050505050505050565b60006139de6139ef565b90506139ea8282613ccb565b919050565b6000604051905090565b600067ffffffffffffffff821115613a1457613a13613dd2565b5b613a1d82613e01565b9050602081019050919050565b6000819050602082019050919050565b600081519050919050565b600081519050919050565b600081519050919050565b6000602082019050919050565b600082825260208201905092915050565b600082825260208201905092915050565b600082825260208201905092915050565b600081905092915050565b6000613ab182613c11565b9150613abc83613c11565b9250827fffffffffffffffffffffffffffffffffffffffffffffffffffffffffffffffff03821115613af157613af0613d45565b5b828201905092915050565b6000613b0782613c11565b9150613b1283613c11565b9250817fffffffffffffffffffffffffffffffffffffffffffffffffffffffffffffffff0483118215151615613b4b57613b4a613d45565b5b828202905092915050565b6000613b6182613c11565b9150613b6c83613c11565b925082821015613b7f57613b7e613d45565b5b828203905092915050565b6000613b9582613bf1565b9050919050565b60008115159050919050565b6000819050919050565b60007fffffffff0000000000000000000000000000000000000000000000000000000082169050919050565b6000819050613bec82614270565b919050565b600073ffffffffffffffffffffffffffffffffffffffff82169050919050565b6000819050919050565b6000613c2682613bde565b9050919050565b82818337600083830152505050565b60005b83811015613c5a578082015181840152602081019050613c3f565b83811115613c69576000848401525b50505050565b6000613c7a82613c11565b91506000821415613c8e57613c8d613d45565b5b600182039050919050565b60006002820490506001821680613cb157607f821691505b60208210811415613cc557613cc4613da3565b5b50919050565b613cd482613e01565b810181811067ffffffffffffffff82111715613cf357613cf2613dd2565b5b80604052505050565b6000613d0782613c11565b91507fffffffffffffffffffffffffffffffffffffffffffffffffffffffffffffffff821415613d3a57613d39613d45565b5b600182019050919050565b7f4e487b7100000000000000000000000000000000000000000000000000000000600052601160045260246000fd5b7f4e487b7100000000000000000000000000000000000000000000000000000000600052602160045260246000fd5b7f4e487b7100000000000000000000000000000000000000000000000000000000600052602260045260246000fd5b7f4e487b7100000000000000000000000000000000000000000000000000000000600052604160045260246000fd5b6000601f19601f8301169050919050565b7f537472696e67733a20686578206c656e67746820696e73756666696369656e74600082015250565b7f6d75737420686176652041646d696e20726f6c6520696e206f7267616e617a6160008201527f74696f6e20746f2064656c6574652063726564656e7469616c20747970650000602082015250565b7f6f726167616e617a6174696f6e20686176652063726561746500000000000000600082015250565b7f61646472657373207a65726f206973206e6f7420612076616c6964206f776e6560008201527f7200000000000000000000000000000000000000000000000000000000000000602082015250565b7f6d75737420686176652041646d696e20726f6c6520696e206f7267616e617a6160008201527f74696f6e20746f206372656174652063726564656e7469616c20747970650000602082015250565b7f7472616e7366657220746f206e6f6e204f5247526563656976657220696d706c60008201527f656d656e74657200000000000000000000000000000000000000000000000000602082015250565b7f6d75737420686176652041646d696e20726f6c6520746f207472616e7366657260008201527f206f7267617a61696f6e00000000000000000000000000000000000000000000602082015250565b7f4f52473a207472616e736665722066726f6d20696e636f7272656374206f776e60008201527f6572000000000000000000000000000000000000000000000000000000000000602082015250565b7f6d75737420686176652041646d696e20726f6c6520746f2064656c657465206f60008201527f7267617a61696f6e000000000000000000000000000000000000000000000000602082015250565b7f6f776e657220717565727920666f72206e6f6e6578697374656e7420746f6b6560008201527f6e00000000000000000000000000000000000000000000000000000000000000602082015250565b7f696e646578206f7574206f6620626f756e640000000000000000000000000000600082015250565b7f4f52473a207472616e7366657220746f206e6f6e204f5247526563656976657260008201527f20696d706c656d656e7465720000000000000000000000000000000000000000602082015250565b7f44656c657465206f7267616e617a6174696f6e00000000000000000000000000600082015250565b7f63726561746520746f20746865207a65726f2061646472657373000000000000600082015250565b7f6f726167616e617a6174696f6e2068617665207472616e736665720000000000600082015250565b7f4f52473a207472616e7366657220746f20746865207a65726f2061646472657360008201527f7300000000000000000000000000000000000000000000000000000000000000602082015250565b7f416363657373436f6e74726f6c3a206163636f756e7420000000000000000000600082015250565b7f206973206d697373696e6720726f6c6520000000000000000000000000000000600082015250565b6002811061428157614280613d74565b5b50565b61428d81613b8a565b811461429857600080fd5b50565b6142a481613b9c565b81146142af57600080fd5b50565b6142bb81613ba8565b81146142c657600080fd5b50565b6142d281613bb2565b81146142dd57600080fd5b50565b6142e981613c11565b81146142f457600080fd5b5056fea26469706673582212206a05734f030e5023e96ec5037fc47550baaf6afad7ea4af566dbd935ef56d92a64736f6c63430008040033",
  "linkReferences": {},
  "deployedLinkReferences": {}
}